{
  "abi": [
    {
      "inputs": [],
      "stateMutability": "nonpayable",
      "type": "constructor"
    },
    {
      "inputs": [
        {
          "internalType": "address",
          "name": "_addrOfPart",
          "type": "address"
        }
      ],
      "name": "acceptReq",
      "outputs": [],
      "stateMutability": "nonpayable",
      "type": "function"
    },
    {
      "inputs": [
        {
          "internalType": "string",
          "name": "_hash",
          "type": "string"
        }
      ],
      "name": "addCoverImg",
      "outputs": [],
      "stateMutability": "nonpayable",
      "type": "function"
    },
    {
      "inputs": [
        {
          "internalType": "string",
          "name": "_name",
          "type": "string"
        },
        {
          "internalType": "string",
          "name": "_start",
          "type": "string"
        },
        {
          "internalType": "string",
          "name": "_regEnd",
          "type": "string"
        },
        {
          "internalType": "string",
          "name": "_end",
          "type": "string"
        },
        {
          "internalType": "string",
          "name": "_desc",
          "type": "string"
        },
        {
          "internalType": "uint256",
          "name": "_prize",
          "type": "uint256"
        }
      ],
      "name": "addHacks",
      "outputs": [],
      "stateMutability": "payable",
      "type": "function"
    },
    {
      "inputs": [],
      "name": "allHacks",
      "outputs": [
        {
          "components": [
            {
              "internalType": "uint256",
              "name": "id",
              "type": "uint256"
            },
            {
              "internalType": "string",
              "name": "hackName",
              "type": "string"
            },
            {
              "internalType": "string",
              "name": "startDate",
              "type": "string"
            },
            {
              "internalType": "string",
              "name": "regEndDate",
              "type": "string"
            },
            {
              "internalType": "string",
              "name": "endDate",
              "type": "string"
            },
            {
              "internalType": "string",
              "name": "description",
              "type": "string"
            },
            {
              "internalType": "uint256",
              "name": "prizeAmount",
              "type": "uint256"
            },
            {
              "internalType": "bool",
              "name": "hasStarted",
              "type": "bool"
            },
            {
              "internalType": "bool",
              "name": "hasEnded",
              "type": "bool"
            },
            {
              "internalType": "address",
              "name": "hackOwner",
              "type": "address"
            }
          ],
          "internalType": "struct Deethon.Hack[]",
          "name": "",
          "type": "tuple[]"
        }
      ],
      "stateMutability": "view",
      "type": "function"
    },
    {
      "inputs": [
        {
          "internalType": "address",
          "name": "_addrOfHack",
          "type": "address"
        },
        {
          "internalType": "address",
          "name": "_addrOfParts",
          "type": "address"
        }
      ],
      "name": "applyForHack",
      "outputs": [],
      "stateMutability": "nonpayable",
      "type": "function"
    },
    {
      "inputs": [],
      "name": "endHack",
      "outputs": [],
      "stateMutability": "nonpayable",
      "type": "function"
    },
    {
      "inputs": [],
      "name": "getCoverImg",
      "outputs": [
        {
          "internalType": "string",
          "name": "",
          "type": "string"
        }
      ],
      "stateMutability": "view",
      "type": "function"
    },
    {
      "inputs": [],
      "name": "getListOfApplicant",
      "outputs": [
        {
          "internalType": "address[]",
          "name": "",
          "type": "address[]"
        }
      ],
      "stateMutability": "view",
      "type": "function"
    },
    {
      "inputs": [
        {
          "internalType": "uint256",
          "name": "_prize",
          "type": "uint256"
        }
      ],
      "name": "increasePrize",
      "outputs": [],
      "stateMutability": "payable",
      "type": "function"
    },
    {
      "inputs": [],
      "name": "isSellected",
      "outputs": [
        {
          "internalType": "bool",
          "name": "",
          "type": "bool"
        }
      ],
      "stateMutability": "view",
      "type": "function"
    },
    {
      "inputs": [],
      "name": "owner",
      "outputs": [
        {
          "internalType": "address payable",
          "name": "",
          "type": "address"
        }
      ],
      "stateMutability": "view",
      "type": "function"
    },
    {
      "inputs": [
        {
          "internalType": "string",
          "name": "_start",
          "type": "string"
        },
        {
          "internalType": "string",
          "name": "_regEnd",
          "type": "string"
        },
        {
          "internalType": "string",
          "name": "_end",
          "type": "string"
        }
      ],
      "name": "setDates",
      "outputs": [],
      "stateMutability": "payable",
      "type": "function"
    },
    {
      "inputs": [
        {
          "internalType": "string",
          "name": "_name",
          "type": "string"
        },
        {
          "internalType": "string",
          "name": "_desc",
          "type": "string"
        }
      ],
      "name": "setDetails",
      "outputs": [],
      "stateMutability": "payable",
      "type": "function"
    },
    {
      "inputs": [],
      "name": "startHack",
      "outputs": [],
      "stateMutability": "nonpayable",
      "type": "function"
    },
    {
      "inputs": [],
      "name": "withdrawFunds",
      "outputs": [],
      "stateMutability": "payable",
      "type": "function"
    }
  ],
  "devdoc": {
    "kind": "dev",
    "methods": {},
    "version": 1
  },
  "evm": {
    "assembly": "    /* \"Dethons.sol\":58:4957  contract Deethon {... */\n  mstore(0x40, 0x80)\n    /* \"Dethons.sol\":134:135  0 */\n  0x00\n    /* \"Dethons.sol\":115:135  uint internal id = 0 */\n  0x01\n  sstore\n    /* \"Dethons.sol\":164:165  0 */\n  0x00\n    /* \"Dethons.sol\":141:165  uint internal listId = 0 */\n  0x02\n  sstore\n    /* \"Dethons.sol\":172:230  constructor() {... */\n  callvalue\n  dup1\n  iszero\n  tag_1\n  jumpi\n  0x00\n  dup1\n  revert\ntag_1:\n  pop\n    /* \"Dethons.sol\":196:201  owner */\n  0x00\n    /* \"Dethons.sol\":196:223  owner = payable(msg.sender) */\n  dup1\n  sload\n  not(sub(shl(0xa0, 0x01), 0x01))\n  and\n    /* \"Dethons.sol\":212:222  msg.sender */\n  caller\n    /* \"Dethons.sol\":196:223  owner = payable(msg.sender) */\n  or\n  swap1\n  sstore\n    /* \"Dethons.sol\":58:4957  contract Deethon {... */\n  dataSize(sub_0)\n  dup1\n  dataOffset(sub_0)\n  0x00\n  codecopy\n  0x00\n  return\nstop\n\nsub_0: assembly {\n        /* \"Dethons.sol\":58:4957  contract Deethon {... */\n      mstore(0x40, 0x80)\n      jumpi(tag_1, lt(calldatasize, 0x04))\n      shr(0xe0, calldataload(0x00))\n      dup1\n      0x625550c6\n      gt\n      tag_17\n      jumpi\n      dup1\n      0x90a19277\n      gt\n      tag_18\n      jumpi\n      dup1\n      0x90a19277\n      eq\n      tag_13\n      jumpi\n      dup1\n      0xa28a795f\n      eq\n      tag_14\n      jumpi\n      dup1\n      0xabb96304\n      eq\n      tag_15\n      jumpi\n      dup1\n      0xb7b090ee\n      eq\n      tag_16\n      jumpi\n      0x00\n      dup1\n      revert\n    tag_18:\n      dup1\n      0x625550c6\n      eq\n      tag_9\n      jumpi\n      dup1\n      0x69a104b3\n      eq\n      tag_10\n      jumpi\n      dup1\n      0x8bd03dcf\n      eq\n      tag_11\n      jumpi\n      dup1\n      0x8da5cb5b\n      eq\n      tag_12\n      jumpi\n      0x00\n      dup1\n      revert\n    tag_17:\n      dup1\n      0x24600fc3\n      gt\n      tag_19\n      jumpi\n      dup1\n      0x24600fc3\n      eq\n      tag_5\n      jumpi\n      dup1\n      0x55c39aa1\n      eq\n      tag_6\n      jumpi\n      dup1\n      0x5d9a65d0\n      eq\n      tag_7\n      jumpi\n      dup1\n      0x5ed75341\n      eq\n      tag_8\n      jumpi\n      0x00\n      dup1\n      revert\n    tag_19:\n      dup1\n      0x06228090\n      eq\n      tag_2\n      jumpi\n      dup1\n      0x127d87db\n      eq\n      tag_3\n      jumpi\n      dup1\n      0x177169e2\n      eq\n      tag_4\n      jumpi\n    tag_1:\n      0x00\n      dup1\n      revert\n        /* \"Dethons.sol\":3253:3446  function applyForHack(address _addrOfHack, address _addrOfParts) external {... */\n    tag_2:\n      callvalue\n      dup1\n      iszero\n      tag_20\n      jumpi\n      0x00\n      dup1\n      revert\n    tag_20:\n      pop\n      tag_21\n      tag_22\n      calldatasize\n      0x04\n      tag_23\n      jump\t// in\n    tag_22:\n      sub(shl(0xa0, 0x01), 0x01)\n        /* \"Dethons.sol\":3337:3367  partsListForOwner[_addrOfHack] */\n      swap2\n      dup3\n      and\n      0x00\n      swap1\n      dup2\n      mstore\n        /* \"Dethons.sol\":3337:3354  partsListForOwner */\n      0x08\n        /* \"Dethons.sol\":3337:3367  partsListForOwner[_addrOfHack] */\n      0x20\n      swap1\n      dup2\n      mstore\n      0x40\n      dup1\n      dup4\n      keccak256\n        /* \"Dethons.sol\":3337:3375  partsListForOwner[_addrOfHack].listArr */\n      0x01\n      swap1\n      dup2\n      add\n        /* \"Dethons.sol\":3337:3394  partsListForOwner[_addrOfHack].listArr.push(_addrOfParts) */\n      dup1\n      sload\n      swap2\n      dup3\n      add\n      dup2\n      sstore\n      dup5\n      mstore\n      dup3\n      dup5\n      keccak256\n      add\n      dup1\n      sload\n      not(0xffffffffffffffffffffffffffffffffffffffff)\n      and\n      swap5\n      swap1\n      swap6\n      and\n      swap4\n      dup5\n      or\n      swap1\n      swap5\n      sstore\n        /* \"Dethons.sol\":3404:3431  reqIsAccepted[_addrOfParts] */\n      swap2\n      dup2\n      mstore\n        /* \"Dethons.sol\":3404:3417  reqIsAccepted */\n      0x09\n        /* \"Dethons.sol\":3404:3431  reqIsAccepted[_addrOfParts] */\n      swap1\n      swap2\n      mstore\n      keccak256\n        /* \"Dethons.sol\":3404:3439  reqIsAccepted[_addrOfParts] = false */\n      dup1\n      sload\n      not(0xff)\n      and\n      swap1\n      sstore\n        /* \"Dethons.sol\":3253:3446  function applyForHack(address _addrOfHack, address _addrOfParts) external {... */\n      jump\n    tag_21:\n      stop\n        /* \"Dethons.sol\":4685:4774  function allHacks() external view returns (Hack[] memory) {... */\n    tag_3:\n      callvalue\n      dup1\n      iszero\n      tag_25\n      jumpi\n      0x00\n      dup1\n      revert\n    tag_25:\n      pop\n      tag_26\n      tag_27\n      jump\t// in\n    tag_26:\n      mload(0x40)\n      tag_28\n      swap2\n      swap1\n      tag_29\n      jump\t// in\n    tag_28:\n      mload(0x40)\n      dup1\n      swap2\n      sub\n      swap1\n      return\n        /* \"Dethons.sol\":3670:3890  function acceptReq(address _addrOfPart) external {... */\n    tag_4:\n      callvalue\n      dup1\n      iszero\n      tag_30\n      jumpi\n      0x00\n      dup1\n      revert\n    tag_30:\n      pop\n      tag_21\n      tag_32\n      calldatasize\n      0x04\n      tag_33\n      jump\t// in\n    tag_32:\n      tag_34\n      jump\t// in\n        /* \"Dethons.sol\":4780:4955  function withdrawFunds() external payable {... */\n    tag_5:\n      tag_21\n      tag_36\n      jump\t// in\n        /* \"Dethons.sol\":4271:4445  function startHack() external {... */\n    tag_6:\n      callvalue\n      dup1\n      iszero\n      tag_37\n      jumpi\n      0x00\n      dup1\n      revert\n    tag_37:\n      pop\n      tag_21\n      tag_39\n      jump\t// in\n        /* \"Dethons.sol\":4451:4679  function endHack() external {... */\n    tag_7:\n      callvalue\n      dup1\n      iszero\n      tag_40\n      jumpi\n      0x00\n      dup1\n      revert\n    tag_40:\n      pop\n      tag_21\n      tag_42\n      jump\t// in\n        /* \"Dethons.sol\":3452:3664  function getListOfApplicant() external view returns (address[] memory) {... */\n    tag_8:\n      callvalue\n      dup1\n      iszero\n      tag_43\n      jumpi\n      0x00\n      dup1\n      revert\n    tag_43:\n      pop\n      tag_44\n      tag_45\n      jump\t// in\n    tag_44:\n      mload(0x40)\n      tag_28\n      swap2\n      swap1\n      tag_47\n      jump\t// in\n        /* \"Dethons.sol\":986:2028  function addHacks(... */\n    tag_9:\n      tag_21\n      tag_49\n      calldatasize\n      0x04\n      tag_50\n      jump\t// in\n    tag_49:\n      tag_51\n      jump\t// in\n        /* \"Dethons.sol\":4079:4265  function getCoverImg() external view returns (string memory) {... */\n    tag_10:\n      callvalue\n      dup1\n      iszero\n      tag_52\n      jumpi\n      0x00\n      dup1\n      revert\n    tag_52:\n      pop\n      tag_53\n      tag_54\n      jump\t// in\n    tag_53:\n      mload(0x40)\n      tag_28\n      swap2\n      swap1\n      tag_56\n      jump\t// in\n        /* \"Dethons.sol\":2872:3140  function increasePrize(uint _prize) external payable {... */\n    tag_11:\n      tag_21\n      tag_58\n      calldatasize\n      0x04\n      tag_59\n      jump\t// in\n    tag_58:\n      tag_60\n      jump\t// in\n        /* \"Dethons.sol\":81:109  address payable public owner */\n    tag_12:\n      callvalue\n      dup1\n      iszero\n      tag_61\n      jumpi\n      0x00\n      dup1\n      revert\n    tag_61:\n      pop\n      sload(0x00)\n      tag_62\n      swap1\n      sub(shl(0xa0, 0x01), 0x01)\n      and\n      dup2\n      jump\n    tag_62:\n      mload(0x40)\n      sub(shl(0xa0, 0x01), 0x01)\n        /* \"#utility.yul\":7123:7178   */\n      swap1\n      swap2\n      and\n        /* \"#utility.yul\":7105:7179   */\n      dup2\n      mstore\n        /* \"#utility.yul\":7093:7095   */\n      0x20\n        /* \"#utility.yul\":7078:7096   */\n      add\n        /* \"Dethons.sol\":81:109  address payable public owner */\n      tag_28\n        /* \"#utility.yul\":6943:7185   */\n      jump\n        /* \"Dethons.sol\":2034:2491  function setDates(... */\n    tag_13:\n      tag_21\n      tag_67\n      calldatasize\n      0x04\n      tag_68\n      jump\t// in\n    tag_67:\n      tag_69\n      jump\t// in\n        /* \"Dethons.sol\":3896:4073  function addCoverImg(string memory _hash) external {... */\n    tag_14:\n      callvalue\n      dup1\n      iszero\n      tag_70\n      jumpi\n      0x00\n      dup1\n      revert\n    tag_70:\n      pop\n      tag_21\n      tag_72\n      calldatasize\n      0x04\n      tag_73\n      jump\t// in\n    tag_72:\n      tag_74\n      jump\t// in\n        /* \"Dethons.sol\":3146:3247  function isSellected() external view returns (bool) {... */\n    tag_15:\n      callvalue\n      dup1\n      iszero\n      tag_75\n      jumpi\n      0x00\n      dup1\n      revert\n    tag_75:\n      pop\n        /* \"Dethons.sol\":3229:3239  msg.sender */\n      caller\n        /* \"Dethons.sol\":3192:3196  bool */\n      0x00\n        /* \"Dethons.sol\":3215:3240  reqIsAccepted[msg.sender] */\n      swap1\n      dup2\n      mstore\n        /* \"Dethons.sol\":3215:3228  reqIsAccepted */\n      0x09\n        /* \"Dethons.sol\":3215:3240  reqIsAccepted[msg.sender] */\n      0x20\n      mstore\n      0x40\n      swap1\n      keccak256\n      sload\n      0xff\n      and\n        /* \"Dethons.sol\":3146:3247  function isSellected() external view returns (bool) {... */\n      mload(0x40)\n        /* \"#utility.yul\":8430:8444   */\n      swap1\n      iszero\n        /* \"#utility.yul\":8423:8445   */\n      iszero\n        /* \"#utility.yul\":8405:8446   */\n      dup2\n      mstore\n        /* \"#utility.yul\":8393:8395   */\n      0x20\n        /* \"#utility.yul\":8378:8396   */\n      add\n        /* \"Dethons.sol\":3146:3247  function isSellected() external view returns (bool) {... */\n      tag_28\n        /* \"#utility.yul\":8265:8452   */\n      jump\n        /* \"Dethons.sol\":2497:2866  function setDetails(string memory _name, string memory _desc)... */\n    tag_16:\n      tag_21\n      tag_81\n      calldatasize\n      0x04\n      tag_82\n      jump\t// in\n    tag_81:\n      tag_83\n      jump\t// in\n        /* \"Dethons.sol\":4685:4774  function allHacks() external view returns (Hack[] memory) {... */\n    tag_27:\n        /* \"Dethons.sol\":4728:4741  Hack[] memory */\n      0x60\n        /* \"Dethons.sol\":4760:4767  hackArr */\n      0x04\n        /* \"Dethons.sol\":4753:4767  return hackArr */\n      dup1\n      sload\n      dup1\n      0x20\n      mul\n      0x20\n      add\n      mload(0x40)\n      swap1\n      dup2\n      add\n      0x40\n      mstore\n      dup1\n      swap3\n      swap2\n      swap1\n      dup2\n      dup2\n      mstore\n      0x20\n      add\n      0x00\n      swap1\n    tag_87:\n      dup3\n      dup3\n      lt\n      iszero\n      tag_88\n      jumpi\n      dup4\n      dup3\n      swap1\n      0x00\n      mstore\n      keccak256(0x00, 0x20)\n      swap1\n      0x08\n      mul\n      add\n      mload(0x40)\n      dup1\n      0x0140\n      add\n      0x40\n      mstore\n      swap1\n      dup2\n      0x00\n      dup3\n      add\n      sload\n      dup2\n      mstore\n      0x20\n      add\n      0x01\n      dup3\n      add\n      dup1\n      sload\n      tag_90\n      swap1\n      tag_91\n      jump\t// in\n    tag_90:\n      dup1\n      0x1f\n      add\n      0x20\n      dup1\n      swap2\n      div\n      mul\n      0x20\n      add\n      mload(0x40)\n      swap1\n      dup2\n      add\n      0x40\n      mstore\n      dup1\n      swap3\n      swap2\n      swap1\n      dup2\n      dup2\n      mstore\n      0x20\n      add\n      dup3\n      dup1\n      sload\n      tag_92\n      swap1\n      tag_91\n      jump\t// in\n    tag_92:\n      dup1\n      iszero\n      tag_93\n      jumpi\n      dup1\n      0x1f\n      lt\n      tag_94\n      jumpi\n      0x0100\n      dup1\n      dup4\n      sload\n      div\n      mul\n      dup4\n      mstore\n      swap2\n      0x20\n      add\n      swap2\n      jump(tag_93)\n    tag_94:\n      dup3\n      add\n      swap2\n      swap1\n      0x00\n      mstore\n      keccak256(0x00, 0x20)\n      swap1\n    tag_95:\n      dup2\n      sload\n      dup2\n      mstore\n      swap1\n      0x01\n      add\n      swap1\n      0x20\n      add\n      dup1\n      dup4\n      gt\n      tag_95\n      jumpi\n      dup3\n      swap1\n      sub\n      0x1f\n      and\n      dup3\n      add\n      swap2\n    tag_93:\n      pop\n      pop\n      pop\n      pop\n      pop\n      dup2\n      mstore\n      0x20\n      add\n      0x02\n      dup3\n      add\n      dup1\n      sload\n      tag_96\n      swap1\n      tag_91\n      jump\t// in\n    tag_96:\n      dup1\n      0x1f\n      add\n      0x20\n      dup1\n      swap2\n      div\n      mul\n      0x20\n      add\n      mload(0x40)\n      swap1\n      dup2\n      add\n      0x40\n      mstore\n      dup1\n      swap3\n      swap2\n      swap1\n      dup2\n      dup2\n      mstore\n      0x20\n      add\n      dup3\n      dup1\n      sload\n      tag_97\n      swap1\n      tag_91\n      jump\t// in\n    tag_97:\n      dup1\n      iszero\n      tag_98\n      jumpi\n      dup1\n      0x1f\n      lt\n      tag_99\n      jumpi\n      0x0100\n      dup1\n      dup4\n      sload\n      div\n      mul\n      dup4\n      mstore\n      swap2\n      0x20\n      add\n      swap2\n      jump(tag_98)\n    tag_99:\n      dup3\n      add\n      swap2\n      swap1\n      0x00\n      mstore\n      keccak256(0x00, 0x20)\n      swap1\n    tag_100:\n      dup2\n      sload\n      dup2\n      mstore\n      swap1\n      0x01\n      add\n      swap1\n      0x20\n      add\n      dup1\n      dup4\n      gt\n      tag_100\n      jumpi\n      dup3\n      swap1\n      sub\n      0x1f\n      and\n      dup3\n      add\n      swap2\n    tag_98:\n      pop\n      pop\n      pop\n      pop\n      pop\n      dup2\n      mstore\n      0x20\n      add\n      0x03\n      dup3\n      add\n      dup1\n      sload\n      tag_101\n      swap1\n      tag_91\n      jump\t// in\n    tag_101:\n      dup1\n      0x1f\n      add\n      0x20\n      dup1\n      swap2\n      div\n      mul\n      0x20\n      add\n      mload(0x40)\n      swap1\n      dup2\n      add\n      0x40\n      mstore\n      dup1\n      swap3\n      swap2\n      swap1\n      dup2\n      dup2\n      mstore\n      0x20\n      add\n      dup3\n      dup1\n      sload\n      tag_102\n      swap1\n      tag_91\n      jump\t// in\n    tag_102:\n      dup1\n      iszero\n      tag_103\n      jumpi\n      dup1\n      0x1f\n      lt\n      tag_104\n      jumpi\n      0x0100\n      dup1\n      dup4\n      sload\n      div\n      mul\n      dup4\n      mstore\n      swap2\n      0x20\n      add\n      swap2\n      jump(tag_103)\n    tag_104:\n      dup3\n      add\n      swap2\n      swap1\n      0x00\n      mstore\n      keccak256(0x00, 0x20)\n      swap1\n    tag_105:\n      dup2\n      sload\n      dup2\n      mstore\n      swap1\n      0x01\n      add\n      swap1\n      0x20\n      add\n      dup1\n      dup4\n      gt\n      tag_105\n      jumpi\n      dup3\n      swap1\n      sub\n      0x1f\n      and\n      dup3\n      add\n      swap2\n    tag_103:\n      pop\n      pop\n      pop\n      pop\n      pop\n      dup2\n      mstore\n      0x20\n      add\n      0x04\n      dup3\n      add\n      dup1\n      sload\n      tag_106\n      swap1\n      tag_91\n      jump\t// in\n    tag_106:\n      dup1\n      0x1f\n      add\n      0x20\n      dup1\n      swap2\n      div\n      mul\n      0x20\n      add\n      mload(0x40)\n      swap1\n      dup2\n      add\n      0x40\n      mstore\n      dup1\n      swap3\n      swap2\n      swap1\n      dup2\n      dup2\n      mstore\n      0x20\n      add\n      dup3\n      dup1\n      sload\n      tag_107\n      swap1\n      tag_91\n      jump\t// in\n    tag_107:\n      dup1\n      iszero\n      tag_108\n      jumpi\n      dup1\n      0x1f\n      lt\n      tag_109\n      jumpi\n      0x0100\n      dup1\n      dup4\n      sload\n      div\n      mul\n      dup4\n      mstore\n      swap2\n      0x20\n      add\n      swap2\n      jump(tag_108)\n    tag_109:\n      dup3\n      add\n      swap2\n      swap1\n      0x00\n      mstore\n      keccak256(0x00, 0x20)\n      swap1\n    tag_110:\n      dup2\n      sload\n      dup2\n      mstore\n      swap1\n      0x01\n      add\n      swap1\n      0x20\n      add\n      dup1\n      dup4\n      gt\n      tag_110\n      jumpi\n      dup3\n      swap1\n      sub\n      0x1f\n      and\n      dup3\n      add\n      swap2\n    tag_108:\n      pop\n      pop\n      pop\n      pop\n      pop\n      dup2\n      mstore\n      0x20\n      add\n      0x05\n      dup3\n      add\n      dup1\n      sload\n      tag_111\n      swap1\n      tag_91\n      jump\t// in\n    tag_111:\n      dup1\n      0x1f\n      add\n      0x20\n      dup1\n      swap2\n      div\n      mul\n      0x20\n      add\n      mload(0x40)\n      swap1\n      dup2\n      add\n      0x40\n      mstore\n      dup1\n      swap3\n      swap2\n      swap1\n      dup2\n      dup2\n      mstore\n      0x20\n      add\n      dup3\n      dup1\n      sload\n      tag_112\n      swap1\n      tag_91\n      jump\t// in\n    tag_112:\n      dup1\n      iszero\n      tag_113\n      jumpi\n      dup1\n      0x1f\n      lt\n      tag_114\n      jumpi\n      0x0100\n      dup1\n      dup4\n      sload\n      div\n      mul\n      dup4\n      mstore\n      swap2\n      0x20\n      add\n      swap2\n      jump(tag_113)\n    tag_114:\n      dup3\n      add\n      swap2\n      swap1\n      0x00\n      mstore\n      keccak256(0x00, 0x20)\n      swap1\n    tag_115:\n      dup2\n      sload\n      dup2\n      mstore\n      swap1\n      0x01\n      add\n      swap1\n      0x20\n      add\n      dup1\n      dup4\n      gt\n      tag_115\n      jumpi\n      dup3\n      swap1\n      sub\n      0x1f\n      and\n      dup3\n      add\n      swap2\n    tag_113:\n      pop\n      pop\n      pop\n      swap2\n      dup4\n      mstore\n      pop\n      pop\n      0x06\n      dup3\n      add\n      sload\n      0x20\n      dup1\n      dup4\n      add\n      swap2\n      swap1\n      swap2\n      mstore\n      0x07\n      swap1\n      swap3\n      add\n      sload\n      0xff\n      dup1\n      dup3\n      and\n      iszero\n      iszero\n      0x40\n      dup5\n      add\n      mstore\n      0x0100\n      dup3\n      div\n      and\n      iszero\n      iszero\n      0x60\n      dup4\n      add\n      mstore\n      0x010000\n      swap1\n      div\n      sub(shl(0xa0, 0x01), 0x01)\n      and\n      0x80\n      swap1\n      swap2\n      add\n      mstore\n      swap1\n      dup3\n      mstore\n      0x01\n      swap3\n      swap1\n      swap3\n      add\n      swap2\n      add\n      jump(tag_87)\n    tag_88:\n      pop\n      pop\n      pop\n      pop\n      swap1\n      pop\n        /* \"Dethons.sol\":4685:4774  function allHacks() external view returns (Hack[] memory) {... */\n      swap1\n      jump\t// out\n        /* \"Dethons.sol\":3670:3890  function acceptReq(address _addrOfPart) external {... */\n    tag_34:\n        /* \"Dethons.sol\":3774:3784  msg.sender */\n      caller\n        /* \"Dethons.sol\":3764:3785  addToHack[msg.sender] */\n      0x00\n      dup2\n      dup2\n      mstore\n        /* \"Dethons.sol\":3764:3773  addToHack */\n      0x05\n        /* \"Dethons.sol\":3764:3785  addToHack[msg.sender] */\n      0x20\n      mstore\n      0x40\n      swap1\n      keccak256\n        /* \"Dethons.sol\":3764:3795  addToHack[msg.sender].hackOwner */\n      0x07\n      add\n      sload\n      0x010000\n      swap1\n      div\n      sub(shl(0xa0, 0x01), 0x01)\n      and\n        /* \"Dethons.sol\":3750:3795  msg.sender == addToHack[msg.sender].hackOwner */\n      eq\n        /* \"Dethons.sol\":3729:3840  require(... */\n      tag_117\n      jumpi\n      mload(0x40)\n      shl(0xe5, 0x461bcd)\n      dup2\n      mstore\n        /* \"#utility.yul\":9592:9594   */\n      0x20\n        /* \"Dethons.sol\":3729:3840  require(... */\n      0x04\n      dup3\n      add\n        /* \"#utility.yul\":9574:9595   */\n      mstore\n        /* \"#utility.yul\":9631:9633   */\n      0x13\n        /* \"#utility.yul\":9611:9629   */\n      0x24\n      dup3\n      add\n        /* \"#utility.yul\":9604:9634   */\n      mstore\n        /* \"#utility.yul\":9670:9691   */\n      0x596f752063616e74206163636570742072657100000000000000000000000000\n        /* \"#utility.yul\":9650:9668   */\n      0x44\n      dup3\n      add\n        /* \"#utility.yul\":9643:9692   */\n      mstore\n        /* \"#utility.yul\":9709:9727   */\n      0x64\n      add\n        /* \"Dethons.sol\":3729:3840  require(... */\n    tag_118:\n      mload(0x40)\n      dup1\n      swap2\n      sub\n      swap1\n      revert\n    tag_117:\n      sub(shl(0xa0, 0x01), 0x01)\n        /* \"Dethons.sol\":3850:3876  reqIsAccepted[_addrOfPart] */\n      and\n      0x00\n      swap1\n      dup2\n      mstore\n        /* \"Dethons.sol\":3850:3863  reqIsAccepted */\n      0x09\n        /* \"Dethons.sol\":3850:3876  reqIsAccepted[_addrOfPart] */\n      0x20\n      mstore\n      0x40\n      swap1\n      keccak256\n        /* \"Dethons.sol\":3850:3883  reqIsAccepted[_addrOfPart] = true */\n      dup1\n      sload\n      not(0xff)\n      and\n        /* \"Dethons.sol\":3879:3883  true */\n      0x01\n        /* \"Dethons.sol\":3850:3883  reqIsAccepted[_addrOfPart] = true */\n      or\n      swap1\n      sstore\n        /* \"Dethons.sol\":3670:3890  function acceptReq(address _addrOfPart) external {... */\n      jump\t// out\n        /* \"Dethons.sol\":4780:4955  function withdrawFunds() external payable {... */\n    tag_36:\n        /* \"Dethons.sol\":4854:4859  owner */\n      and(sub(shl(0xa0, 0x01), 0x01), sload(0x00))\n        /* \"Dethons.sol\":4840:4850  msg.sender */\n      caller\n        /* \"Dethons.sol\":4840:4859  msg.sender == owner */\n      eq\n        /* \"Dethons.sol\":4832:4887  require(msg.sender == owner, \"Only owner can withdraw\") */\n      tag_121\n      jumpi\n      mload(0x40)\n      shl(0xe5, 0x461bcd)\n      dup2\n      mstore\n        /* \"#utility.yul\":9940:9942   */\n      0x20\n        /* \"Dethons.sol\":4832:4887  require(msg.sender == owner, \"Only owner can withdraw\") */\n      0x04\n      dup3\n      add\n        /* \"#utility.yul\":9922:9943   */\n      mstore\n        /* \"#utility.yul\":9979:9981   */\n      0x17\n        /* \"#utility.yul\":9959:9977   */\n      0x24\n      dup3\n      add\n        /* \"#utility.yul\":9952:9982   */\n      mstore\n        /* \"#utility.yul\":10018:10043   */\n      0x4f6e6c79206f776e65722063616e207769746864726177000000000000000000\n        /* \"#utility.yul\":9998:10016   */\n      0x44\n      dup3\n      add\n        /* \"#utility.yul\":9991:10044   */\n      mstore\n        /* \"#utility.yul\":10061:10079   */\n      0x64\n      add\n        /* \"Dethons.sol\":4832:4887  require(msg.sender == owner, \"Only owner can withdraw\") */\n      tag_118\n        /* \"#utility.yul\":9738:10085   */\n      jump\n        /* \"Dethons.sol\":4832:4887  require(msg.sender == owner, \"Only owner can withdraw\") */\n    tag_121:\n        /* \"Dethons.sol\":4897:4948  payable(msg.sender).transfer(address(this).balance) */\n      mload(0x40)\n        /* \"Dethons.sol\":4905:4915  msg.sender */\n      caller\n      swap1\n        /* \"Dethons.sol\":4926:4947  address(this).balance */\n      selfbalance\n        /* \"Dethons.sol\":4897:4948  payable(msg.sender).transfer(address(this).balance) */\n      dup1\n      iszero\n      0x08fc\n      mul\n      swap2\n      0x00\n      dup2\n      dup2\n      dup2\n        /* \"Dethons.sol\":4926:4947  address(this).balance */\n      dup6\n        /* \"Dethons.sol\":4905:4915  msg.sender */\n      dup9\n        /* \"Dethons.sol\":4897:4948  payable(msg.sender).transfer(address(this).balance) */\n      dup9\n      call\n      swap4\n      pop\n      pop\n      pop\n      pop\n      iszero\n      dup1\n      iszero\n      tag_125\n      jumpi\n      returndatasize\n      0x00\n      dup1\n      returndatacopy\n      revert(0x00, returndatasize)\n    tag_125:\n      pop\n        /* \"Dethons.sol\":4780:4955  function withdrawFunds() external payable {... */\n      jump\t// out\n        /* \"Dethons.sol\":4271:4445  function startHack() external {... */\n    tag_39:\n        /* \"Dethons.sol\":4329:4339  msg.sender */\n      caller\n        /* \"Dethons.sol\":4319:4340  isOldUser[msg.sender] */\n      0x00\n      swap1\n      dup2\n      mstore\n        /* \"Dethons.sol\":4319:4328  isOldUser */\n      0x0a\n        /* \"Dethons.sol\":4319:4340  isOldUser[msg.sender] */\n      0x20\n      mstore\n      0x40\n      swap1\n      keccak256\n      sload\n      0xff\n      and\n        /* \"Dethons.sol\":4319:4348  isOldUser[msg.sender] == true */\n      iszero\n      iszero\n        /* \"Dethons.sol\":4319:4340  isOldUser[msg.sender] */\n      0x01\n        /* \"Dethons.sol\":4319:4348  isOldUser[msg.sender] == true */\n      eq\n        /* \"Dethons.sol\":4311:4381  require(isOldUser[msg.sender] == true, \"No hackathon on your address\") */\n      tag_127\n      jumpi\n      mload(0x40)\n      shl(0xe5, 0x461bcd)\n      dup2\n      mstore\n        /* \"#utility.yul\":10292:10294   */\n      0x20\n        /* \"Dethons.sol\":4311:4381  require(isOldUser[msg.sender] == true, \"No hackathon on your address\") */\n      0x04\n      dup3\n      add\n        /* \"#utility.yul\":10274:10295   */\n      mstore\n        /* \"#utility.yul\":10331:10333   */\n      0x1c\n        /* \"#utility.yul\":10311:10329   */\n      0x24\n      dup3\n      add\n        /* \"#utility.yul\":10304:10334   */\n      mstore\n        /* \"#utility.yul\":10370:10400   */\n      0x4e6f206861636b6174686f6e206f6e20796f7572206164647265737300000000\n        /* \"#utility.yul\":10350:10368   */\n      0x44\n      dup3\n      add\n        /* \"#utility.yul\":10343:10401   */\n      mstore\n        /* \"#utility.yul\":10418:10436   */\n      0x64\n      add\n        /* \"Dethons.sol\":4311:4381  require(isOldUser[msg.sender] == true, \"No hackathon on your address\") */\n      tag_118\n        /* \"#utility.yul\":10090:10442   */\n      jump\n        /* \"Dethons.sol\":4311:4381  require(isOldUser[msg.sender] == true, \"No hackathon on your address\") */\n    tag_127:\n        /* \"Dethons.sol\":4408:4418  msg.sender */\n      caller\n        /* \"Dethons.sol\":4399:4419  addToPos[msg.sender] */\n      0x00\n      swap1\n      dup2\n      mstore\n        /* \"Dethons.sol\":4399:4407  addToPos */\n      0x06\n        /* \"Dethons.sol\":4399:4419  addToPos[msg.sender] */\n      0x20\n      mstore\n      0x40\n      swap1\n      keccak256\n      sload\n        /* \"Dethons.sol\":4391:4398  hackArr */\n      0x04\n        /* \"Dethons.sol\":4391:4420  hackArr[addToPos[msg.sender]] */\n      dup1\n      sload\n        /* \"Dethons.sol\":4434:4438  true */\n      0x01\n      swap3\n        /* \"Dethons.sol\":4399:4419  addToPos[msg.sender] */\n      swap1\n        /* \"Dethons.sol\":4391:4420  hackArr[addToPos[msg.sender]] */\n      dup2\n      lt\n      tag_131\n      jumpi\n      tag_131\n      tag_132\n      jump\t// in\n    tag_131:\n      0x00\n      swap2\n      dup3\n      mstore\n      0x20\n      swap1\n      swap2\n      keccak256\n      0x08\n      swap1\n      swap2\n      mul\n      add\n        /* \"Dethons.sol\":4391:4431  hackArr[addToPos[msg.sender]].hasStarted */\n      0x07\n      add\n        /* \"Dethons.sol\":4391:4438  hackArr[addToPos[msg.sender]].hasStarted = true */\n      dup1\n      sload\n      not(0xff)\n      and\n      swap2\n      iszero\n      iszero\n      swap2\n      swap1\n      swap2\n      or\n      swap1\n      sstore\n        /* \"Dethons.sol\":4271:4445  function startHack() external {... */\n      jump\t// out\n        /* \"Dethons.sol\":4451:4679  function endHack() external {... */\n    tag_42:\n        /* \"Dethons.sol\":4507:4517  msg.sender */\n      caller\n        /* \"Dethons.sol\":4497:4518  isOldUser[msg.sender] */\n      0x00\n      swap1\n      dup2\n      mstore\n        /* \"Dethons.sol\":4497:4506  isOldUser */\n      0x0a\n        /* \"Dethons.sol\":4497:4518  isOldUser[msg.sender] */\n      0x20\n      mstore\n      0x40\n      swap1\n      keccak256\n      sload\n      0xff\n      and\n        /* \"Dethons.sol\":4497:4526  isOldUser[msg.sender] == true */\n      iszero\n      iszero\n        /* \"Dethons.sol\":4497:4518  isOldUser[msg.sender] */\n      0x01\n        /* \"Dethons.sol\":4497:4526  isOldUser[msg.sender] == true */\n      eq\n        /* \"Dethons.sol\":4489:4559  require(isOldUser[msg.sender] == true, \"No hackathon on your address\") */\n      tag_135\n      jumpi\n      mload(0x40)\n      shl(0xe5, 0x461bcd)\n      dup2\n      mstore\n        /* \"#utility.yul\":10292:10294   */\n      0x20\n        /* \"Dethons.sol\":4489:4559  require(isOldUser[msg.sender] == true, \"No hackathon on your address\") */\n      0x04\n      dup3\n      add\n        /* \"#utility.yul\":10274:10295   */\n      mstore\n        /* \"#utility.yul\":10331:10333   */\n      0x1c\n        /* \"#utility.yul\":10311:10329   */\n      0x24\n      dup3\n      add\n        /* \"#utility.yul\":10304:10334   */\n      mstore\n        /* \"#utility.yul\":10370:10400   */\n      0x4e6f206861636b6174686f6e206f6e20796f7572206164647265737300000000\n        /* \"#utility.yul\":10350:10368   */\n      0x44\n      dup3\n      add\n        /* \"#utility.yul\":10343:10401   */\n      mstore\n        /* \"#utility.yul\":10418:10436   */\n      0x64\n      add\n        /* \"Dethons.sol\":4489:4559  require(isOldUser[msg.sender] == true, \"No hackathon on your address\") */\n      tag_118\n        /* \"#utility.yul\":10090:10442   */\n      jump\n        /* \"Dethons.sol\":4489:4559  require(isOldUser[msg.sender] == true, \"No hackathon on your address\") */\n    tag_135:\n        /* \"Dethons.sol\":4586:4596  msg.sender */\n      caller\n        /* \"Dethons.sol\":4612:4617  false */\n      0x00\n        /* \"Dethons.sol\":4577:4597  addToPos[msg.sender] */\n      swap1\n      dup2\n      mstore\n        /* \"Dethons.sol\":4577:4585  addToPos */\n      0x06\n        /* \"Dethons.sol\":4577:4597  addToPos[msg.sender] */\n      0x20\n      mstore\n      0x40\n      dup2\n      keccak256\n      sload\n        /* \"Dethons.sol\":4569:4576  hackArr */\n      0x04\n        /* \"Dethons.sol\":4569:4598  hackArr[addToPos[msg.sender]] */\n      dup1\n      sload\n        /* \"Dethons.sol\":4569:4576  hackArr */\n      swap1\n      swap2\n        /* \"Dethons.sol\":4577:4597  addToPos[msg.sender] */\n      swap1\n        /* \"Dethons.sol\":4569:4598  hackArr[addToPos[msg.sender]] */\n      dup2\n      lt\n      tag_138\n      jumpi\n      tag_138\n      tag_132\n      jump\t// in\n    tag_138:\n      0x00\n      swap2\n      dup3\n      mstore\n      0x20\n      dup1\n      dup4\n      keccak256\n      0x08\n      swap3\n      swap1\n      swap3\n      mul\n      swap1\n      swap2\n      add\n        /* \"Dethons.sol\":4569:4609  hackArr[addToPos[msg.sender]].hasStarted */\n      0x07\n      add\n        /* \"Dethons.sol\":4569:4617  hackArr[addToPos[msg.sender]].hasStarted = false */\n      dup1\n      sload\n      not(0xff)\n      and\n      swap4\n      iszero\n      iszero\n      swap4\n      swap1\n      swap4\n      or\n      swap1\n      swap3\n      sstore\n        /* \"Dethons.sol\":4644:4654  msg.sender */\n      caller\n        /* \"Dethons.sol\":4635:4655  addToPos[msg.sender] */\n      dup2\n      mstore\n        /* \"Dethons.sol\":4635:4643  addToPos */\n      0x06\n        /* \"Dethons.sol\":4635:4655  addToPos[msg.sender] */\n      swap1\n      swap2\n      mstore\n      0x40\n      swap1\n      keccak256\n      sload\n        /* \"Dethons.sol\":4627:4634  hackArr */\n      0x04\n        /* \"Dethons.sol\":4627:4656  hackArr[addToPos[msg.sender]] */\n      dup1\n      sload\n      0x01\n      swap3\n        /* \"Dethons.sol\":4635:4655  addToPos[msg.sender] */\n      swap1\n        /* \"Dethons.sol\":4627:4656  hackArr[addToPos[msg.sender]] */\n      dup2\n      lt\n      tag_141\n      jumpi\n      tag_141\n      tag_132\n      jump\t// in\n    tag_141:\n      swap1\n      0x00\n      mstore\n      keccak256(0x00, 0x20)\n      swap1\n      0x08\n      mul\n      add\n        /* \"Dethons.sol\":4627:4665  hackArr[addToPos[msg.sender]].hasEnded */\n      0x07\n      add\n      0x01\n        /* \"Dethons.sol\":4627:4672  hackArr[addToPos[msg.sender]].hasEnded = true */\n      0x0100\n      exp\n      dup2\n      sload\n      dup2\n      0xff\n      mul\n      not\n      and\n      swap1\n      dup4\n      iszero\n      iszero\n      mul\n      or\n      swap1\n      sstore\n      pop\n        /* \"Dethons.sol\":4451:4679  function endHack() external {... */\n      jump\t// out\n        /* \"Dethons.sol\":3452:3664  function getListOfApplicant() external view returns (address[] memory) {... */\n    tag_45:\n        /* \"Dethons.sol\":3551:3561  msg.sender */\n      caller\n        /* \"Dethons.sol\":3541:3562  isOldUser[msg.sender] */\n      0x00\n      swap1\n      dup2\n      mstore\n        /* \"Dethons.sol\":3541:3550  isOldUser */\n      0x0a\n        /* \"Dethons.sol\":3541:3562  isOldUser[msg.sender] */\n      0x20\n      mstore\n      0x40\n      swap1\n      keccak256\n      sload\n        /* \"Dethons.sol\":3505:3521  address[] memory */\n      0x60\n      swap1\n        /* \"Dethons.sol\":3541:3562  isOldUser[msg.sender] */\n      0xff\n      and\n        /* \"Dethons.sol\":3541:3570  isOldUser[msg.sender] == true */\n      iszero\n      iszero\n        /* \"Dethons.sol\":3541:3562  isOldUser[msg.sender] */\n      0x01\n        /* \"Dethons.sol\":3541:3570  isOldUser[msg.sender] == true */\n      eq\n        /* \"Dethons.sol\":3533:3603  require(isOldUser[msg.sender] == true, \"No hackathon on your address\") */\n      tag_144\n      jumpi\n      mload(0x40)\n      shl(0xe5, 0x461bcd)\n      dup2\n      mstore\n        /* \"#utility.yul\":10292:10294   */\n      0x20\n        /* \"Dethons.sol\":3533:3603  require(isOldUser[msg.sender] == true, \"No hackathon on your address\") */\n      0x04\n      dup3\n      add\n        /* \"#utility.yul\":10274:10295   */\n      mstore\n        /* \"#utility.yul\":10331:10333   */\n      0x1c\n        /* \"#utility.yul\":10311:10329   */\n      0x24\n      dup3\n      add\n        /* \"#utility.yul\":10304:10334   */\n      mstore\n        /* \"#utility.yul\":10370:10400   */\n      0x4e6f206861636b6174686f6e206f6e20796f7572206164647265737300000000\n        /* \"#utility.yul\":10350:10368   */\n      0x44\n      dup3\n      add\n        /* \"#utility.yul\":10343:10401   */\n      mstore\n        /* \"#utility.yul\":10418:10436   */\n      0x64\n      add\n        /* \"Dethons.sol\":3533:3603  require(isOldUser[msg.sender] == true, \"No hackathon on your address\") */\n      tag_118\n        /* \"#utility.yul\":10090:10442   */\n      jump\n        /* \"Dethons.sol\":3533:3603  require(isOldUser[msg.sender] == true, \"No hackathon on your address\") */\n    tag_144:\n        /* \"Dethons.sol\":3638:3648  msg.sender */\n      caller\n        /* \"Dethons.sol\":3620:3649  partsListForOwner[msg.sender] */\n      0x00\n      swap1\n      dup2\n      mstore\n        /* \"Dethons.sol\":3620:3637  partsListForOwner */\n      0x08\n        /* \"Dethons.sol\":3620:3649  partsListForOwner[msg.sender] */\n      0x20\n      swap1\n      dup2\n      mstore\n      0x40\n      swap2\n      dup3\n      swap1\n      keccak256\n        /* \"Dethons.sol\":3620:3657  partsListForOwner[msg.sender].listArr */\n      0x01\n      add\n        /* \"Dethons.sol\":3613:3657  return partsListForOwner[msg.sender].listArr */\n      dup1\n      sload\n      dup4\n      mload\n      dup2\n      dup5\n      mul\n      dup2\n      add\n      dup5\n      add\n      swap1\n      swap5\n      mstore\n      dup1\n      dup5\n      mstore\n        /* \"Dethons.sol\":3620:3657  partsListForOwner[msg.sender].listArr */\n      swap1\n      swap2\n        /* \"Dethons.sol\":3613:3657  return partsListForOwner[msg.sender].listArr */\n      dup4\n      add\n        /* \"Dethons.sol\":3620:3657  partsListForOwner[msg.sender].listArr */\n      dup3\n        /* \"Dethons.sol\":3613:3657  return partsListForOwner[msg.sender].listArr */\n      dup3\n      dup1\n      iszero\n      tag_146\n      jumpi\n      0x20\n      mul\n      dup3\n      add\n      swap2\n      swap1\n      0x00\n      mstore\n      keccak256(0x00, 0x20)\n      swap1\n    tag_147:\n      dup2\n      sload\n      sub(shl(0xa0, 0x01), 0x01)\n      and\n      dup2\n      mstore\n      0x01\n      swap1\n      swap2\n      add\n      swap1\n      0x20\n      add\n      dup1\n      dup4\n      gt\n      tag_147\n      jumpi\n    tag_146:\n      pop\n      pop\n      pop\n      pop\n      pop\n      swap1\n      pop\n        /* \"Dethons.sol\":3452:3664  function getListOfApplicant() external view returns (address[] memory) {... */\n      swap1\n      jump\t// out\n        /* \"Dethons.sol\":986:2028  function addHacks(... */\n    tag_51:\n        /* \"Dethons.sol\":1226:1236  0.02 ether */\n      0x470de4df820000\n        /* \"Dethons.sol\":1213:1222  msg.value */\n      callvalue\n        /* \"Dethons.sol\":1213:1236  msg.value >= 0.02 ether */\n      lt\n      iszero\n        /* \"Dethons.sol\":1205:1263  require(msg.value >= 0.02 ether, \"Send 0.01 ETH or more \") */\n      tag_149\n      jumpi\n      mload(0x40)\n      shl(0xe5, 0x461bcd)\n      dup2\n      mstore\n        /* \"#utility.yul\":10781:10783   */\n      0x20\n        /* \"Dethons.sol\":1205:1263  require(msg.value >= 0.02 ether, \"Send 0.01 ETH or more \") */\n      0x04\n      dup3\n      add\n        /* \"#utility.yul\":10763:10784   */\n      mstore\n        /* \"#utility.yul\":10820:10822   */\n      0x16\n        /* \"#utility.yul\":10800:10818   */\n      0x24\n      dup3\n      add\n        /* \"#utility.yul\":10793:10823   */\n      mstore\n      shl(0x55, 0x029b2b73210181718189022aa241037b91036b7b9329)\n        /* \"#utility.yul\":10839:10857   */\n      0x44\n      dup3\n      add\n        /* \"#utility.yul\":10832:10884   */\n      mstore\n        /* \"#utility.yul\":10901:10919   */\n      0x64\n      add\n        /* \"Dethons.sol\":1205:1263  require(msg.value >= 0.02 ether, \"Send 0.01 ETH or more \") */\n      tag_118\n        /* \"#utility.yul\":10579:10925   */\n      jump\n        /* \"Dethons.sol\":1205:1263  require(msg.value >= 0.02 ether, \"Send 0.01 ETH or more \") */\n    tag_149:\n        /* \"Dethons.sol\":1287:1297  msg.sender */\n      caller\n        /* \"Dethons.sol\":1277:1298  isOldUser[msg.sender] */\n      0x00\n      swap1\n      dup2\n      mstore\n        /* \"Dethons.sol\":1277:1286  isOldUser */\n      0x0a\n        /* \"Dethons.sol\":1277:1298  isOldUser[msg.sender] */\n      0x20\n      mstore\n      0x40\n      swap1\n      keccak256\n      sload\n      0xff\n      and\n        /* \"Dethons.sol\":1273:1432  if (isOldUser[msg.sender]) {... */\n      iszero\n      tag_152\n      jumpi\n        /* \"Dethons.sol\":1331:1341  msg.sender */\n      caller\n        /* \"Dethons.sol\":1357:1362  false */\n      0x00\n        /* \"Dethons.sol\":1322:1342  addToPos[msg.sender] */\n      swap1\n      dup2\n      mstore\n        /* \"Dethons.sol\":1322:1330  addToPos */\n      0x06\n        /* \"Dethons.sol\":1322:1342  addToPos[msg.sender] */\n      0x20\n      mstore\n      0x40\n      dup2\n      keccak256\n      sload\n        /* \"Dethons.sol\":1314:1321  hackArr */\n      0x04\n        /* \"Dethons.sol\":1314:1343  hackArr[addToPos[msg.sender]] */\n      dup1\n      sload\n        /* \"Dethons.sol\":1314:1321  hackArr */\n      swap1\n      swap2\n        /* \"Dethons.sol\":1322:1342  addToPos[msg.sender] */\n      swap1\n        /* \"Dethons.sol\":1314:1343  hackArr[addToPos[msg.sender]] */\n      dup2\n      lt\n      tag_154\n      jumpi\n      tag_154\n      tag_132\n      jump\t// in\n    tag_154:\n      0x00\n      swap2\n      dup3\n      mstore\n      0x20\n      dup1\n      dup4\n      keccak256\n      0x08\n      swap3\n      swap1\n      swap3\n      mul\n      swap1\n      swap2\n      add\n        /* \"Dethons.sol\":1314:1354  hackArr[addToPos[msg.sender]].hasStarted */\n      0x07\n      add\n        /* \"Dethons.sol\":1314:1362  hackArr[addToPos[msg.sender]].hasStarted = false */\n      dup1\n      sload\n      not(0xff)\n      and\n      swap4\n      iszero\n      iszero\n      swap4\n      swap1\n      swap4\n      or\n      swap1\n      swap3\n      sstore\n        /* \"Dethons.sol\":1393:1403  msg.sender */\n      caller\n        /* \"Dethons.sol\":1384:1404  addToPos[msg.sender] */\n      dup2\n      mstore\n        /* \"Dethons.sol\":1384:1392  addToPos */\n      0x06\n        /* \"Dethons.sol\":1384:1404  addToPos[msg.sender] */\n      swap1\n      swap2\n      mstore\n      0x40\n      swap1\n      keccak256\n      sload\n        /* \"Dethons.sol\":1376:1383  hackArr */\n      0x04\n        /* \"Dethons.sol\":1376:1405  hackArr[addToPos[msg.sender]] */\n      dup1\n      sload\n      0x01\n      swap3\n        /* \"Dethons.sol\":1384:1404  addToPos[msg.sender] */\n      swap1\n        /* \"Dethons.sol\":1376:1405  hackArr[addToPos[msg.sender]] */\n      dup2\n      lt\n      tag_157\n      jumpi\n      tag_157\n      tag_132\n      jump\t// in\n    tag_157:\n      swap1\n      0x00\n      mstore\n      keccak256(0x00, 0x20)\n      swap1\n      0x08\n      mul\n      add\n        /* \"Dethons.sol\":1376:1414  hackArr[addToPos[msg.sender]].hasEnded */\n      0x07\n      add\n      0x01\n        /* \"Dethons.sol\":1376:1421  hackArr[addToPos[msg.sender]].hasEnded = true */\n      0x0100\n      exp\n      dup2\n      sload\n      dup2\n      0xff\n      mul\n      not\n      and\n      swap1\n      dup4\n      iszero\n      iszero\n      mul\n      or\n      swap1\n      sstore\n      pop\n        /* \"Dethons.sol\":1273:1432  if (isOldUser[msg.sender]) {... */\n    tag_152:\n        /* \"Dethons.sol\":1468:1721  Hack(... */\n      0x40\n      dup1\n      mload\n      0x0140\n      dup2\n      add\n      dup3\n      mstore\n        /* \"Dethons.sol\":1490:1492  id */\n      0x01\n      dup1\n      sload\n        /* \"Dethons.sol\":1468:1721  Hack(... */\n      dup3\n      mstore\n      0x20\n      dup1\n      dup4\n      add\n      dup11\n      dup2\n      mstore\n      swap4\n      dup4\n      add\n      dup10\n      swap1\n      mstore\n      0x60\n      dup4\n      add\n      dup9\n      swap1\n      mstore\n      0x80\n      dup4\n      add\n      dup8\n      swap1\n      mstore\n      0xa0\n      dup4\n      add\n      dup7\n      swap1\n      mstore\n      0xc0\n      dup4\n      add\n      dup6\n      swap1\n      mstore\n      0x00\n      0xe0\n      dup5\n      add\n      dup2\n      swap1\n      mstore\n      0x0100\n      dup5\n      add\n      dup2\n      swap1\n      mstore\n        /* \"Dethons.sol\":1697:1707  msg.sender */\n      caller\n        /* \"Dethons.sol\":1468:1721  Hack(... */\n      0x0120\n      dup6\n      add\n      mstore\n        /* \"Dethons.sol\":1442:1449  hackArr */\n      0x04\n        /* \"Dethons.sol\":1442:1731  hackArr.push(... */\n      dup1\n      sload\n      swap4\n      dup5\n      add\n      dup2\n      sstore\n      swap1\n      mstore\n      dup3\n      mload\n      0x08\n      swap1\n      swap3\n      mul\n      0x8a35acfbc15ff81a39ae7d344fd709f28e8600b4aa8c65c6b64bfe7fe36bd19b\n      dup2\n      add\n      swap3\n      dup4\n      sstore\n      swap4\n      mload\n      dup1\n      mload\n        /* \"Dethons.sol\":1468:1721  Hack(... */\n      swap4\n      swap5\n        /* \"Dethons.sol\":1442:1731  hackArr.push(... */\n      swap3\n      swap4\n      tag_160\n      swap4\n      0x8a35acfbc15ff81a39ae7d344fd709f28e8600b4aa8c65c6b64bfe7fe36bd19c\n      add\n      swap3\n      swap2\n      swap1\n      swap2\n      add\n      swap1\n      tag_161\n      jump\t// in\n    tag_160:\n      pop\n      0x40\n      dup3\n      add\n      mload\n      dup1\n      mload\n      tag_162\n      swap2\n      0x02\n      dup5\n      add\n      swap2\n      0x20\n      swap1\n      swap2\n      add\n      swap1\n      tag_161\n      jump\t// in\n    tag_162:\n      pop\n      0x60\n      dup3\n      add\n      mload\n      dup1\n      mload\n      tag_163\n      swap2\n      0x03\n      dup5\n      add\n      swap2\n      0x20\n      swap1\n      swap2\n      add\n      swap1\n      tag_161\n      jump\t// in\n    tag_163:\n      pop\n      0x80\n      dup3\n      add\n      mload\n      dup1\n      mload\n      tag_164\n      swap2\n      0x04\n      dup5\n      add\n      swap2\n      0x20\n      swap1\n      swap2\n      add\n      swap1\n      tag_161\n      jump\t// in\n    tag_164:\n      pop\n      0xa0\n      dup3\n      add\n      mload\n      dup1\n      mload\n      tag_165\n      swap2\n      0x05\n      dup5\n      add\n      swap2\n      0x20\n      swap1\n      swap2\n      add\n      swap1\n      tag_161\n      jump\t// in\n    tag_165:\n      pop\n      0xc0\n      dup3\n      add\n      mload\n      0x06\n      dup3\n      add\n      sstore\n      0xe0\n      dup3\n      add\n      mload\n      0x07\n      swap1\n      swap2\n      add\n      dup1\n      sload\n      0x0100\n      dup1\n      dup6\n      add\n      mload\n      0x0120\n      swap1\n      swap6\n      add\n      mload\n      not(0xffff)\n      swap1\n      swap3\n      and\n      swap4\n      iszero\n      iszero\n      not(0xff00)\n      and\n      swap4\n      swap1\n      swap4\n      or\n      swap4\n      iszero\n      iszero\n      swap1\n      swap3\n      mul\n      swap3\n      swap1\n      swap3\n      or\n      not(0xffffffffffffffffffffffffffffffffffffffff0000)\n      and\n      0x010000\n      sub(shl(0xa0, 0x01), 0x01)\n      swap1\n      swap3\n      and\n      swap2\n      swap1\n      swap2\n      mul\n      or\n      swap1\n      sstore\n      0x01\n        /* \"Dethons.sol\":1774:1776  id */\n      sload\n        /* \"Dethons.sol\":1766:1773  hackArr */\n      0x04\n        /* \"Dethons.sol\":1766:1777  hackArr[id] */\n      dup1\n      sload\n        /* \"Dethons.sol\":1766:1773  hackArr */\n      swap1\n      swap2\n        /* \"Dethons.sol\":1774:1776  id */\n      swap1\n        /* \"Dethons.sol\":1766:1777  hackArr[id] */\n      dup2\n      lt\n      tag_167\n      jumpi\n      tag_167\n      tag_132\n      jump\t// in\n    tag_167:\n      0x00\n      swap2\n      dup3\n      mstore\n      0x20\n      dup1\n      dup4\n      keccak256\n        /* \"Dethons.sol\":1752:1762  msg.sender */\n      caller\n        /* \"Dethons.sol\":1742:1763  addToHack[msg.sender] */\n      dup5\n      mstore\n        /* \"Dethons.sol\":1742:1751  addToHack */\n      0x05\n        /* \"Dethons.sol\":1742:1763  addToHack[msg.sender] */\n      swap1\n      swap2\n      mstore\n      0x40\n      swap1\n      swap3\n      keccak256\n        /* \"Dethons.sol\":1766:1777  hackArr[id] */\n      0x08\n      swap1\n      swap2\n      mul\n      swap1\n      swap2\n      add\n        /* \"Dethons.sol\":1742:1777  addToHack[msg.sender] = hackArr[id] */\n      dup1\n      sload\n      dup3\n      sstore\n      0x01\n      dup1\n      dup3\n      add\n      dup1\n      sload\n        /* \"Dethons.sol\":1766:1777  hackArr[id] */\n      swap3\n      swap4\n        /* \"Dethons.sol\":1742:1763  addToHack[msg.sender] */\n      swap3\n        /* \"Dethons.sol\":1742:1777  addToHack[msg.sender] = hackArr[id] */\n      swap2\n      dup4\n      add\n      swap2\n      tag_169\n      swap1\n      tag_91\n      jump\t// in\n    tag_169:\n      tag_170\n      swap3\n      swap2\n      swap1\n      tag_171\n      jump\t// in\n    tag_170:\n      pop\n      0x02\n      dup3\n      add\n      dup2\n      0x02\n      add\n      swap1\n      dup1\n      sload\n      tag_172\n      swap1\n      tag_91\n      jump\t// in\n    tag_172:\n      tag_173\n      swap3\n      swap2\n      swap1\n      tag_171\n      jump\t// in\n    tag_173:\n      pop\n      0x03\n      dup3\n      add\n      dup2\n      0x03\n      add\n      swap1\n      dup1\n      sload\n      tag_174\n      swap1\n      tag_91\n      jump\t// in\n    tag_174:\n      tag_175\n      swap3\n      swap2\n      swap1\n      tag_171\n      jump\t// in\n    tag_175:\n      pop\n      0x04\n      dup3\n      add\n      dup2\n      0x04\n      add\n      swap1\n      dup1\n      sload\n      tag_176\n      swap1\n      tag_91\n      jump\t// in\n    tag_176:\n      tag_177\n      swap3\n      swap2\n      swap1\n      tag_171\n      jump\t// in\n    tag_177:\n      pop\n      0x05\n      dup3\n      add\n      dup2\n      0x05\n      add\n      swap1\n      dup1\n      sload\n      tag_178\n      swap1\n      tag_91\n      jump\t// in\n    tag_178:\n      tag_179\n      swap3\n      swap2\n      swap1\n      tag_171\n      jump\t// in\n    tag_179:\n      pop\n      0x06\n      dup3\n      dup2\n      add\n      sload\n      dup3\n      dup3\n      add\n      sstore\n      0x07\n      swap3\n      dup4\n      add\n      dup1\n      sload\n      swap4\n      swap1\n      swap3\n      add\n      dup1\n      sload\n      0xff\n      swap5\n      dup6\n      and\n      iszero\n      iszero\n      not(0xff)\n      dup3\n      and\n      dup2\n      or\n      dup4\n      sstore\n      dup5\n      sload\n      0x0100\n      swap1\n      dup2\n      swap1\n      div\n      swap1\n      swap7\n      and\n      iszero\n      iszero\n      swap1\n      swap6\n      mul\n      not(0xff00)\n      swap1\n      swap6\n      and\n      not(0xffff)\n      swap1\n      swap2\n      and\n      or\n      swap4\n      swap1\n      swap4\n      or\n      dup1\n      dup5\n      sstore\n      swap2\n      sload\n      sub(shl(0xa0, 0x01), 0x01)\n      0x010000\n      swap2\n      dup3\n      swap1\n      div\n      and\n      mul\n      not(0xffffffffffffffffffffffffffffffffffffffff0000)\n      swap1\n      swap3\n      and\n      swap2\n      swap1\n      swap2\n      or\n      swap1\n      swap2\n      sstore\n      0x01\n        /* \"Dethons.sol\":1811:1813  id */\n      dup1\n      sload\n        /* \"Dethons.sol\":1797:1807  msg.sender */\n      caller\n      0x00\n        /* \"Dethons.sol\":1788:1808  addToPos[msg.sender] */\n      swap1\n      dup2\n      mstore\n      0x20\n      swap4\n      dup5\n      mstore\n      0x40\n      dup1\n      dup3\n      keccak256\n        /* \"Dethons.sol\":1788:1813  addToPos[msg.sender] = id */\n      swap3\n      swap1\n      swap3\n      sstore\n        /* \"Dethons.sol\":1871:1889  List(listId, init) */\n      dup2\n      mload\n      dup1\n      dup4\n      add\n      swap1\n      swap3\n      mstore\n        /* \"Dethons.sol\":1742:1777  addToHack[msg.sender] = hackArr[id] */\n      0x02\n        /* \"Dethons.sol\":1876:1882  listId */\n      dup1\n      sload\n        /* \"Dethons.sol\":1871:1889  List(listId, init) */\n      dup4\n      mstore\n        /* \"Dethons.sol\":1824:1845  address[] memory init */\n      0x60\n        /* \"Dethons.sol\":1871:1889  List(listId, init) */\n      dup4\n      dup7\n      add\n      dup2\n      dup2\n      mstore\n        /* \"Dethons.sol\":1856:1865  partsList */\n      0x03\n        /* \"Dethons.sol\":1856:1890  partsList.push(List(listId, init)) */\n      dup1\n      sload\n      swap7\n      dup8\n      add\n      dup2\n      sstore\n      swap1\n      swap4\n      mstore\n      dup4\n      mload\n      swap5\n      swap1\n      swap2\n      mul\n      0xc2575a0e9e593c00f959f8c92f12db2869c3395a3b0502d05e2516446f71f85b\n      dup2\n      add\n      swap5\n      dup6\n      sstore\n      swap2\n      mload\n      dup1\n      mload\n        /* \"Dethons.sol\":1824:1845  address[] memory init */\n      swap2\n      swap6\n        /* \"Dethons.sol\":1871:1889  List(listId, init) */\n      swap4\n      swap5\n        /* \"Dethons.sol\":1856:1890  partsList.push(List(listId, init)) */\n      swap4\n      tag_181\n      swap4\n      0xc2575a0e9e593c00f959f8c92f12db2869c3395a3b0502d05e2516446f71f85c\n      add\n      swap3\n      swap2\n      add\n      swap1\n      tag_182\n      jump\t// in\n    tag_181:\n      pop\n      pop\n      pop\n        /* \"Dethons.sol\":1933:1942  partsList */\n      0x03\n        /* \"Dethons.sol\":1943:1949  listId */\n      sload(0x02)\n        /* \"Dethons.sol\":1933:1950  partsList[listId] */\n      dup2\n      sload\n      dup2\n      lt\n      tag_184\n      jumpi\n      tag_184\n      tag_132\n      jump\t// in\n    tag_184:\n      0x00\n      swap2\n      dup3\n      mstore\n      0x20\n      dup1\n      dup4\n      keccak256\n        /* \"Dethons.sol\":1919:1929  msg.sender */\n      caller\n        /* \"Dethons.sol\":1901:1930  partsListForOwner[msg.sender] */\n      dup5\n      mstore\n        /* \"Dethons.sol\":1901:1918  partsListForOwner */\n      0x08\n        /* \"Dethons.sol\":1901:1930  partsListForOwner[msg.sender] */\n      swap1\n      swap2\n      mstore\n      0x40\n      swap1\n      swap3\n      keccak256\n        /* \"Dethons.sol\":1933:1950  partsList[listId] */\n      0x02\n      swap1\n      swap2\n      mul\n      swap1\n      swap2\n      add\n        /* \"Dethons.sol\":1901:1950  partsListForOwner[msg.sender] = partsList[listId] */\n      dup1\n      sload\n      dup3\n      sstore\n      0x01\n      dup1\n      dup3\n      add\n      dup1\n      sload\n        /* \"Dethons.sol\":1933:1950  partsList[listId] */\n      swap3\n      swap4\n        /* \"Dethons.sol\":1901:1930  partsListForOwner[msg.sender] */\n      swap3\n        /* \"Dethons.sol\":1901:1950  partsListForOwner[msg.sender] = partsList[listId] */\n      tag_186\n      swap3\n      dup5\n      add\n      swap2\n      swap1\n      tag_187\n      jump\t// in\n    tag_186:\n      pop\n      pop\n        /* \"Dethons.sol\":1971:1981  msg.sender */\n      caller\n        /* \"Dethons.sol\":1961:1982  isOldUser[msg.sender] */\n      0x00\n      swap1\n      dup2\n      mstore\n        /* \"Dethons.sol\":1961:1970  isOldUser */\n      0x0a\n        /* \"Dethons.sol\":1961:1982  isOldUser[msg.sender] */\n      0x20\n      mstore\n      0x40\n      dup2\n      keccak256\n        /* \"Dethons.sol\":1961:1989  isOldUser[msg.sender] = true */\n      dup1\n      sload\n      not(0xff)\n      and\n        /* \"Dethons.sol\":1985:1989  true */\n      0x01\n        /* \"Dethons.sol\":1961:1989  isOldUser[msg.sender] = true */\n      swap1\n      dup2\n      or\n      swap1\n      swap2\n      sstore\n        /* \"Dethons.sol\":1999:2003  id++ */\n      dup1\n      sload\n      swap3\n      pop\n        /* \"Dethons.sol\":1985:1989  true */\n      swap1\n        /* \"Dethons.sol\":1999:2003  id++ */\n      tag_188\n      dup4\n      tag_189\n      jump\t// in\n    tag_188:\n      swap1\n      swap2\n      sstore\n      pop\n      pop\n        /* \"Dethons.sol\":2013:2019  listId */\n      0x02\n        /* \"Dethons.sol\":2013:2021  listId++ */\n      dup1\n      sload\n      swap1\n        /* \"Dethons.sol\":2013:2019  listId */\n      0x00\n        /* \"Dethons.sol\":2013:2021  listId++ */\n      tag_190\n      dup4\n      tag_189\n      jump\t// in\n    tag_190:\n      swap2\n      swap1\n      pop\n      sstore\n      pop\n        /* \"Dethons.sol\":1195:2028  {... */\n      pop\n        /* \"Dethons.sol\":986:2028  function addHacks(... */\n      pop\n      pop\n      pop\n      pop\n      pop\n      pop\n      jump\t// out\n        /* \"Dethons.sol\":4079:4265  function getCoverImg() external view returns (string memory) {... */\n    tag_54:\n        /* \"Dethons.sol\":4168:4178  msg.sender */\n      caller\n        /* \"Dethons.sol\":4158:4179  isOldUser[msg.sender] */\n      0x00\n      swap1\n      dup2\n      mstore\n        /* \"Dethons.sol\":4158:4167  isOldUser */\n      0x0a\n        /* \"Dethons.sol\":4158:4179  isOldUser[msg.sender] */\n      0x20\n      mstore\n      0x40\n      swap1\n      keccak256\n      sload\n        /* \"Dethons.sol\":4125:4138  string memory */\n      0x60\n      swap1\n        /* \"Dethons.sol\":4158:4179  isOldUser[msg.sender] */\n      0xff\n      and\n        /* \"Dethons.sol\":4158:4187  isOldUser[msg.sender] == true */\n      iszero\n      iszero\n        /* \"Dethons.sol\":4158:4179  isOldUser[msg.sender] */\n      0x01\n        /* \"Dethons.sol\":4158:4187  isOldUser[msg.sender] == true */\n      eq\n        /* \"Dethons.sol\":4150:4220  require(isOldUser[msg.sender] == true, \"No hackathon on your address\") */\n      tag_192\n      jumpi\n      mload(0x40)\n      shl(0xe5, 0x461bcd)\n      dup2\n      mstore\n        /* \"#utility.yul\":10292:10294   */\n      0x20\n        /* \"Dethons.sol\":4150:4220  require(isOldUser[msg.sender] == true, \"No hackathon on your address\") */\n      0x04\n      dup3\n      add\n        /* \"#utility.yul\":10274:10295   */\n      mstore\n        /* \"#utility.yul\":10331:10333   */\n      0x1c\n        /* \"#utility.yul\":10311:10329   */\n      0x24\n      dup3\n      add\n        /* \"#utility.yul\":10304:10334   */\n      mstore\n        /* \"#utility.yul\":10370:10400   */\n      0x4e6f206861636b6174686f6e206f6e20796f7572206164647265737300000000\n        /* \"#utility.yul\":10350:10368   */\n      0x44\n      dup3\n      add\n        /* \"#utility.yul\":10343:10401   */\n      mstore\n        /* \"#utility.yul\":10418:10436   */\n      0x64\n      add\n        /* \"Dethons.sol\":4150:4220  require(isOldUser[msg.sender] == true, \"No hackathon on your address\") */\n      tag_118\n        /* \"#utility.yul\":10090:10442   */\n      jump\n        /* \"Dethons.sol\":4150:4220  require(isOldUser[msg.sender] == true, \"No hackathon on your address\") */\n    tag_192:\n        /* \"Dethons.sol\":4247:4257  msg.sender */\n      caller\n        /* \"Dethons.sol\":4237:4258  photoHash[msg.sender] */\n      0x00\n      swap1\n      dup2\n      mstore\n        /* \"Dethons.sol\":4237:4246  photoHash */\n      0x07\n        /* \"Dethons.sol\":4237:4258  photoHash[msg.sender] */\n      0x20\n      mstore\n      0x40\n      swap1\n      keccak256\n        /* \"Dethons.sol\":4230:4258  return photoHash[msg.sender] */\n      dup1\n      sload\n      tag_194\n      swap1\n      tag_91\n      jump\t// in\n    tag_194:\n      dup1\n      0x1f\n      add\n      0x20\n      dup1\n      swap2\n      div\n      mul\n      0x20\n      add\n      mload(0x40)\n      swap1\n      dup2\n      add\n      0x40\n      mstore\n      dup1\n      swap3\n      swap2\n      swap1\n      dup2\n      dup2\n      mstore\n      0x20\n      add\n      dup3\n      dup1\n      sload\n      tag_195\n      swap1\n      tag_91\n      jump\t// in\n    tag_195:\n      dup1\n      iszero\n      tag_146\n      jumpi\n      dup1\n      0x1f\n      lt\n      tag_197\n      jumpi\n      0x0100\n      dup1\n      dup4\n      sload\n      div\n      mul\n      dup4\n      mstore\n      swap2\n      0x20\n      add\n      swap2\n      jump(tag_146)\n    tag_197:\n      dup3\n      add\n      swap2\n      swap1\n      0x00\n      mstore\n      keccak256(0x00, 0x20)\n      swap1\n    tag_198:\n      dup2\n      sload\n      dup2\n      mstore\n      swap1\n      0x01\n      add\n      swap1\n      0x20\n      add\n      dup1\n      dup4\n      gt\n      tag_198\n      jumpi\n      pop\n      swap4\n      swap6\n        /* \"Dethons.sol\":4079:4265  function getCoverImg() external view returns (string memory) {... */\n      swap5\n      pop\n      pop\n      pop\n      pop\n      pop\n      jump\t// out\n        /* \"Dethons.sol\":2872:3140  function increasePrize(uint _prize) external payable {... */\n    tag_60:\n        /* \"Dethons.sol\":2956:2966  0.01 ether */\n      0x2386f26fc10000\n        /* \"Dethons.sol\":2943:2952  msg.value */\n      callvalue\n        /* \"Dethons.sol\":2943:2966  msg.value >= 0.01 ether */\n      lt\n      iszero\n        /* \"Dethons.sol\":2935:2993  require(msg.value >= 0.01 ether, \"Send 0.01 ETH or more \") */\n      tag_200\n      jumpi\n      mload(0x40)\n      shl(0xe5, 0x461bcd)\n      dup2\n      mstore\n        /* \"#utility.yul\":10781:10783   */\n      0x20\n        /* \"Dethons.sol\":2935:2993  require(msg.value >= 0.01 ether, \"Send 0.01 ETH or more \") */\n      0x04\n      dup3\n      add\n        /* \"#utility.yul\":10763:10784   */\n      mstore\n        /* \"#utility.yul\":10820:10822   */\n      0x16\n        /* \"#utility.yul\":10800:10818   */\n      0x24\n      dup3\n      add\n        /* \"#utility.yul\":10793:10823   */\n      mstore\n      shl(0x55, 0x029b2b73210181718189022aa241037b91036b7b9329)\n        /* \"#utility.yul\":10839:10857   */\n      0x44\n      dup3\n      add\n        /* \"#utility.yul\":10832:10884   */\n      mstore\n        /* \"#utility.yul\":10901:10919   */\n      0x64\n      add\n        /* \"Dethons.sol\":2935:2993  require(msg.value >= 0.01 ether, \"Send 0.01 ETH or more \") */\n      tag_118\n        /* \"#utility.yul\":10579:10925   */\n      jump\n        /* \"Dethons.sol\":2935:2993  require(msg.value >= 0.01 ether, \"Send 0.01 ETH or more \") */\n    tag_200:\n        /* \"Dethons.sol\":3021:3031  msg.sender */\n      caller\n        /* \"Dethons.sol\":3011:3032  isOldUser[msg.sender] */\n      0x00\n      swap1\n      dup2\n      mstore\n        /* \"Dethons.sol\":3011:3020  isOldUser */\n      0x0a\n        /* \"Dethons.sol\":3011:3032  isOldUser[msg.sender] */\n      0x20\n      mstore\n      0x40\n      swap1\n      keccak256\n      sload\n      0xff\n      and\n        /* \"Dethons.sol\":3011:3040  isOldUser[msg.sender] == true */\n      iszero\n      iszero\n        /* \"Dethons.sol\":3011:3032  isOldUser[msg.sender] */\n      0x01\n        /* \"Dethons.sol\":3011:3040  isOldUser[msg.sender] == true */\n      eq\n        /* \"Dethons.sol\":3003:3073  require(isOldUser[msg.sender] == true, \"No hackathon on your address\") */\n      tag_202\n      jumpi\n      mload(0x40)\n      shl(0xe5, 0x461bcd)\n      dup2\n      mstore\n        /* \"#utility.yul\":10292:10294   */\n      0x20\n        /* \"Dethons.sol\":3003:3073  require(isOldUser[msg.sender] == true, \"No hackathon on your address\") */\n      0x04\n      dup3\n      add\n        /* \"#utility.yul\":10274:10295   */\n      mstore\n        /* \"#utility.yul\":10331:10333   */\n      0x1c\n        /* \"#utility.yul\":10311:10329   */\n      0x24\n      dup3\n      add\n        /* \"#utility.yul\":10304:10334   */\n      mstore\n        /* \"#utility.yul\":10370:10400   */\n      0x4e6f206861636b6174686f6e206f6e20796f7572206164647265737300000000\n        /* \"#utility.yul\":10350:10368   */\n      0x44\n      dup3\n      add\n        /* \"#utility.yul\":10343:10401   */\n      mstore\n        /* \"#utility.yul\":10418:10436   */\n      0x64\n      add\n        /* \"Dethons.sol\":3003:3073  require(isOldUser[msg.sender] == true, \"No hackathon on your address\") */\n      tag_118\n        /* \"#utility.yul\":10090:10442   */\n      jump\n        /* \"Dethons.sol\":3003:3073  require(isOldUser[msg.sender] == true, \"No hackathon on your address\") */\n    tag_202:\n        /* \"Dethons.sol\":3100:3110  msg.sender */\n      caller\n        /* \"Dethons.sol\":3091:3111  addToPos[msg.sender] */\n      0x00\n      swap1\n      dup2\n      mstore\n        /* \"Dethons.sol\":3091:3099  addToPos */\n      0x06\n        /* \"Dethons.sol\":3091:3111  addToPos[msg.sender] */\n      0x20\n      mstore\n      0x40\n      swap1\n      keccak256\n      sload\n        /* \"Dethons.sol\":3083:3090  hackArr */\n      0x04\n        /* \"Dethons.sol\":3083:3112  hackArr[addToPos[msg.sender]] */\n      dup1\n      sload\n        /* \"Dethons.sol\":3127:3133  _prize */\n      dup4\n      swap3\n        /* \"Dethons.sol\":3091:3111  addToPos[msg.sender] */\n      swap1\n        /* \"Dethons.sol\":3083:3112  hackArr[addToPos[msg.sender]] */\n      dup2\n      lt\n      tag_205\n      jumpi\n      tag_205\n      tag_132\n      jump\t// in\n    tag_205:\n      swap1\n      0x00\n      mstore\n      keccak256(0x00, 0x20)\n      swap1\n      0x08\n      mul\n      add\n        /* \"Dethons.sol\":3083:3124  hackArr[addToPos[msg.sender]].prizeAmount */\n      0x06\n      add\n        /* \"Dethons.sol\":3083:3133  hackArr[addToPos[msg.sender]].prizeAmount = _prize */\n      dup2\n      swap1\n      sstore\n      pop\n        /* \"Dethons.sol\":2872:3140  function increasePrize(uint _prize) external payable {... */\n      pop\n      jump\t// out\n        /* \"Dethons.sol\":2034:2491  function setDates(... */\n    tag_69:\n        /* \"Dethons.sol\":2195:2205  0.01 ether */\n      0x2386f26fc10000\n        /* \"Dethons.sol\":2182:2191  msg.value */\n      callvalue\n        /* \"Dethons.sol\":2182:2205  msg.value >= 0.01 ether */\n      lt\n      iszero\n        /* \"Dethons.sol\":2174:2232  require(msg.value >= 0.01 ether, \"Send 0.01 ETH or more \") */\n      tag_208\n      jumpi\n      mload(0x40)\n      shl(0xe5, 0x461bcd)\n      dup2\n      mstore\n        /* \"#utility.yul\":10781:10783   */\n      0x20\n        /* \"Dethons.sol\":2174:2232  require(msg.value >= 0.01 ether, \"Send 0.01 ETH or more \") */\n      0x04\n      dup3\n      add\n        /* \"#utility.yul\":10763:10784   */\n      mstore\n        /* \"#utility.yul\":10820:10822   */\n      0x16\n        /* \"#utility.yul\":10800:10818   */\n      0x24\n      dup3\n      add\n        /* \"#utility.yul\":10793:10823   */\n      mstore\n      shl(0x55, 0x029b2b73210181718189022aa241037b91036b7b9329)\n        /* \"#utility.yul\":10839:10857   */\n      0x44\n      dup3\n      add\n        /* \"#utility.yul\":10832:10884   */\n      mstore\n        /* \"#utility.yul\":10901:10919   */\n      0x64\n      add\n        /* \"Dethons.sol\":2174:2232  require(msg.value >= 0.01 ether, \"Send 0.01 ETH or more \") */\n      tag_118\n        /* \"#utility.yul\":10579:10925   */\n      jump\n        /* \"Dethons.sol\":2174:2232  require(msg.value >= 0.01 ether, \"Send 0.01 ETH or more \") */\n    tag_208:\n        /* \"Dethons.sol\":2260:2270  msg.sender */\n      caller\n        /* \"Dethons.sol\":2250:2271  isOldUser[msg.sender] */\n      0x00\n      swap1\n      dup2\n      mstore\n        /* \"Dethons.sol\":2250:2259  isOldUser */\n      0x0a\n        /* \"Dethons.sol\":2250:2271  isOldUser[msg.sender] */\n      0x20\n      mstore\n      0x40\n      swap1\n      keccak256\n      sload\n      0xff\n      and\n        /* \"Dethons.sol\":2250:2279  isOldUser[msg.sender] == true */\n      iszero\n      iszero\n        /* \"Dethons.sol\":2250:2271  isOldUser[msg.sender] */\n      0x01\n        /* \"Dethons.sol\":2250:2279  isOldUser[msg.sender] == true */\n      eq\n        /* \"Dethons.sol\":2242:2312  require(isOldUser[msg.sender] == true, \"No hackathon on your address\") */\n      tag_210\n      jumpi\n      mload(0x40)\n      shl(0xe5, 0x461bcd)\n      dup2\n      mstore\n        /* \"#utility.yul\":10292:10294   */\n      0x20\n        /* \"Dethons.sol\":2242:2312  require(isOldUser[msg.sender] == true, \"No hackathon on your address\") */\n      0x04\n      dup3\n      add\n        /* \"#utility.yul\":10274:10295   */\n      mstore\n        /* \"#utility.yul\":10331:10333   */\n      0x1c\n        /* \"#utility.yul\":10311:10329   */\n      0x24\n      dup3\n      add\n        /* \"#utility.yul\":10304:10334   */\n      mstore\n        /* \"#utility.yul\":10370:10400   */\n      0x4e6f206861636b6174686f6e206f6e20796f7572206164647265737300000000\n        /* \"#utility.yul\":10350:10368   */\n      0x44\n      dup3\n      add\n        /* \"#utility.yul\":10343:10401   */\n      mstore\n        /* \"#utility.yul\":10418:10436   */\n      0x64\n      add\n        /* \"Dethons.sol\":2242:2312  require(isOldUser[msg.sender] == true, \"No hackathon on your address\") */\n      tag_118\n        /* \"#utility.yul\":10090:10442   */\n      jump\n        /* \"Dethons.sol\":2242:2312  require(isOldUser[msg.sender] == true, \"No hackathon on your address\") */\n    tag_210:\n        /* \"Dethons.sol\":2339:2349  msg.sender */\n      caller\n        /* \"Dethons.sol\":2330:2350  addToPos[msg.sender] */\n      0x00\n      swap1\n      dup2\n      mstore\n        /* \"Dethons.sol\":2330:2338  addToPos */\n      0x06\n        /* \"Dethons.sol\":2330:2350  addToPos[msg.sender] */\n      0x20\n      mstore\n      0x40\n      swap1\n      keccak256\n      sload\n        /* \"Dethons.sol\":2322:2329  hackArr */\n      0x04\n        /* \"Dethons.sol\":2322:2351  hackArr[addToPos[msg.sender]] */\n      dup1\n      sload\n        /* \"Dethons.sol\":2364:2370  _start */\n      dup6\n      swap3\n        /* \"Dethons.sol\":2330:2350  addToPos[msg.sender] */\n      swap1\n        /* \"Dethons.sol\":2322:2351  hackArr[addToPos[msg.sender]] */\n      dup2\n      lt\n      tag_213\n      jumpi\n      tag_213\n      tag_132\n      jump\t// in\n    tag_213:\n      swap1\n      0x00\n      mstore\n      keccak256(0x00, 0x20)\n      swap1\n      0x08\n      mul\n      add\n        /* \"Dethons.sol\":2322:2361  hackArr[addToPos[msg.sender]].startDate */\n      0x02\n      add\n        /* \"Dethons.sol\":2322:2370  hackArr[addToPos[msg.sender]].startDate = _start */\n      swap1\n      dup1\n      mload\n      swap1\n      0x20\n      add\n      swap1\n      tag_215\n      swap3\n      swap2\n      swap1\n      tag_161\n      jump\t// in\n    tag_215:\n      pop\n        /* \"Dethons.sol\":2397:2407  msg.sender */\n      caller\n        /* \"Dethons.sol\":2388:2408  addToPos[msg.sender] */\n      0x00\n      swap1\n      dup2\n      mstore\n        /* \"Dethons.sol\":2388:2396  addToPos */\n      0x06\n        /* \"Dethons.sol\":2388:2408  addToPos[msg.sender] */\n      0x20\n      mstore\n      0x40\n      swap1\n      keccak256\n      sload\n        /* \"Dethons.sol\":2380:2387  hackArr */\n      0x04\n        /* \"Dethons.sol\":2380:2409  hackArr[addToPos[msg.sender]] */\n      dup1\n      sload\n        /* \"Dethons.sol\":2423:2430  _regEnd */\n      dup5\n      swap3\n        /* \"Dethons.sol\":2388:2408  addToPos[msg.sender] */\n      swap1\n        /* \"Dethons.sol\":2380:2409  hackArr[addToPos[msg.sender]] */\n      dup2\n      lt\n      tag_217\n      jumpi\n      tag_217\n      tag_132\n      jump\t// in\n    tag_217:\n      swap1\n      0x00\n      mstore\n      keccak256(0x00, 0x20)\n      swap1\n      0x08\n      mul\n      add\n        /* \"Dethons.sol\":2380:2420  hackArr[addToPos[msg.sender]].regEndDate */\n      0x03\n      add\n        /* \"Dethons.sol\":2380:2430  hackArr[addToPos[msg.sender]].regEndDate = _regEnd */\n      swap1\n      dup1\n      mload\n      swap1\n      0x20\n      add\n      swap1\n      tag_219\n      swap3\n      swap2\n      swap1\n      tag_161\n      jump\t// in\n    tag_219:\n      pop\n        /* \"Dethons.sol\":2457:2467  msg.sender */\n      caller\n        /* \"Dethons.sol\":2448:2468  addToPos[msg.sender] */\n      0x00\n      swap1\n      dup2\n      mstore\n        /* \"Dethons.sol\":2448:2456  addToPos */\n      0x06\n        /* \"Dethons.sol\":2448:2468  addToPos[msg.sender] */\n      0x20\n      mstore\n      0x40\n      swap1\n      keccak256\n      sload\n        /* \"Dethons.sol\":2440:2447  hackArr */\n      0x04\n        /* \"Dethons.sol\":2440:2469  hackArr[addToPos[msg.sender]] */\n      dup1\n      sload\n        /* \"Dethons.sol\":2480:2484  _end */\n      dup4\n      swap3\n        /* \"Dethons.sol\":2448:2468  addToPos[msg.sender] */\n      swap1\n        /* \"Dethons.sol\":2440:2469  hackArr[addToPos[msg.sender]] */\n      dup2\n      lt\n      tag_221\n      jumpi\n      tag_221\n      tag_132\n      jump\t// in\n    tag_221:\n      swap1\n      0x00\n      mstore\n      keccak256(0x00, 0x20)\n      swap1\n      0x08\n      mul\n      add\n        /* \"Dethons.sol\":2440:2477  hackArr[addToPos[msg.sender]].endDate */\n      0x04\n      add\n        /* \"Dethons.sol\":2440:2484  hackArr[addToPos[msg.sender]].endDate = _end */\n      swap1\n      dup1\n      mload\n      swap1\n      0x20\n      add\n      swap1\n      tag_223\n      swap3\n      swap2\n      swap1\n      tag_161\n      jump\t// in\n    tag_223:\n      pop\n        /* \"Dethons.sol\":2034:2491  function setDates(... */\n      pop\n      pop\n      pop\n      jump\t// out\n        /* \"Dethons.sol\":3896:4073  function addCoverImg(string memory _hash) external {... */\n    tag_74:\n        /* \"Dethons.sol\":3975:3985  msg.sender */\n      caller\n        /* \"Dethons.sol\":3965:3986  isOldUser[msg.sender] */\n      0x00\n      swap1\n      dup2\n      mstore\n        /* \"Dethons.sol\":3965:3974  isOldUser */\n      0x0a\n        /* \"Dethons.sol\":3965:3986  isOldUser[msg.sender] */\n      0x20\n      mstore\n      0x40\n      swap1\n      keccak256\n      sload\n      0xff\n      and\n        /* \"Dethons.sol\":3965:3994  isOldUser[msg.sender] == true */\n      iszero\n      iszero\n        /* \"Dethons.sol\":3965:3986  isOldUser[msg.sender] */\n      0x01\n        /* \"Dethons.sol\":3965:3994  isOldUser[msg.sender] == true */\n      eq\n        /* \"Dethons.sol\":3957:4027  require(isOldUser[msg.sender] == true, \"No hackathon on your address\") */\n      tag_225\n      jumpi\n      mload(0x40)\n      shl(0xe5, 0x461bcd)\n      dup2\n      mstore\n        /* \"#utility.yul\":10292:10294   */\n      0x20\n        /* \"Dethons.sol\":3957:4027  require(isOldUser[msg.sender] == true, \"No hackathon on your address\") */\n      0x04\n      dup3\n      add\n        /* \"#utility.yul\":10274:10295   */\n      mstore\n        /* \"#utility.yul\":10331:10333   */\n      0x1c\n        /* \"#utility.yul\":10311:10329   */\n      0x24\n      dup3\n      add\n        /* \"#utility.yul\":10304:10334   */\n      mstore\n        /* \"#utility.yul\":10370:10400   */\n      0x4e6f206861636b6174686f6e206f6e20796f7572206164647265737300000000\n        /* \"#utility.yul\":10350:10368   */\n      0x44\n      dup3\n      add\n        /* \"#utility.yul\":10343:10401   */\n      mstore\n        /* \"#utility.yul\":10418:10436   */\n      0x64\n      add\n        /* \"Dethons.sol\":3957:4027  require(isOldUser[msg.sender] == true, \"No hackathon on your address\") */\n      tag_118\n        /* \"#utility.yul\":10090:10442   */\n      jump\n        /* \"Dethons.sol\":3957:4027  require(isOldUser[msg.sender] == true, \"No hackathon on your address\") */\n    tag_225:\n        /* \"Dethons.sol\":4047:4057  msg.sender */\n      caller\n        /* \"Dethons.sol\":4037:4058  photoHash[msg.sender] */\n      0x00\n      swap1\n      dup2\n      mstore\n        /* \"Dethons.sol\":4037:4046  photoHash */\n      0x07\n        /* \"Dethons.sol\":4037:4058  photoHash[msg.sender] */\n      0x20\n      swap1\n      dup2\n      mstore\n      0x40\n      swap1\n      swap2\n      keccak256\n        /* \"Dethons.sol\":4037:4066  photoHash[msg.sender] = _hash */\n      dup3\n      mload\n      tag_227\n      swap3\n      dup5\n      add\n      swap1\n      tag_161\n      jump\t// in\n    tag_227:\n      pop\n        /* \"Dethons.sol\":3896:4073  function addCoverImg(string memory _hash) external {... */\n      pop\n      jump\t// out\n        /* \"Dethons.sol\":2497:2866  function setDetails(string memory _name, string memory _desc)... */\n    tag_83:\n        /* \"Dethons.sol\":2627:2637  0.01 ether */\n      0x2386f26fc10000\n        /* \"Dethons.sol\":2614:2623  msg.value */\n      callvalue\n        /* \"Dethons.sol\":2614:2637  msg.value >= 0.01 ether */\n      lt\n      iszero\n        /* \"Dethons.sol\":2606:2664  require(msg.value >= 0.01 ether, \"Send 0.01 ETH or more \") */\n      tag_230\n      jumpi\n      mload(0x40)\n      shl(0xe5, 0x461bcd)\n      dup2\n      mstore\n        /* \"#utility.yul\":10781:10783   */\n      0x20\n        /* \"Dethons.sol\":2606:2664  require(msg.value >= 0.01 ether, \"Send 0.01 ETH or more \") */\n      0x04\n      dup3\n      add\n        /* \"#utility.yul\":10763:10784   */\n      mstore\n        /* \"#utility.yul\":10820:10822   */\n      0x16\n        /* \"#utility.yul\":10800:10818   */\n      0x24\n      dup3\n      add\n        /* \"#utility.yul\":10793:10823   */\n      mstore\n      shl(0x55, 0x029b2b73210181718189022aa241037b91036b7b9329)\n        /* \"#utility.yul\":10839:10857   */\n      0x44\n      dup3\n      add\n        /* \"#utility.yul\":10832:10884   */\n      mstore\n        /* \"#utility.yul\":10901:10919   */\n      0x64\n      add\n        /* \"Dethons.sol\":2606:2664  require(msg.value >= 0.01 ether, \"Send 0.01 ETH or more \") */\n      tag_118\n        /* \"#utility.yul\":10579:10925   */\n      jump\n        /* \"Dethons.sol\":2606:2664  require(msg.value >= 0.01 ether, \"Send 0.01 ETH or more \") */\n    tag_230:\n        /* \"Dethons.sol\":2692:2702  msg.sender */\n      caller\n        /* \"Dethons.sol\":2682:2703  isOldUser[msg.sender] */\n      0x00\n      swap1\n      dup2\n      mstore\n        /* \"Dethons.sol\":2682:2691  isOldUser */\n      0x0a\n        /* \"Dethons.sol\":2682:2703  isOldUser[msg.sender] */\n      0x20\n      mstore\n      0x40\n      swap1\n      keccak256\n      sload\n      0xff\n      and\n        /* \"Dethons.sol\":2682:2711  isOldUser[msg.sender] == true */\n      iszero\n      iszero\n        /* \"Dethons.sol\":2682:2703  isOldUser[msg.sender] */\n      0x01\n        /* \"Dethons.sol\":2682:2711  isOldUser[msg.sender] == true */\n      eq\n        /* \"Dethons.sol\":2674:2744  require(isOldUser[msg.sender] == true, \"No hackathon on your address\") */\n      tag_232\n      jumpi\n      mload(0x40)\n      shl(0xe5, 0x461bcd)\n      dup2\n      mstore\n        /* \"#utility.yul\":10292:10294   */\n      0x20\n        /* \"Dethons.sol\":2674:2744  require(isOldUser[msg.sender] == true, \"No hackathon on your address\") */\n      0x04\n      dup3\n      add\n        /* \"#utility.yul\":10274:10295   */\n      mstore\n        /* \"#utility.yul\":10331:10333   */\n      0x1c\n        /* \"#utility.yul\":10311:10329   */\n      0x24\n      dup3\n      add\n        /* \"#utility.yul\":10304:10334   */\n      mstore\n        /* \"#utility.yul\":10370:10400   */\n      0x4e6f206861636b6174686f6e206f6e20796f7572206164647265737300000000\n        /* \"#utility.yul\":10350:10368   */\n      0x44\n      dup3\n      add\n        /* \"#utility.yul\":10343:10401   */\n      mstore\n        /* \"#utility.yul\":10418:10436   */\n      0x64\n      add\n        /* \"Dethons.sol\":2674:2744  require(isOldUser[msg.sender] == true, \"No hackathon on your address\") */\n      tag_118\n        /* \"#utility.yul\":10090:10442   */\n      jump\n        /* \"Dethons.sol\":2674:2744  require(isOldUser[msg.sender] == true, \"No hackathon on your address\") */\n    tag_232:\n        /* \"Dethons.sol\":2771:2781  msg.sender */\n      caller\n        /* \"Dethons.sol\":2762:2782  addToPos[msg.sender] */\n      0x00\n      swap1\n      dup2\n      mstore\n        /* \"Dethons.sol\":2762:2770  addToPos */\n      0x06\n        /* \"Dethons.sol\":2762:2782  addToPos[msg.sender] */\n      0x20\n      mstore\n      0x40\n      swap1\n      keccak256\n      sload\n        /* \"Dethons.sol\":2754:2761  hackArr */\n      0x04\n        /* \"Dethons.sol\":2754:2783  hackArr[addToPos[msg.sender]] */\n      dup1\n      sload\n        /* \"Dethons.sol\":2795:2800  _name */\n      dup5\n      swap3\n        /* \"Dethons.sol\":2762:2782  addToPos[msg.sender] */\n      swap1\n        /* \"Dethons.sol\":2754:2783  hackArr[addToPos[msg.sender]] */\n      dup2\n      lt\n      tag_235\n      jumpi\n      tag_235\n      tag_132\n      jump\t// in\n    tag_235:\n      swap1\n      0x00\n      mstore\n      keccak256(0x00, 0x20)\n      swap1\n      0x08\n      mul\n      add\n        /* \"Dethons.sol\":2754:2792  hackArr[addToPos[msg.sender]].hackName */\n      0x01\n      add\n        /* \"Dethons.sol\":2754:2800  hackArr[addToPos[msg.sender]].hackName = _name */\n      swap1\n      dup1\n      mload\n      swap1\n      0x20\n      add\n      swap1\n      tag_237\n      swap3\n      swap2\n      swap1\n      tag_161\n      jump\t// in\n    tag_237:\n      pop\n        /* \"Dethons.sol\":2827:2837  msg.sender */\n      caller\n        /* \"Dethons.sol\":2818:2838  addToPos[msg.sender] */\n      0x00\n      swap1\n      dup2\n      mstore\n        /* \"Dethons.sol\":2818:2826  addToPos */\n      0x06\n        /* \"Dethons.sol\":2818:2838  addToPos[msg.sender] */\n      0x20\n      mstore\n      0x40\n      swap1\n      keccak256\n      sload\n        /* \"Dethons.sol\":2810:2817  hackArr */\n      0x04\n        /* \"Dethons.sol\":2810:2839  hackArr[addToPos[msg.sender]] */\n      dup1\n      sload\n        /* \"Dethons.sol\":2854:2859  _desc */\n      dup4\n      swap3\n        /* \"Dethons.sol\":2818:2838  addToPos[msg.sender] */\n      swap1\n        /* \"Dethons.sol\":2810:2839  hackArr[addToPos[msg.sender]] */\n      dup2\n      lt\n      tag_239\n      jumpi\n      tag_239\n      tag_132\n      jump\t// in\n    tag_239:\n      swap1\n      0x00\n      mstore\n      keccak256(0x00, 0x20)\n      swap1\n      0x08\n      mul\n      add\n        /* \"Dethons.sol\":2810:2851  hackArr[addToPos[msg.sender]].description */\n      0x05\n      add\n        /* \"Dethons.sol\":2810:2859  hackArr[addToPos[msg.sender]].description = _desc */\n      swap1\n      dup1\n      mload\n      swap1\n      0x20\n      add\n      swap1\n      tag_241\n      swap3\n      swap2\n      swap1\n      tag_161\n      jump\t// in\n    tag_241:\n      pop\n        /* \"Dethons.sol\":2497:2866  function setDetails(string memory _name, string memory _desc)... */\n      pop\n      pop\n      jump\t// out\n    tag_161:\n      dup3\n      dup1\n      sload\n      tag_242\n      swap1\n      tag_91\n      jump\t// in\n    tag_242:\n      swap1\n      0x00\n      mstore\n      keccak256(0x00, 0x20)\n      swap1\n      0x1f\n      add\n      0x20\n      swap1\n      div\n      dup2\n      add\n      swap3\n      dup3\n      tag_244\n      jumpi\n      0x00\n      dup6\n      sstore\n      jump(tag_247)\n    tag_244:\n      dup3\n      0x1f\n      lt\n      tag_245\n      jumpi\n      dup1\n      mload\n      not(0xff)\n      and\n      dup4\n      dup1\n      add\n      or\n      dup6\n      sstore\n      jump(tag_247)\n    tag_245:\n      dup3\n      dup1\n      add\n      0x01\n      add\n      dup6\n      sstore\n      dup3\n      iszero\n      tag_247\n      jumpi\n      swap2\n      dup3\n      add\n    tag_246:\n      dup3\n      dup2\n      gt\n      iszero\n      tag_247\n      jumpi\n      dup3\n      mload\n      dup3\n      sstore\n      swap2\n      0x20\n      add\n      swap2\n      swap1\n      0x01\n      add\n      swap1\n      jump(tag_246)\n    tag_247:\n      pop\n      tag_248\n      swap3\n      swap2\n      pop\n      tag_249\n      jump\t// in\n    tag_248:\n      pop\n      swap1\n      jump\t// out\n    tag_171:\n      dup3\n      dup1\n      sload\n      tag_250\n      swap1\n      tag_91\n      jump\t// in\n    tag_250:\n      swap1\n      0x00\n      mstore\n      keccak256(0x00, 0x20)\n      swap1\n      0x1f\n      add\n      0x20\n      swap1\n      div\n      dup2\n      add\n      swap3\n      dup3\n      tag_252\n      jumpi\n      0x00\n      dup6\n      sstore\n      jump(tag_247)\n    tag_252:\n      dup3\n      0x1f\n      lt\n      tag_253\n      jumpi\n      dup1\n      sload\n      dup6\n      sstore\n      jump(tag_247)\n    tag_253:\n      dup3\n      dup1\n      add\n      0x01\n      add\n      dup6\n      sstore\n      dup3\n      iszero\n      tag_247\n      jumpi\n      0x00\n      mstore\n      keccak256(0x00, 0x20)\n      swap2\n      0x1f\n      add\n      0x20\n      swap1\n      div\n      dup3\n      add\n    tag_254:\n      dup3\n      dup2\n      gt\n      iszero\n      tag_247\n      jumpi\n      dup3\n      sload\n      dup3\n      sstore\n      swap2\n      0x01\n      add\n      swap2\n      swap1\n      0x01\n      add\n      swap1\n      jump(tag_254)\n    tag_182:\n      dup3\n      dup1\n      sload\n      dup3\n      dup3\n      sstore\n      swap1\n      0x00\n      mstore\n      keccak256(0x00, 0x20)\n      swap1\n      dup2\n      add\n      swap3\n      dup3\n      iszero\n      tag_247\n      jumpi\n      swap2\n      0x20\n      mul\n      dup3\n      add\n    tag_258:\n      dup3\n      dup2\n      gt\n      iszero\n      tag_247\n      jumpi\n      dup3\n      mload\n      dup3\n      sload\n      not(0xffffffffffffffffffffffffffffffffffffffff)\n      and\n      sub(shl(0xa0, 0x01), 0x01)\n      swap1\n      swap2\n      and\n      or\n      dup3\n      sstore\n      0x20\n      swap1\n      swap3\n      add\n      swap2\n      0x01\n      swap1\n      swap2\n      add\n      swap1\n      jump(tag_258)\n    tag_187:\n      dup3\n      dup1\n      sload\n      dup3\n      dup3\n      sstore\n      swap1\n      0x00\n      mstore\n      keccak256(0x00, 0x20)\n      swap1\n      dup2\n      add\n      swap3\n      dup3\n      iszero\n      tag_247\n      jumpi\n      0x00\n      mstore\n      keccak256(0x00, 0x20)\n      swap2\n      dup3\n      add\n      dup3\n      dup2\n      gt\n      iszero\n      tag_247\n      jumpi\n      dup3\n      sload\n      dup3\n      sstore\n      swap2\n      0x01\n      add\n      swap2\n      swap1\n      0x01\n      add\n      swap1\n      jump(tag_254)\n    tag_249:\n    tag_265:\n      dup1\n      dup3\n      gt\n      iszero\n      tag_248\n      jumpi\n      0x00\n      dup2\n      sstore\n      0x01\n      add\n      jump(tag_265)\n        /* \"#utility.yul\":14:210   */\n    tag_267:\n        /* \"#utility.yul\":82:102   */\n      dup1\n      calldataload\n      sub(shl(0xa0, 0x01), 0x01)\n        /* \"#utility.yul\":131:185   */\n      dup2\n      and\n        /* \"#utility.yul\":121:186   */\n      dup2\n      eq\n        /* \"#utility.yul\":111:204   */\n      tag_275\n      jumpi\n        /* \"#utility.yul\":200:201   */\n      0x00\n        /* \"#utility.yul\":197:198   */\n      dup1\n        /* \"#utility.yul\":190:202   */\n      revert\n        /* \"#utility.yul\":111:204   */\n    tag_275:\n        /* \"#utility.yul\":14:210   */\n      swap2\n      swap1\n      pop\n      jump\t// out\n        /* \"#utility.yul\":215:475   */\n    tag_23:\n        /* \"#utility.yul\":283:289   */\n      0x00\n        /* \"#utility.yul\":291:297   */\n      dup1\n        /* \"#utility.yul\":344:346   */\n      0x40\n        /* \"#utility.yul\":332:341   */\n      dup4\n        /* \"#utility.yul\":323:330   */\n      dup6\n        /* \"#utility.yul\":319:342   */\n      sub\n        /* \"#utility.yul\":315:347   */\n      slt\n        /* \"#utility.yul\":312:364   */\n      iszero\n      tag_277\n      jumpi\n        /* \"#utility.yul\":360:361   */\n      0x00\n        /* \"#utility.yul\":357:358   */\n      dup1\n        /* \"#utility.yul\":350:362   */\n      revert\n        /* \"#utility.yul\":312:364   */\n    tag_277:\n        /* \"#utility.yul\":383:412   */\n      tag_278\n        /* \"#utility.yul\":402:411   */\n      dup4\n        /* \"#utility.yul\":383:412   */\n      tag_267\n      jump\t// in\n    tag_278:\n        /* \"#utility.yul\":373:412   */\n      swap2\n      pop\n        /* \"#utility.yul\":431:469   */\n      tag_279\n        /* \"#utility.yul\":465:467   */\n      0x20\n        /* \"#utility.yul\":454:463   */\n      dup5\n        /* \"#utility.yul\":450:468   */\n      add\n        /* \"#utility.yul\":431:469   */\n      tag_267\n      jump\t// in\n    tag_279:\n        /* \"#utility.yul\":421:469   */\n      swap1\n      pop\n        /* \"#utility.yul\":215:475   */\n      swap3\n      pop\n      swap3\n      swap1\n      pop\n      jump\t// out\n        /* \"#utility.yul\":480:952   */\n    tag_268:\n        /* \"#utility.yul\":522:525   */\n      0x00\n        /* \"#utility.yul\":560:565   */\n      dup2\n        /* \"#utility.yul\":554:566   */\n      mload\n        /* \"#utility.yul\":587:593   */\n      dup1\n        /* \"#utility.yul\":582:585   */\n      dup5\n        /* \"#utility.yul\":575:594   */\n      mstore\n        /* \"#utility.yul\":612:613   */\n      0x00\n        /* \"#utility.yul\":622:784   */\n    tag_281:\n        /* \"#utility.yul\":636:642   */\n      dup2\n        /* \"#utility.yul\":633:634   */\n      dup2\n        /* \"#utility.yul\":630:643   */\n      lt\n        /* \"#utility.yul\":622:784   */\n      iszero\n      tag_283\n      jumpi\n        /* \"#utility.yul\":698:702   */\n      0x20\n        /* \"#utility.yul\":754:767   */\n      dup2\n      dup6\n      add\n        /* \"#utility.yul\":750:772   */\n      dup2\n      add\n        /* \"#utility.yul\":744:773   */\n      mload\n        /* \"#utility.yul\":726:737   */\n      dup7\n      dup4\n      add\n        /* \"#utility.yul\":722:742   */\n      dup3\n      add\n        /* \"#utility.yul\":715:774   */\n      mstore\n        /* \"#utility.yul\":651:663   */\n      add\n        /* \"#utility.yul\":622:784   */\n      jump(tag_281)\n    tag_283:\n        /* \"#utility.yul\":802:808   */\n      dup2\n        /* \"#utility.yul\":799:800   */\n      dup2\n        /* \"#utility.yul\":796:809   */\n      gt\n        /* \"#utility.yul\":793:880   */\n      iszero\n      tag_284\n      jumpi\n        /* \"#utility.yul\":868:869   */\n      0x00\n        /* \"#utility.yul\":861:865   */\n      0x20\n        /* \"#utility.yul\":852:858   */\n      dup4\n        /* \"#utility.yul\":847:850   */\n      dup8\n        /* \"#utility.yul\":843:859   */\n      add\n        /* \"#utility.yul\":839:866   */\n      add\n        /* \"#utility.yul\":832:870   */\n      mstore\n        /* \"#utility.yul\":793:880   */\n    tag_284:\n      pop\n        /* \"#utility.yul\":934:936   */\n      0x1f\n        /* \"#utility.yul\":913:928   */\n      add\n      not(0x1f)\n        /* \"#utility.yul\":909:938   */\n      and\n        /* \"#utility.yul\":900:939   */\n      swap3\n      swap1\n      swap3\n      add\n        /* \"#utility.yul\":941:945   */\n      0x20\n        /* \"#utility.yul\":896:946   */\n      add\n      swap3\n        /* \"#utility.yul\":480:952   */\n      swap2\n      pop\n      pop\n      jump\t// out\n        /* \"#utility.yul\":1185:3576   */\n    tag_29:\n        /* \"#utility.yul\":1367:1371   */\n      0x00\n        /* \"#utility.yul\":1396:1398   */\n      0x20\n        /* \"#utility.yul\":1436:1438   */\n      dup1\n        /* \"#utility.yul\":1425:1434   */\n      dup4\n        /* \"#utility.yul\":1421:1439   */\n      add\n        /* \"#utility.yul\":1466:1468   */\n      dup2\n        /* \"#utility.yul\":1455:1464   */\n      dup5\n        /* \"#utility.yul\":1448:1469   */\n      mstore\n        /* \"#utility.yul\":1489:1495   */\n      dup1\n        /* \"#utility.yul\":1524:1530   */\n      dup6\n        /* \"#utility.yul\":1518:1531   */\n      mload\n        /* \"#utility.yul\":1555:1561   */\n      dup1\n        /* \"#utility.yul\":1547:1553   */\n      dup4\n        /* \"#utility.yul\":1540:1562   */\n      mstore\n        /* \"#utility.yul\":1581:1583   */\n      0x40\n        /* \"#utility.yul\":1571:1583   */\n      swap3\n      pop\n        /* \"#utility.yul\":1614:1616   */\n      dup3\n        /* \"#utility.yul\":1603:1612   */\n      dup7\n        /* \"#utility.yul\":1599:1617   */\n      add\n        /* \"#utility.yul\":1592:1617   */\n      swap2\n      pop\n        /* \"#utility.yul\":1676:1678   */\n      dup3\n        /* \"#utility.yul\":1666:1672   */\n      dup2\n        /* \"#utility.yul\":1663:1664   */\n      0x05\n        /* \"#utility.yul\":1659:1673   */\n      shl\n        /* \"#utility.yul\":1648:1657   */\n      dup8\n        /* \"#utility.yul\":1644:1674   */\n      add\n        /* \"#utility.yul\":1640:1679   */\n      add\n        /* \"#utility.yul\":1714:1716   */\n      dup5\n        /* \"#utility.yul\":1706:1712   */\n      dup9\n        /* \"#utility.yul\":1702:1717   */\n      add\n        /* \"#utility.yul\":1735:1736   */\n      0x00\n        /* \"#utility.yul\":1745:3547   */\n    tag_288:\n        /* \"#utility.yul\":1759:1765   */\n      dup4\n        /* \"#utility.yul\":1756:1757   */\n      dup2\n        /* \"#utility.yul\":1753:1766   */\n      lt\n        /* \"#utility.yul\":1745:3547   */\n      iszero\n      tag_290\n      jumpi\n        /* \"#utility.yul\":1852:1854   */\n      0x3f\n        /* \"#utility.yul\":1848:1855   */\n      not\n        /* \"#utility.yul\":1836:1845   */\n      dup10\n        /* \"#utility.yul\":1828:1834   */\n      dup5\n        /* \"#utility.yul\":1824:1846   */\n      sub\n        /* \"#utility.yul\":1820:1856   */\n      add\n        /* \"#utility.yul\":1815:1818   */\n      dup6\n        /* \"#utility.yul\":1808:1857   */\n      mstore\n        /* \"#utility.yul\":1886:1892   */\n      dup2\n        /* \"#utility.yul\":1880:1893   */\n      mload\n        /* \"#utility.yul\":1916:1922   */\n      0x0140\n        /* \"#utility.yul\":1956:1958   */\n      dup2\n        /* \"#utility.yul\":1950:1959   */\n      mload\n        /* \"#utility.yul\":1942:1948   */\n      dup6\n        /* \"#utility.yul\":1935:1960   */\n      mstore\n        /* \"#utility.yul\":2007:2009   */\n      dup9\n        /* \"#utility.yul\":2003:2005   */\n      dup3\n        /* \"#utility.yul\":1999:2010   */\n      add\n        /* \"#utility.yul\":1993:2011   */\n      mload\n        /* \"#utility.yul\":2048:2050   */\n      dup2\n        /* \"#utility.yul\":2043:2045   */\n      dup11\n        /* \"#utility.yul\":2035:2041   */\n      dup8\n        /* \"#utility.yul\":2031:2046   */\n      add\n        /* \"#utility.yul\":2024:2051   */\n      mstore\n        /* \"#utility.yul\":2078:2126   */\n      tag_291\n        /* \"#utility.yul\":2122:2124   */\n      dup3\n        /* \"#utility.yul\":2114:2120   */\n      dup8\n        /* \"#utility.yul\":2110:2125   */\n      add\n        /* \"#utility.yul\":2096:2108   */\n      dup3\n        /* \"#utility.yul\":2078:2126   */\n      tag_268\n      jump\t// in\n    tag_291:\n        /* \"#utility.yul\":2064:2126   */\n      swap2\n      pop\n      pop\n        /* \"#utility.yul\":2175:2177   */\n      dup8\n        /* \"#utility.yul\":2171:2173   */\n      dup3\n        /* \"#utility.yul\":2167:2178   */\n      add\n        /* \"#utility.yul\":2161:2179   */\n      mload\n        /* \"#utility.yul\":2228:2234   */\n      dup6\n        /* \"#utility.yul\":2220:2226   */\n      dup3\n        /* \"#utility.yul\":2216:2235   */\n      sub\n        /* \"#utility.yul\":2211:2213   */\n      dup10\n        /* \"#utility.yul\":2203:2209   */\n      dup8\n        /* \"#utility.yul\":2199:2214   */\n      add\n        /* \"#utility.yul\":2192:2236   */\n      mstore\n        /* \"#utility.yul\":2263:2304   */\n      tag_292\n        /* \"#utility.yul\":2297:2303   */\n      dup3\n        /* \"#utility.yul\":2281:2295   */\n      dup3\n        /* \"#utility.yul\":2263:2304   */\n      tag_268\n      jump\t// in\n    tag_292:\n        /* \"#utility.yul\":2249:2304   */\n      swap2\n      pop\n      pop\n        /* \"#utility.yul\":2327:2331   */\n      0x60\n        /* \"#utility.yul\":2380:2382   */\n      dup1\n        /* \"#utility.yul\":2376:2378   */\n      dup4\n        /* \"#utility.yul\":2372:2383   */\n      add\n        /* \"#utility.yul\":2366:2384   */\n      mload\n        /* \"#utility.yul\":2433:2439   */\n      dup7\n        /* \"#utility.yul\":2425:2431   */\n      dup4\n        /* \"#utility.yul\":2421:2440   */\n      sub\n        /* \"#utility.yul\":2416:2418   */\n      dup3\n        /* \"#utility.yul\":2408:2414   */\n      dup9\n        /* \"#utility.yul\":2404:2419   */\n      add\n        /* \"#utility.yul\":2397:2441   */\n      mstore\n        /* \"#utility.yul\":2468:2509   */\n      tag_293\n        /* \"#utility.yul\":2502:2508   */\n      dup4\n        /* \"#utility.yul\":2486:2500   */\n      dup3\n        /* \"#utility.yul\":2468:2509   */\n      tag_268\n      jump\t// in\n    tag_293:\n        /* \"#utility.yul\":2454:2509   */\n      swap3\n      pop\n      pop\n      pop\n        /* \"#utility.yul\":2532:2536   */\n      0x80\n        /* \"#utility.yul\":2585:2587   */\n      dup1\n        /* \"#utility.yul\":2581:2583   */\n      dup4\n        /* \"#utility.yul\":2577:2588   */\n      add\n        /* \"#utility.yul\":2571:2589   */\n      mload\n        /* \"#utility.yul\":2638:2644   */\n      dup7\n        /* \"#utility.yul\":2630:2636   */\n      dup4\n        /* \"#utility.yul\":2626:2645   */\n      sub\n        /* \"#utility.yul\":2621:2623   */\n      dup3\n        /* \"#utility.yul\":2613:2619   */\n      dup9\n        /* \"#utility.yul\":2609:2624   */\n      add\n        /* \"#utility.yul\":2602:2646   */\n      mstore\n        /* \"#utility.yul\":2673:2714   */\n      tag_294\n        /* \"#utility.yul\":2707:2713   */\n      dup4\n        /* \"#utility.yul\":2691:2705   */\n      dup3\n        /* \"#utility.yul\":2673:2714   */\n      tag_268\n      jump\t// in\n    tag_294:\n        /* \"#utility.yul\":2659:2714   */\n      swap3\n      pop\n      pop\n      pop\n        /* \"#utility.yul\":2737:2741   */\n      0xa0\n        /* \"#utility.yul\":2790:2792   */\n      dup1\n        /* \"#utility.yul\":2786:2788   */\n      dup4\n        /* \"#utility.yul\":2782:2793   */\n      add\n        /* \"#utility.yul\":2776:2794   */\n      mload\n        /* \"#utility.yul\":2843:2849   */\n      dup7\n        /* \"#utility.yul\":2835:2841   */\n      dup4\n        /* \"#utility.yul\":2831:2850   */\n      sub\n        /* \"#utility.yul\":2826:2828   */\n      dup3\n        /* \"#utility.yul\":2818:2824   */\n      dup9\n        /* \"#utility.yul\":2814:2829   */\n      add\n        /* \"#utility.yul\":2807:2851   */\n      mstore\n        /* \"#utility.yul\":2878:2919   */\n      tag_295\n        /* \"#utility.yul\":2912:2918   */\n      dup4\n        /* \"#utility.yul\":2896:2910   */\n      dup3\n        /* \"#utility.yul\":2878:2919   */\n      tag_268\n      jump\t// in\n    tag_295:\n        /* \"#utility.yul\":2864:2919   */\n      swap3\n      pop\n      pop\n      pop\n        /* \"#utility.yul\":2942:2946   */\n      0xc0\n        /* \"#utility.yul\":2997:2999   */\n      dup1\n        /* \"#utility.yul\":2993:2995   */\n      dup4\n        /* \"#utility.yul\":2989:3000   */\n      add\n        /* \"#utility.yul\":2983:3001   */\n      mload\n        /* \"#utility.yul\":2978:2980   */\n      dup2\n        /* \"#utility.yul\":2970:2976   */\n      dup8\n        /* \"#utility.yul\":2966:2981   */\n      add\n        /* \"#utility.yul\":2959:3002   */\n      mstore\n      pop\n        /* \"#utility.yul\":3025:3029   */\n      0xe0\n        /* \"#utility.yul\":3078:3080   */\n      dup1\n        /* \"#utility.yul\":3074:3076   */\n      dup4\n        /* \"#utility.yul\":3070:3081   */\n      add\n        /* \"#utility.yul\":3064:3082   */\n      mload\n        /* \"#utility.yul\":3095:3143   */\n      tag_296\n        /* \"#utility.yul\":3139:3141   */\n      dup3\n        /* \"#utility.yul\":3131:3137   */\n      dup9\n        /* \"#utility.yul\":3127:3142   */\n      add\n        /* \"#utility.yul\":3111:3125   */\n      dup3\n        /* \"#utility.yul\":1027:1040   */\n      iszero\n        /* \"#utility.yul\":1020:1041   */\n      iszero\n        /* \"#utility.yul\":1008:1042   */\n      swap1\n      mstore\n        /* \"#utility.yul\":957:1048   */\n      jump\n        /* \"#utility.yul\":3095:3143   */\n    tag_296:\n      pop\n      pop\n        /* \"#utility.yul\":3167:3173   */\n      0x0100\n        /* \"#utility.yul\":3214:3226   */\n      dup3\n      dup2\n      add\n        /* \"#utility.yul\":3208:3227   */\n      mload\n        /* \"#utility.yul\":1027:1040   */\n      iszero\n        /* \"#utility.yul\":1020:1041   */\n      iszero\n        /* \"#utility.yul\":3272:3288   */\n      swap1\n      dup7\n      add\n        /* \"#utility.yul\":1008:1042   */\n      mstore\n        /* \"#utility.yul\":3313:3319   */\n      0x0120\n        /* \"#utility.yul\":3360:3372   */\n      swap2\n      dup3\n      add\n        /* \"#utility.yul\":3354:3373   */\n      mload\n      sub(shl(0xa0, 0x01), 0x01)\n        /* \"#utility.yul\":1119:1173   */\n      and\n        /* \"#utility.yul\":3421:3437   */\n      swap2\n      swap1\n      swap5\n      add\n        /* \"#utility.yul\":1107:1174   */\n      mstore\n        /* \"#utility.yul\":3525:3537   */\n      swap4\n      dup7\n      add\n      swap4\n        /* \"#utility.yul\":3490:3505   */\n      swap1\n      dup7\n      add\n      swap1\n        /* \"#utility.yul\":1781:1782   */\n      0x01\n        /* \"#utility.yul\":1774:1783   */\n      add\n        /* \"#utility.yul\":1745:3547   */\n      jump(tag_288)\n    tag_290:\n      pop\n        /* \"#utility.yul\":3564:3570   */\n      swap1\n      swap9\n        /* \"#utility.yul\":1185:3576   */\n      swap8\n      pop\n      pop\n      pop\n      pop\n      pop\n      pop\n      pop\n      pop\n      jump\t// out\n        /* \"#utility.yul\":3581:3767   */\n    tag_33:\n        /* \"#utility.yul\":3640:3646   */\n      0x00\n        /* \"#utility.yul\":3693:3695   */\n      0x20\n        /* \"#utility.yul\":3681:3690   */\n      dup3\n        /* \"#utility.yul\":3672:3679   */\n      dup5\n        /* \"#utility.yul\":3668:3691   */\n      sub\n        /* \"#utility.yul\":3664:3696   */\n      slt\n        /* \"#utility.yul\":3661:3713   */\n      iszero\n      tag_300\n      jumpi\n        /* \"#utility.yul\":3709:3710   */\n      0x00\n        /* \"#utility.yul\":3706:3707   */\n      dup1\n        /* \"#utility.yul\":3699:3711   */\n      revert\n        /* \"#utility.yul\":3661:3713   */\n    tag_300:\n        /* \"#utility.yul\":3732:3761   */\n      tag_301\n        /* \"#utility.yul\":3751:3760   */\n      dup3\n        /* \"#utility.yul\":3732:3761   */\n      tag_267\n      jump\t// in\n    tag_301:\n        /* \"#utility.yul\":3722:3761   */\n      swap4\n        /* \"#utility.yul\":3581:3767   */\n      swap3\n      pop\n      pop\n      pop\n      jump\t// out\n        /* \"#utility.yul\":3772:4453   */\n    tag_47:\n        /* \"#utility.yul\":3943:3945   */\n      0x20\n        /* \"#utility.yul\":3995:4016   */\n      dup1\n      dup3\n      mstore\n        /* \"#utility.yul\":4065:4078   */\n      dup3\n      mload\n        /* \"#utility.yul\":3968:3986   */\n      dup3\n      dup3\n      add\n        /* \"#utility.yul\":4087:4109   */\n      dup2\n      swap1\n      mstore\n        /* \"#utility.yul\":3914:3918   */\n      0x00\n      swap2\n        /* \"#utility.yul\":3943:3945   */\n      swap1\n        /* \"#utility.yul\":4166:4181   */\n      dup5\n      dup3\n      add\n      swap1\n        /* \"#utility.yul\":4140:4142   */\n      0x40\n        /* \"#utility.yul\":4125:4143   */\n      dup6\n      add\n      swap1\n        /* \"#utility.yul\":3914:3918   */\n      dup5\n        /* \"#utility.yul\":4209:4427   */\n    tag_303:\n        /* \"#utility.yul\":4223:4229   */\n      dup2\n        /* \"#utility.yul\":4220:4221   */\n      dup2\n        /* \"#utility.yul\":4217:4230   */\n      lt\n        /* \"#utility.yul\":4209:4427   */\n      iszero\n      tag_305\n      jumpi\n        /* \"#utility.yul\":4288:4301   */\n      dup4\n      mload\n      sub(shl(0xa0, 0x01), 0x01)\n        /* \"#utility.yul\":4284:4346   */\n      and\n        /* \"#utility.yul\":4272:4347   */\n      dup4\n      mstore\n        /* \"#utility.yul\":4402:4417   */\n      swap3\n      dup5\n      add\n      swap3\n        /* \"#utility.yul\":4367:4379   */\n      swap2\n      dup5\n      add\n      swap2\n        /* \"#utility.yul\":4245:4246   */\n      0x01\n        /* \"#utility.yul\":4238:4247   */\n      add\n        /* \"#utility.yul\":4209:4427   */\n      jump(tag_303)\n    tag_305:\n      pop\n        /* \"#utility.yul\":4444:4447   */\n      swap1\n      swap7\n        /* \"#utility.yul\":3772:4453   */\n      swap6\n      pop\n      pop\n      pop\n      pop\n      pop\n      pop\n      jump\t// out\n        /* \"#utility.yul\":4458:4585   */\n    tag_271:\n        /* \"#utility.yul\":4519:4529   */\n      0x4e487b71\n        /* \"#utility.yul\":4514:4517   */\n      0xe0\n        /* \"#utility.yul\":4510:4530   */\n      shl\n        /* \"#utility.yul\":4507:4508   */\n      0x00\n        /* \"#utility.yul\":4500:4531   */\n      mstore\n        /* \"#utility.yul\":4550:4554   */\n      0x41\n        /* \"#utility.yul\":4547:4548   */\n      0x04\n        /* \"#utility.yul\":4540:4555   */\n      mstore\n        /* \"#utility.yul\":4574:4578   */\n      0x24\n        /* \"#utility.yul\":4571:4572   */\n      0x00\n        /* \"#utility.yul\":4564:4579   */\n      revert\n        /* \"#utility.yul\":4590:5309   */\n    tag_272:\n        /* \"#utility.yul\":4633:4638   */\n      0x00\n        /* \"#utility.yul\":4686:4689   */\n      dup3\n        /* \"#utility.yul\":4679:4683   */\n      0x1f\n        /* \"#utility.yul\":4671:4677   */\n      dup4\n        /* \"#utility.yul\":4667:4684   */\n      add\n        /* \"#utility.yul\":4663:4690   */\n      slt\n        /* \"#utility.yul\":4653:4708   */\n      tag_308\n      jumpi\n        /* \"#utility.yul\":4704:4705   */\n      0x00\n        /* \"#utility.yul\":4701:4702   */\n      dup1\n        /* \"#utility.yul\":4694:4706   */\n      revert\n        /* \"#utility.yul\":4653:4708   */\n    tag_308:\n        /* \"#utility.yul\":4740:4746   */\n      dup2\n        /* \"#utility.yul\":4727:4747   */\n      calldataload\n        /* \"#utility.yul\":4766:4784   */\n      0xffffffffffffffff\n        /* \"#utility.yul\":4803:4805   */\n      dup1\n        /* \"#utility.yul\":4799:4801   */\n      dup3\n        /* \"#utility.yul\":4796:4806   */\n      gt\n        /* \"#utility.yul\":4793:4829   */\n      iszero\n      tag_310\n      jumpi\n        /* \"#utility.yul\":4809:4827   */\n      tag_310\n      tag_271\n      jump\t// in\n    tag_310:\n        /* \"#utility.yul\":4884:4886   */\n      0x40\n        /* \"#utility.yul\":4878:4887   */\n      mload\n        /* \"#utility.yul\":4852:4854   */\n      0x1f\n        /* \"#utility.yul\":4938:4951   */\n      dup4\n      add\n      not(0x1f)\n        /* \"#utility.yul\":4934:4956   */\n      swap1\n      dup2\n      and\n        /* \"#utility.yul\":4958:4960   */\n      0x3f\n        /* \"#utility.yul\":4930:4961   */\n      add\n        /* \"#utility.yul\":4926:4966   */\n      and\n        /* \"#utility.yul\":4914:4967   */\n      dup2\n      add\n      swap1\n        /* \"#utility.yul\":4982:5000   */\n      dup3\n      dup3\n      gt\n        /* \"#utility.yul\":5002:5024   */\n      dup2\n      dup4\n      lt\n        /* \"#utility.yul\":4979:5025   */\n      or\n        /* \"#utility.yul\":4976:5048   */\n      iszero\n      tag_312\n      jumpi\n        /* \"#utility.yul\":5028:5046   */\n      tag_312\n      tag_271\n      jump\t// in\n    tag_312:\n        /* \"#utility.yul\":5068:5078   */\n      dup2\n        /* \"#utility.yul\":5064:5066   */\n      0x40\n        /* \"#utility.yul\":5057:5079   */\n      mstore\n        /* \"#utility.yul\":5103:5105   */\n      dup4\n        /* \"#utility.yul\":5095:5101   */\n      dup2\n        /* \"#utility.yul\":5088:5106   */\n      mstore\n        /* \"#utility.yul\":5149:5152   */\n      dup7\n        /* \"#utility.yul\":5142:5146   */\n      0x20\n        /* \"#utility.yul\":5137:5139   */\n      dup6\n        /* \"#utility.yul\":5129:5135   */\n      dup9\n        /* \"#utility.yul\":5125:5140   */\n      add\n        /* \"#utility.yul\":5121:5147   */\n      add\n        /* \"#utility.yul\":5118:5153   */\n      gt\n        /* \"#utility.yul\":5115:5170   */\n      iszero\n      tag_313\n      jumpi\n        /* \"#utility.yul\":5166:5167   */\n      0x00\n        /* \"#utility.yul\":5163:5164   */\n      dup1\n        /* \"#utility.yul\":5156:5168   */\n      revert\n        /* \"#utility.yul\":5115:5170   */\n    tag_313:\n        /* \"#utility.yul\":5230:5232   */\n      dup4\n        /* \"#utility.yul\":5223:5227   */\n      0x20\n        /* \"#utility.yul\":5215:5221   */\n      dup8\n        /* \"#utility.yul\":5211:5228   */\n      add\n        /* \"#utility.yul\":5204:5208   */\n      0x20\n        /* \"#utility.yul\":5196:5202   */\n      dup4\n        /* \"#utility.yul\":5192:5209   */\n      add\n        /* \"#utility.yul\":5179:5233   */\n      calldatacopy\n        /* \"#utility.yul\":5277:5278   */\n      0x00\n        /* \"#utility.yul\":5270:5274   */\n      0x20\n        /* \"#utility.yul\":5265:5267   */\n      dup6\n        /* \"#utility.yul\":5257:5263   */\n      dup4\n        /* \"#utility.yul\":5253:5268   */\n      add\n        /* \"#utility.yul\":5249:5275   */\n      add\n        /* \"#utility.yul\":5242:5279   */\n      mstore\n        /* \"#utility.yul\":5297:5303   */\n      dup1\n        /* \"#utility.yul\":5288:5303   */\n      swap5\n      pop\n      pop\n      pop\n      pop\n      pop\n        /* \"#utility.yul\":4590:5309   */\n      swap3\n      swap2\n      pop\n      pop\n      jump\t// out\n        /* \"#utility.yul\":5314:6528   */\n    tag_50:\n        /* \"#utility.yul\":5468:5474   */\n      0x00\n        /* \"#utility.yul\":5476:5482   */\n      dup1\n        /* \"#utility.yul\":5484:5490   */\n      0x00\n        /* \"#utility.yul\":5492:5498   */\n      dup1\n        /* \"#utility.yul\":5500:5506   */\n      0x00\n        /* \"#utility.yul\":5508:5514   */\n      dup1\n        /* \"#utility.yul\":5561:5564   */\n      0xc0\n        /* \"#utility.yul\":5549:5558   */\n      dup8\n        /* \"#utility.yul\":5540:5547   */\n      dup10\n        /* \"#utility.yul\":5536:5559   */\n      sub\n        /* \"#utility.yul\":5532:5565   */\n      slt\n        /* \"#utility.yul\":5529:5582   */\n      iszero\n      tag_315\n      jumpi\n        /* \"#utility.yul\":5578:5579   */\n      0x00\n        /* \"#utility.yul\":5575:5576   */\n      dup1\n        /* \"#utility.yul\":5568:5580   */\n      revert\n        /* \"#utility.yul\":5529:5582   */\n    tag_315:\n        /* \"#utility.yul\":5618:5627   */\n      dup7\n        /* \"#utility.yul\":5605:5628   */\n      calldataload\n        /* \"#utility.yul\":5647:5665   */\n      0xffffffffffffffff\n        /* \"#utility.yul\":5688:5690   */\n      dup1\n        /* \"#utility.yul\":5680:5686   */\n      dup3\n        /* \"#utility.yul\":5677:5691   */\n      gt\n        /* \"#utility.yul\":5674:5708   */\n      iszero\n      tag_316\n      jumpi\n        /* \"#utility.yul\":5704:5705   */\n      0x00\n        /* \"#utility.yul\":5701:5702   */\n      dup1\n        /* \"#utility.yul\":5694:5706   */\n      revert\n        /* \"#utility.yul\":5674:5708   */\n    tag_316:\n        /* \"#utility.yul\":5727:5777   */\n      tag_317\n        /* \"#utility.yul\":5769:5776   */\n      dup11\n        /* \"#utility.yul\":5760:5766   */\n      dup4\n        /* \"#utility.yul\":5749:5758   */\n      dup12\n        /* \"#utility.yul\":5745:5767   */\n      add\n        /* \"#utility.yul\":5727:5777   */\n      tag_272\n      jump\t// in\n    tag_317:\n        /* \"#utility.yul\":5717:5777   */\n      swap8\n      pop\n        /* \"#utility.yul\":5830:5832   */\n      0x20\n        /* \"#utility.yul\":5819:5828   */\n      dup10\n        /* \"#utility.yul\":5815:5833   */\n      add\n        /* \"#utility.yul\":5802:5834   */\n      calldataload\n        /* \"#utility.yul\":5786:5834   */\n      swap2\n      pop\n        /* \"#utility.yul\":5859:5861   */\n      dup1\n        /* \"#utility.yul\":5849:5857   */\n      dup3\n        /* \"#utility.yul\":5846:5862   */\n      gt\n        /* \"#utility.yul\":5843:5879   */\n      iszero\n      tag_318\n      jumpi\n        /* \"#utility.yul\":5875:5876   */\n      0x00\n        /* \"#utility.yul\":5872:5873   */\n      dup1\n        /* \"#utility.yul\":5865:5877   */\n      revert\n        /* \"#utility.yul\":5843:5879   */\n    tag_318:\n        /* \"#utility.yul\":5898:5950   */\n      tag_319\n        /* \"#utility.yul\":5942:5949   */\n      dup11\n        /* \"#utility.yul\":5931:5939   */\n      dup4\n        /* \"#utility.yul\":5920:5929   */\n      dup12\n        /* \"#utility.yul\":5916:5940   */\n      add\n        /* \"#utility.yul\":5898:5950   */\n      tag_272\n      jump\t// in\n    tag_319:\n        /* \"#utility.yul\":5888:5950   */\n      swap7\n      pop\n        /* \"#utility.yul\":6003:6005   */\n      0x40\n        /* \"#utility.yul\":5992:6001   */\n      dup10\n        /* \"#utility.yul\":5988:6006   */\n      add\n        /* \"#utility.yul\":5975:6007   */\n      calldataload\n        /* \"#utility.yul\":5959:6007   */\n      swap2\n      pop\n        /* \"#utility.yul\":6032:6034   */\n      dup1\n        /* \"#utility.yul\":6022:6030   */\n      dup3\n        /* \"#utility.yul\":6019:6035   */\n      gt\n        /* \"#utility.yul\":6016:6052   */\n      iszero\n      tag_320\n      jumpi\n        /* \"#utility.yul\":6048:6049   */\n      0x00\n        /* \"#utility.yul\":6045:6046   */\n      dup1\n        /* \"#utility.yul\":6038:6050   */\n      revert\n        /* \"#utility.yul\":6016:6052   */\n    tag_320:\n        /* \"#utility.yul\":6071:6123   */\n      tag_321\n        /* \"#utility.yul\":6115:6122   */\n      dup11\n        /* \"#utility.yul\":6104:6112   */\n      dup4\n        /* \"#utility.yul\":6093:6102   */\n      dup12\n        /* \"#utility.yul\":6089:6113   */\n      add\n        /* \"#utility.yul\":6071:6123   */\n      tag_272\n      jump\t// in\n    tag_321:\n        /* \"#utility.yul\":6061:6123   */\n      swap6\n      pop\n        /* \"#utility.yul\":6176:6178   */\n      0x60\n        /* \"#utility.yul\":6165:6174   */\n      dup10\n        /* \"#utility.yul\":6161:6179   */\n      add\n        /* \"#utility.yul\":6148:6180   */\n      calldataload\n        /* \"#utility.yul\":6132:6180   */\n      swap2\n      pop\n        /* \"#utility.yul\":6205:6207   */\n      dup1\n        /* \"#utility.yul\":6195:6203   */\n      dup3\n        /* \"#utility.yul\":6192:6208   */\n      gt\n        /* \"#utility.yul\":6189:6225   */\n      iszero\n      tag_322\n      jumpi\n        /* \"#utility.yul\":6221:6222   */\n      0x00\n        /* \"#utility.yul\":6218:6219   */\n      dup1\n        /* \"#utility.yul\":6211:6223   */\n      revert\n        /* \"#utility.yul\":6189:6225   */\n    tag_322:\n        /* \"#utility.yul\":6244:6296   */\n      tag_323\n        /* \"#utility.yul\":6288:6295   */\n      dup11\n        /* \"#utility.yul\":6277:6285   */\n      dup4\n        /* \"#utility.yul\":6266:6275   */\n      dup12\n        /* \"#utility.yul\":6262:6286   */\n      add\n        /* \"#utility.yul\":6244:6296   */\n      tag_272\n      jump\t// in\n    tag_323:\n        /* \"#utility.yul\":6234:6296   */\n      swap5\n      pop\n        /* \"#utility.yul\":6349:6352   */\n      0x80\n        /* \"#utility.yul\":6338:6347   */\n      dup10\n        /* \"#utility.yul\":6334:6353   */\n      add\n        /* \"#utility.yul\":6321:6354   */\n      calldataload\n        /* \"#utility.yul\":6305:6354   */\n      swap2\n      pop\n        /* \"#utility.yul\":6379:6381   */\n      dup1\n        /* \"#utility.yul\":6369:6377   */\n      dup3\n        /* \"#utility.yul\":6366:6382   */\n      gt\n        /* \"#utility.yul\":6363:6399   */\n      iszero\n      tag_324\n      jumpi\n        /* \"#utility.yul\":6395:6396   */\n      0x00\n        /* \"#utility.yul\":6392:6393   */\n      dup1\n        /* \"#utility.yul\":6385:6397   */\n      revert\n        /* \"#utility.yul\":6363:6399   */\n    tag_324:\n      pop\n        /* \"#utility.yul\":6418:6470   */\n      tag_325\n        /* \"#utility.yul\":6462:6469   */\n      dup10\n        /* \"#utility.yul\":6451:6459   */\n      dup3\n        /* \"#utility.yul\":6440:6449   */\n      dup11\n        /* \"#utility.yul\":6436:6460   */\n      add\n        /* \"#utility.yul\":6418:6470   */\n      tag_272\n      jump\t// in\n    tag_325:\n        /* \"#utility.yul\":6408:6470   */\n      swap3\n      pop\n      pop\n        /* \"#utility.yul\":6517:6520   */\n      0xa0\n        /* \"#utility.yul\":6506:6515   */\n      dup8\n        /* \"#utility.yul\":6502:6521   */\n      add\n        /* \"#utility.yul\":6489:6522   */\n      calldataload\n        /* \"#utility.yul\":6479:6522   */\n      swap1\n      pop\n        /* \"#utility.yul\":5314:6528   */\n      swap3\n      swap6\n      pop\n      swap3\n      swap6\n      pop\n      swap3\n      swap6\n      jump\t// out\n        /* \"#utility.yul\":6533:6753   */\n    tag_56:\n        /* \"#utility.yul\":6682:6684   */\n      0x20\n        /* \"#utility.yul\":6671:6680   */\n      dup2\n        /* \"#utility.yul\":6664:6685   */\n      mstore\n        /* \"#utility.yul\":6645:6649   */\n      0x00\n        /* \"#utility.yul\":6702:6747   */\n      tag_301\n        /* \"#utility.yul\":6743:6745   */\n      0x20\n        /* \"#utility.yul\":6732:6741   */\n      dup4\n        /* \"#utility.yul\":6728:6746   */\n      add\n        /* \"#utility.yul\":6720:6726   */\n      dup5\n        /* \"#utility.yul\":6702:6747   */\n      tag_268\n      jump\t// in\n        /* \"#utility.yul\":6758:6938   */\n    tag_59:\n        /* \"#utility.yul\":6817:6823   */\n      0x00\n        /* \"#utility.yul\":6870:6872   */\n      0x20\n        /* \"#utility.yul\":6858:6867   */\n      dup3\n        /* \"#utility.yul\":6849:6856   */\n      dup5\n        /* \"#utility.yul\":6845:6868   */\n      sub\n        /* \"#utility.yul\":6841:6873   */\n      slt\n        /* \"#utility.yul\":6838:6890   */\n      iszero\n      tag_329\n      jumpi\n        /* \"#utility.yul\":6886:6887   */\n      0x00\n        /* \"#utility.yul\":6883:6884   */\n      dup1\n        /* \"#utility.yul\":6876:6888   */\n      revert\n        /* \"#utility.yul\":6838:6890   */\n    tag_329:\n      pop\n        /* \"#utility.yul\":6909:6932   */\n      calldataload\n      swap2\n        /* \"#utility.yul\":6758:6938   */\n      swap1\n      pop\n      jump\t// out\n        /* \"#utility.yul\":7190:7933   */\n    tag_68:\n        /* \"#utility.yul\":7297:7303   */\n      0x00\n        /* \"#utility.yul\":7305:7311   */\n      dup1\n        /* \"#utility.yul\":7313:7319   */\n      0x00\n        /* \"#utility.yul\":7366:7368   */\n      0x60\n        /* \"#utility.yul\":7354:7363   */\n      dup5\n        /* \"#utility.yul\":7345:7352   */\n      dup7\n        /* \"#utility.yul\":7341:7364   */\n      sub\n        /* \"#utility.yul\":7337:7369   */\n      slt\n        /* \"#utility.yul\":7334:7386   */\n      iszero\n      tag_332\n      jumpi\n        /* \"#utility.yul\":7382:7383   */\n      0x00\n        /* \"#utility.yul\":7379:7380   */\n      dup1\n        /* \"#utility.yul\":7372:7384   */\n      revert\n        /* \"#utility.yul\":7334:7386   */\n    tag_332:\n        /* \"#utility.yul\":7422:7431   */\n      dup4\n        /* \"#utility.yul\":7409:7432   */\n      calldataload\n        /* \"#utility.yul\":7451:7469   */\n      0xffffffffffffffff\n        /* \"#utility.yul\":7492:7494   */\n      dup1\n        /* \"#utility.yul\":7484:7490   */\n      dup3\n        /* \"#utility.yul\":7481:7495   */\n      gt\n        /* \"#utility.yul\":7478:7512   */\n      iszero\n      tag_333\n      jumpi\n        /* \"#utility.yul\":7508:7509   */\n      0x00\n        /* \"#utility.yul\":7505:7506   */\n      dup1\n        /* \"#utility.yul\":7498:7510   */\n      revert\n        /* \"#utility.yul\":7478:7512   */\n    tag_333:\n        /* \"#utility.yul\":7531:7581   */\n      tag_334\n        /* \"#utility.yul\":7573:7580   */\n      dup8\n        /* \"#utility.yul\":7564:7570   */\n      dup4\n        /* \"#utility.yul\":7553:7562   */\n      dup9\n        /* \"#utility.yul\":7549:7571   */\n      add\n        /* \"#utility.yul\":7531:7581   */\n      tag_272\n      jump\t// in\n    tag_334:\n        /* \"#utility.yul\":7521:7581   */\n      swap5\n      pop\n        /* \"#utility.yul\":7634:7636   */\n      0x20\n        /* \"#utility.yul\":7623:7632   */\n      dup7\n        /* \"#utility.yul\":7619:7637   */\n      add\n        /* \"#utility.yul\":7606:7638   */\n      calldataload\n        /* \"#utility.yul\":7590:7638   */\n      swap2\n      pop\n        /* \"#utility.yul\":7663:7665   */\n      dup1\n        /* \"#utility.yul\":7653:7661   */\n      dup3\n        /* \"#utility.yul\":7650:7666   */\n      gt\n        /* \"#utility.yul\":7647:7683   */\n      iszero\n      tag_335\n      jumpi\n        /* \"#utility.yul\":7679:7680   */\n      0x00\n        /* \"#utility.yul\":7676:7677   */\n      dup1\n        /* \"#utility.yul\":7669:7681   */\n      revert\n        /* \"#utility.yul\":7647:7683   */\n    tag_335:\n        /* \"#utility.yul\":7702:7754   */\n      tag_336\n        /* \"#utility.yul\":7746:7753   */\n      dup8\n        /* \"#utility.yul\":7735:7743   */\n      dup4\n        /* \"#utility.yul\":7724:7733   */\n      dup9\n        /* \"#utility.yul\":7720:7744   */\n      add\n        /* \"#utility.yul\":7702:7754   */\n      tag_272\n      jump\t// in\n    tag_336:\n        /* \"#utility.yul\":7692:7754   */\n      swap4\n      pop\n        /* \"#utility.yul\":7807:7809   */\n      0x40\n        /* \"#utility.yul\":7796:7805   */\n      dup7\n        /* \"#utility.yul\":7792:7810   */\n      add\n        /* \"#utility.yul\":7779:7811   */\n      calldataload\n        /* \"#utility.yul\":7763:7811   */\n      swap2\n      pop\n        /* \"#utility.yul\":7836:7838   */\n      dup1\n        /* \"#utility.yul\":7826:7834   */\n      dup3\n        /* \"#utility.yul\":7823:7839   */\n      gt\n        /* \"#utility.yul\":7820:7856   */\n      iszero\n      tag_337\n      jumpi\n        /* \"#utility.yul\":7852:7853   */\n      0x00\n        /* \"#utility.yul\":7849:7850   */\n      dup1\n        /* \"#utility.yul\":7842:7854   */\n      revert\n        /* \"#utility.yul\":7820:7856   */\n    tag_337:\n      pop\n        /* \"#utility.yul\":7875:7927   */\n      tag_338\n        /* \"#utility.yul\":7919:7926   */\n      dup7\n        /* \"#utility.yul\":7908:7916   */\n      dup3\n        /* \"#utility.yul\":7897:7906   */\n      dup8\n        /* \"#utility.yul\":7893:7917   */\n      add\n        /* \"#utility.yul\":7875:7927   */\n      tag_272\n      jump\t// in\n    tag_338:\n        /* \"#utility.yul\":7865:7927   */\n      swap2\n      pop\n      pop\n        /* \"#utility.yul\":7190:7933   */\n      swap3\n      pop\n      swap3\n      pop\n      swap3\n      jump\t// out\n        /* \"#utility.yul\":7938:8260   */\n    tag_73:\n        /* \"#utility.yul\":8007:8013   */\n      0x00\n        /* \"#utility.yul\":8060:8062   */\n      0x20\n        /* \"#utility.yul\":8048:8057   */\n      dup3\n        /* \"#utility.yul\":8039:8046   */\n      dup5\n        /* \"#utility.yul\":8035:8058   */\n      sub\n        /* \"#utility.yul\":8031:8063   */\n      slt\n        /* \"#utility.yul\":8028:8080   */\n      iszero\n      tag_340\n      jumpi\n        /* \"#utility.yul\":8076:8077   */\n      0x00\n        /* \"#utility.yul\":8073:8074   */\n      dup1\n        /* \"#utility.yul\":8066:8078   */\n      revert\n        /* \"#utility.yul\":8028:8080   */\n    tag_340:\n        /* \"#utility.yul\":8116:8125   */\n      dup2\n        /* \"#utility.yul\":8103:8126   */\n      calldataload\n        /* \"#utility.yul\":8149:8167   */\n      0xffffffffffffffff\n        /* \"#utility.yul\":8141:8147   */\n      dup2\n        /* \"#utility.yul\":8138:8168   */\n      gt\n        /* \"#utility.yul\":8135:8185   */\n      iszero\n      tag_341\n      jumpi\n        /* \"#utility.yul\":8181:8182   */\n      0x00\n        /* \"#utility.yul\":8178:8179   */\n      dup1\n        /* \"#utility.yul\":8171:8183   */\n      revert\n        /* \"#utility.yul\":8135:8185   */\n    tag_341:\n        /* \"#utility.yul\":8204:8254   */\n      tag_342\n        /* \"#utility.yul\":8246:8253   */\n      dup5\n        /* \"#utility.yul\":8237:8243   */\n      dup3\n        /* \"#utility.yul\":8226:8235   */\n      dup6\n        /* \"#utility.yul\":8222:8244   */\n      add\n        /* \"#utility.yul\":8204:8254   */\n      tag_272\n      jump\t// in\n    tag_342:\n        /* \"#utility.yul\":8194:8254   */\n      swap5\n        /* \"#utility.yul\":7938:8260   */\n      swap4\n      pop\n      pop\n      pop\n      pop\n      jump\t// out\n        /* \"#utility.yul\":8457:9000   */\n    tag_82:\n        /* \"#utility.yul\":8545:8551   */\n      0x00\n        /* \"#utility.yul\":8553:8559   */\n      dup1\n        /* \"#utility.yul\":8606:8608   */\n      0x40\n        /* \"#utility.yul\":8594:8603   */\n      dup4\n        /* \"#utility.yul\":8585:8592   */\n      dup6\n        /* \"#utility.yul\":8581:8604   */\n      sub\n        /* \"#utility.yul\":8577:8609   */\n      slt\n        /* \"#utility.yul\":8574:8626   */\n      iszero\n      tag_345\n      jumpi\n        /* \"#utility.yul\":8622:8623   */\n      0x00\n        /* \"#utility.yul\":8619:8620   */\n      dup1\n        /* \"#utility.yul\":8612:8624   */\n      revert\n        /* \"#utility.yul\":8574:8626   */\n    tag_345:\n        /* \"#utility.yul\":8662:8671   */\n      dup3\n        /* \"#utility.yul\":8649:8672   */\n      calldataload\n        /* \"#utility.yul\":8691:8709   */\n      0xffffffffffffffff\n        /* \"#utility.yul\":8732:8734   */\n      dup1\n        /* \"#utility.yul\":8724:8730   */\n      dup3\n        /* \"#utility.yul\":8721:8735   */\n      gt\n        /* \"#utility.yul\":8718:8752   */\n      iszero\n      tag_346\n      jumpi\n        /* \"#utility.yul\":8748:8749   */\n      0x00\n        /* \"#utility.yul\":8745:8746   */\n      dup1\n        /* \"#utility.yul\":8738:8750   */\n      revert\n        /* \"#utility.yul\":8718:8752   */\n    tag_346:\n        /* \"#utility.yul\":8771:8821   */\n      tag_347\n        /* \"#utility.yul\":8813:8820   */\n      dup7\n        /* \"#utility.yul\":8804:8810   */\n      dup4\n        /* \"#utility.yul\":8793:8802   */\n      dup8\n        /* \"#utility.yul\":8789:8811   */\n      add\n        /* \"#utility.yul\":8771:8821   */\n      tag_272\n      jump\t// in\n    tag_347:\n        /* \"#utility.yul\":8761:8821   */\n      swap4\n      pop\n        /* \"#utility.yul\":8874:8876   */\n      0x20\n        /* \"#utility.yul\":8863:8872   */\n      dup6\n        /* \"#utility.yul\":8859:8877   */\n      add\n        /* \"#utility.yul\":8846:8878   */\n      calldataload\n        /* \"#utility.yul\":8830:8878   */\n      swap2\n      pop\n        /* \"#utility.yul\":8903:8905   */\n      dup1\n        /* \"#utility.yul\":8893:8901   */\n      dup3\n        /* \"#utility.yul\":8890:8906   */\n      gt\n        /* \"#utility.yul\":8887:8923   */\n      iszero\n      tag_348\n      jumpi\n        /* \"#utility.yul\":8919:8920   */\n      0x00\n        /* \"#utility.yul\":8916:8917   */\n      dup1\n        /* \"#utility.yul\":8909:8921   */\n      revert\n        /* \"#utility.yul\":8887:8923   */\n    tag_348:\n      pop\n        /* \"#utility.yul\":8942:8994   */\n      tag_349\n        /* \"#utility.yul\":8986:8993   */\n      dup6\n        /* \"#utility.yul\":8975:8983   */\n      dup3\n        /* \"#utility.yul\":8964:8973   */\n      dup7\n        /* \"#utility.yul\":8960:8984   */\n      add\n        /* \"#utility.yul\":8942:8994   */\n      tag_272\n      jump\t// in\n    tag_349:\n        /* \"#utility.yul\":8932:8994   */\n      swap2\n      pop\n      pop\n        /* \"#utility.yul\":8457:9000   */\n      swap3\n      pop\n      swap3\n      swap1\n      pop\n      jump\t// out\n        /* \"#utility.yul\":9005:9385   */\n    tag_91:\n        /* \"#utility.yul\":9084:9085   */\n      0x01\n        /* \"#utility.yul\":9080:9092   */\n      dup2\n      dup2\n      shr\n      swap1\n        /* \"#utility.yul\":9127:9139   */\n      dup3\n      and\n      dup1\n        /* \"#utility.yul\":9148:9209   */\n      tag_351\n      jumpi\n        /* \"#utility.yul\":9202:9206   */\n      0x7f\n        /* \"#utility.yul\":9194:9200   */\n      dup3\n        /* \"#utility.yul\":9190:9207   */\n      and\n        /* \"#utility.yul\":9180:9207   */\n      swap2\n      pop\n        /* \"#utility.yul\":9148:9209   */\n    tag_351:\n        /* \"#utility.yul\":9255:9257   */\n      0x20\n        /* \"#utility.yul\":9247:9253   */\n      dup3\n        /* \"#utility.yul\":9244:9258   */\n      lt\n        /* \"#utility.yul\":9224:9242   */\n      dup2\n        /* \"#utility.yul\":9221:9259   */\n      sub\n        /* \"#utility.yul\":9218:9379   */\n      tag_352\n      jumpi\n        /* \"#utility.yul\":9301:9311   */\n      0x4e487b71\n        /* \"#utility.yul\":9296:9299   */\n      0xe0\n        /* \"#utility.yul\":9292:9312   */\n      shl\n        /* \"#utility.yul\":9289:9290   */\n      0x00\n        /* \"#utility.yul\":9282:9313   */\n      mstore\n        /* \"#utility.yul\":9336:9340   */\n      0x22\n        /* \"#utility.yul\":9333:9334   */\n      0x04\n        /* \"#utility.yul\":9326:9341   */\n      mstore\n        /* \"#utility.yul\":9364:9368   */\n      0x24\n        /* \"#utility.yul\":9361:9362   */\n      0x00\n        /* \"#utility.yul\":9354:9369   */\n      revert\n        /* \"#utility.yul\":9218:9379   */\n    tag_352:\n      pop\n        /* \"#utility.yul\":9005:9385   */\n      swap2\n      swap1\n      pop\n      jump\t// out\n        /* \"#utility.yul\":10447:10574   */\n    tag_132:\n        /* \"#utility.yul\":10508:10518   */\n      0x4e487b71\n        /* \"#utility.yul\":10503:10506   */\n      0xe0\n        /* \"#utility.yul\":10499:10519   */\n      shl\n        /* \"#utility.yul\":10496:10497   */\n      0x00\n        /* \"#utility.yul\":10489:10520   */\n      mstore\n        /* \"#utility.yul\":10539:10543   */\n      0x32\n        /* \"#utility.yul\":10536:10537   */\n      0x04\n        /* \"#utility.yul\":10529:10544   */\n      mstore\n        /* \"#utility.yul\":10563:10567   */\n      0x24\n        /* \"#utility.yul\":10560:10561   */\n      0x00\n        /* \"#utility.yul\":10553:10568   */\n      revert\n        /* \"#utility.yul\":10930:11162   */\n    tag_189:\n        /* \"#utility.yul\":10969:10972   */\n      0x00\n        /* \"#utility.yul\":10990:11007   */\n      0x01\n      dup3\n      add\n        /* \"#utility.yul\":10987:11127   */\n      tag_359\n      jumpi\n        /* \"#utility.yul\":11049:11059   */\n      0x4e487b71\n        /* \"#utility.yul\":11044:11047   */\n      0xe0\n        /* \"#utility.yul\":11040:11060   */\n      shl\n        /* \"#utility.yul\":11037:11038   */\n      0x00\n        /* \"#utility.yul\":11030:11061   */\n      mstore\n        /* \"#utility.yul\":11084:11088   */\n      0x11\n        /* \"#utility.yul\":11081:11082   */\n      0x04\n        /* \"#utility.yul\":11074:11089   */\n      mstore\n        /* \"#utility.yul\":11112:11116   */\n      0x24\n        /* \"#utility.yul\":11109:11110   */\n      0x00\n        /* \"#utility.yul\":11102:11117   */\n      revert\n        /* \"#utility.yul\":10987:11127   */\n    tag_359:\n      pop\n        /* \"#utility.yul\":11154:11155   */\n      0x01\n        /* \"#utility.yul\":11143:11156   */\n      add\n      swap1\n        /* \"#utility.yul\":10930:11162   */\n      jump\t// out\n\n    auxdata: 0xa2646970667358221220f56360a677f4fa8591356951fcfa5694d32acf65a11a4c5f85414100ccb46f1f64736f6c634300080d0033\n}\n",
    "bytecode": {
      "linkReferences": {},
      "object": "60806040526000600155600060025534801561001a57600080fd5b50600080546001600160a01b03191633179055611c258061003c6000396000f3fe6080604052600436106100e85760003560e01c8063625550c61161008a57806390a192771161005957806390a192771461028d578063a28a795f146102a0578063abb96304146102c0578063b7b090ee146102f057600080fd5b8063625550c61461020d57806369a104b3146102205780638bd03dcf146102425780638da5cb5b1461025557600080fd5b806324600fc3116100c657806324600fc3146101b957806355c39aa1146101c15780635d9a65d0146101d65780635ed75341146101eb57600080fd5b806306228090146100ed578063127d87db1461016e578063177169e214610199575b600080fd5b3480156100f957600080fd5b5061016c610108366004611695565b6001600160a01b039182166000908152600860209081526040808320600190810180549182018155845282842001805473ffffffffffffffffffffffffffffffffffffffff191694909516938417909455918152600990915220805460ff19169055565b005b34801561017a57600080fd5b50610183610303565b6040516101909190611715565b60405180910390f35b3480156101a557600080fd5b5061016c6101b4366004611837565b610689565b61016c610721565b3480156101cd57600080fd5b5061016c6107aa565b3480156101e257600080fd5b5061016c610858565b3480156101f757600080fd5b50610200610954565b6040516101909190611859565b61016c61021b366004611949565b610a27565b34801561022c57600080fd5b50610235610f6d565b6040516101909190611a23565b61016c610250366004611a36565b611068565b34801561026157600080fd5b50600054610275906001600160a01b031681565b6040516001600160a01b039091168152602001610190565b61016c61029b366004611a4f565b611159565b3480156102ac57600080fd5b5061016c6102bb366004611ad7565b6112f0565b3480156102cc57600080fd5b503360009081526009602052604090205460ff166040519015158152602001610190565b61016c6102fe366004611b14565b611378565b60606004805480602002602001604051908101604052809291908181526020016000905b828210156106805783829060005260206000209060080201604051806101400160405290816000820154815260200160018201805461036590611b78565b80601f016020809104026020016040519081016040528092919081815260200182805461039190611b78565b80156103de5780601f106103b3576101008083540402835291602001916103de565b820191906000526020600020905b8154815290600101906020018083116103c157829003601f168201915b505050505081526020016002820180546103f790611b78565b80601f016020809104026020016040519081016040528092919081815260200182805461042390611b78565b80156104705780601f1061044557610100808354040283529160200191610470565b820191906000526020600020905b81548152906001019060200180831161045357829003601f168201915b5050505050815260200160038201805461048990611b78565b80601f01602080910402602001604051908101604052809291908181526020018280546104b590611b78565b80156105025780601f106104d757610100808354040283529160200191610502565b820191906000526020600020905b8154815290600101906020018083116104e557829003601f168201915b5050505050815260200160048201805461051b90611b78565b80601f016020809104026020016040519081016040528092919081815260200182805461054790611b78565b80156105945780601f1061056957610100808354040283529160200191610594565b820191906000526020600020905b81548152906001019060200180831161057757829003601f168201915b505050505081526020016005820180546105ad90611b78565b80601f01602080910402602001604051908101604052809291908181526020018280546105d990611b78565b80156106265780601f106105fb57610100808354040283529160200191610626565b820191906000526020600020905b81548152906001019060200180831161060957829003601f168201915b5050509183525050600682015460208083019190915260079092015460ff80821615156040840152610100820416151560608301526201000090046001600160a01b03166080909101529082526001929092019101610327565b50505050905090565b336000818152600560205260409020600701546201000090046001600160a01b0316146106fd5760405162461bcd60e51b815260206004820152601360248201527f596f752063616e7420616363657074207265710000000000000000000000000060448201526064015b60405180910390fd5b6001600160a01b03166000908152600960205260409020805460ff19166001179055565b6000546001600160a01b0316331461077b5760405162461bcd60e51b815260206004820152601760248201527f4f6e6c79206f776e65722063616e20776974686472617700000000000000000060448201526064016106f4565b60405133904780156108fc02916000818181858888f193505050501580156107a7573d6000803e3d6000fd5b50565b336000908152600a602052604090205460ff16151560011461080e5760405162461bcd60e51b815260206004820152601c60248201527f4e6f206861636b6174686f6e206f6e20796f757220616464726573730000000060448201526064016106f4565b336000908152600660205260409020546004805460019290811061083457610834611bb2565b60009182526020909120600890910201600701805460ff1916911515919091179055565b336000908152600a602052604090205460ff1615156001146108bc5760405162461bcd60e51b815260206004820152601c60248201527f4e6f206861636b6174686f6e206f6e20796f757220616464726573730000000060448201526064016106f4565b336000908152600660205260408120546004805490919081106108e1576108e1611bb2565b60009182526020808320600892909202909101600701805460ff191693151593909317909255338152600690915260409020546004805460019290811061092a5761092a611bb2565b906000526020600020906008020160070160016101000a81548160ff021916908315150217905550565b336000908152600a602052604090205460609060ff1615156001146109bb5760405162461bcd60e51b815260206004820152601c60248201527f4e6f206861636b6174686f6e206f6e20796f757220616464726573730000000060448201526064016106f4565b3360009081526008602090815260409182902060010180548351818402810184019094528084529091830182828015610a1d57602002820191906000526020600020905b81546001600160a01b031681526001909101906020018083116109ff575b5050505050905090565b66470de4df820000341015610a775760405162461bcd60e51b8152602060048201526016602482015275029b2b73210181718189022aa241037b91036b7b932960551b60448201526064016106f4565b336000908152600a602052604090205460ff1615610b265733600090815260066020526040812054600480549091908110610ab457610ab4611bb2565b60009182526020808320600892909202909101600701805460ff1916931515939093179092553381526006909152604090205460048054600192908110610afd57610afd611bb2565b906000526020600020906008020160070160016101000a81548160ff0219169083151502179055505b604080516101408101825260018054825260208083018a8152938301899052606083018890526080830187905260a0830186905260c08301859052600060e084018190526101008401819052336101208501526004805493840181559052825160089092027f8a35acfbc15ff81a39ae7d344fd709f28e8600b4aa8c65c6b64bfe7fe36bd19b81019283559351805193949293610bea937f8a35acfbc15ff81a39ae7d344fd709f28e8600b4aa8c65c6b64bfe7fe36bd19c019291909101906114c4565b5060408201518051610c069160028401916020909101906114c4565b5060608201518051610c229160038401916020909101906114c4565b5060808201518051610c3e9160048401916020909101906114c4565b5060a08201518051610c5a9160058401916020909101906114c4565b5060c0820151600682015560e082015160079091018054610100808501516101209095015161ffff1990921693151561ff001916939093179315159092029290921775ffffffffffffffffffffffffffffffffffffffff00001916620100006001600160a01b0390921691909102179055600154600480549091908110610ce357610ce3611bb2565b60009182526020808320338452600590915260409092206008909102909101805482556001808201805492939291830191610d1d90611b78565b610d28929190611548565b506002820181600201908054610d3d90611b78565b610d48929190611548565b506003820181600301908054610d5d90611b78565b610d68929190611548565b506004820181600401908054610d7d90611b78565b610d88929190611548565b506005820181600501908054610d9d90611b78565b610da8929190611548565b50600682810154828201556007928301805493909201805460ff948516151560ff19821681178355845461010090819004909616151590950261ff001990951661ffff19909116179390931780845591546001600160a01b036201000091829004160275ffffffffffffffffffffffffffffffffffffffff00001990921691909117909155600180543360009081526020938452604080822092909255815180830190925260028054835260608386018181526003805496870181559093528351949091027fc2575a0e9e593c00f959f8c92f12db2869c3395a3b0502d05e2516446f71f85b8101948555915180519195939493610ecb937fc2575a0e9e593c00f959f8c92f12db2869c3395a3b0502d05e2516446f71f85c01929101906115c3565b505050600360025481548110610ee357610ee3611bb2565b600091825260208083203384526008909152604090922060029091029091018054825560018082018054929392610f1d9284019190611625565b5050336000908152600a60205260408120805460ff191660019081179091558054925090610f4a83611bc8565b909155505060028054906000610f5f83611bc8565b919050555050505050505050565b336000908152600a602052604090205460609060ff161515600114610fd45760405162461bcd60e51b815260206004820152601c60248201527f4e6f206861636b6174686f6e206f6e20796f757220616464726573730000000060448201526064016106f4565b3360009081526007602052604090208054610fee90611b78565b80601f016020809104026020016040519081016040528092919081815260200182805461101a90611b78565b8015610a1d5780601f1061103c57610100808354040283529160200191610a1d565b820191906000526020600020905b81548152906001019060200180831161104a57509395945050505050565b662386f26fc100003410156110b85760405162461bcd60e51b8152602060048201526016602482015275029b2b73210181718189022aa241037b91036b7b932960551b60448201526064016106f4565b336000908152600a602052604090205460ff16151560011461111c5760405162461bcd60e51b815260206004820152601c60248201527f4e6f206861636b6174686f6e206f6e20796f757220616464726573730000000060448201526064016106f4565b3360009081526006602052604090205460048054839290811061114157611141611bb2565b90600052602060002090600802016006018190555050565b662386f26fc100003410156111a95760405162461bcd60e51b8152602060048201526016602482015275029b2b73210181718189022aa241037b91036b7b932960551b60448201526064016106f4565b336000908152600a602052604090205460ff16151560011461120d5760405162461bcd60e51b815260206004820152601c60248201527f4e6f206861636b6174686f6e206f6e20796f757220616464726573730000000060448201526064016106f4565b3360009081526006602052604090205460048054859290811061123257611232611bb2565b906000526020600020906008020160020190805190602001906112569291906114c4565b503360009081526006602052604090205460048054849290811061127c5761127c611bb2565b906000526020600020906008020160030190805190602001906112a09291906114c4565b50336000908152600660205260409020546004805483929081106112c6576112c6611bb2565b906000526020600020906008020160040190805190602001906112ea9291906114c4565b50505050565b336000908152600a602052604090205460ff1615156001146113545760405162461bcd60e51b815260206004820152601c60248201527f4e6f206861636b6174686f6e206f6e20796f757220616464726573730000000060448201526064016106f4565b3360009081526007602090815260409091208251611374928401906114c4565b5050565b662386f26fc100003410156113c85760405162461bcd60e51b8152602060048201526016602482015275029b2b73210181718189022aa241037b91036b7b932960551b60448201526064016106f4565b336000908152600a602052604090205460ff16151560011461142c5760405162461bcd60e51b815260206004820152601c60248201527f4e6f206861636b6174686f6e206f6e20796f757220616464726573730000000060448201526064016106f4565b3360009081526006602052604090205460048054849290811061145157611451611bb2565b906000526020600020906008020160010190805190602001906114759291906114c4565b503360009081526006602052604090205460048054839290811061149b5761149b611bb2565b906000526020600020906008020160050190805190602001906114bf9291906114c4565b505050565b8280546114d090611b78565b90600052602060002090601f0160209004810192826114f25760008555611538565b82601f1061150b57805160ff1916838001178555611538565b82800160010185558215611538579182015b8281111561153857825182559160200191906001019061151d565b50611544929150611664565b5090565b82805461155490611b78565b90600052602060002090601f0160209004810192826115765760008555611538565b82601f106115875780548555611538565b8280016001018555821561153857600052602060002091601f016020900482015b828111156115385782548255916001019190600101906115a8565b828054828255906000526020600020908101928215611538579160200282015b82811115611538578251825473ffffffffffffffffffffffffffffffffffffffff19166001600160a01b039091161782556020909201916001909101906115e3565b828054828255906000526020600020908101928215611538576000526020600020918201828111156115385782548255916001019190600101906115a8565b5b808211156115445760008155600101611665565b80356001600160a01b038116811461169057600080fd5b919050565b600080604083850312156116a857600080fd5b6116b183611679565b91506116bf60208401611679565b90509250929050565b6000815180845260005b818110156116ee576020818501810151868301820152016116d2565b81811115611700576000602083870101525b50601f01601f19169290920160200192915050565b60006020808301818452808551808352604092508286019150828160051b87010184880160005b8381101561182957603f1989840301855281516101408151855288820151818a87015261176b828701826116c8565b915050878201518582038987015261178382826116c8565b9150506060808301518683038288015261179d83826116c8565b92505050608080830151868303828801526117b883826116c8565b9250505060a080830151868303828801526117d383826116c8565b9250505060c080830151818701525060e0808301516117f58288018215159052565b505061010082810151151590860152610120918201516001600160a01b03169190940152938601939086019060010161173c565b509098975050505050505050565b60006020828403121561184957600080fd5b61185282611679565b9392505050565b6020808252825182820181905260009190848201906040850190845b8181101561189a5783516001600160a01b031683529284019291840191600101611875565b50909695505050505050565b634e487b7160e01b600052604160045260246000fd5b600082601f8301126118cd57600080fd5b813567ffffffffffffffff808211156118e8576118e86118a6565b604051601f8301601f19908116603f01168101908282118183101715611910576119106118a6565b8160405283815286602085880101111561192957600080fd5b836020870160208301376000602085830101528094505050505092915050565b60008060008060008060c0878903121561196257600080fd5b863567ffffffffffffffff8082111561197a57600080fd5b6119868a838b016118bc565b9750602089013591508082111561199c57600080fd5b6119a88a838b016118bc565b965060408901359150808211156119be57600080fd5b6119ca8a838b016118bc565b955060608901359150808211156119e057600080fd5b6119ec8a838b016118bc565b94506080890135915080821115611a0257600080fd5b50611a0f89828a016118bc565b92505060a087013590509295509295509295565b60208152600061185260208301846116c8565b600060208284031215611a4857600080fd5b5035919050565b600080600060608486031215611a6457600080fd5b833567ffffffffffffffff80821115611a7c57600080fd5b611a88878388016118bc565b94506020860135915080821115611a9e57600080fd5b611aaa878388016118bc565b93506040860135915080821115611ac057600080fd5b50611acd868287016118bc565b9150509250925092565b600060208284031215611ae957600080fd5b813567ffffffffffffffff811115611b0057600080fd5b611b0c848285016118bc565b949350505050565b60008060408385031215611b2757600080fd5b823567ffffffffffffffff80821115611b3f57600080fd5b611b4b868387016118bc565b93506020850135915080821115611b6157600080fd5b50611b6e858286016118bc565b9150509250929050565b600181811c90821680611b8c57607f821691505b602082108103611bac57634e487b7160e01b600052602260045260246000fd5b50919050565b634e487b7160e01b600052603260045260246000fd5b600060018201611be857634e487b7160e01b600052601160045260246000fd5b506001019056fea2646970667358221220f56360a677f4fa8591356951fcfa5694d32acf65a11a4c5f85414100ccb46f1f64736f6c634300080d0033",
      "opcodes": "PUSH1 0x80 PUSH1 0x40 MSTORE PUSH1 0x0 PUSH1 0x1 SSTORE PUSH1 0x0 PUSH1 0x2 SSTORE CALLVALUE DUP1 ISZERO PUSH2 0x1A JUMPI PUSH1 0x0 DUP1 REVERT JUMPDEST POP PUSH1 0x0 DUP1 SLOAD PUSH1 0x1 PUSH1 0x1 PUSH1 0xA0 SHL SUB NOT AND CALLER OR SWAP1 SSTORE PUSH2 0x1C25 DUP1 PUSH2 0x3C PUSH1 0x0 CODECOPY PUSH1 0x0 RETURN INVALID PUSH1 0x80 PUSH1 0x40 MSTORE PUSH1 0x4 CALLDATASIZE LT PUSH2 0xE8 JUMPI PUSH1 0x0 CALLDATALOAD PUSH1 0xE0 SHR DUP1 PUSH4 0x625550C6 GT PUSH2 0x8A JUMPI DUP1 PUSH4 0x90A19277 GT PUSH2 0x59 JUMPI DUP1 PUSH4 0x90A19277 EQ PUSH2 0x28D JUMPI DUP1 PUSH4 0xA28A795F EQ PUSH2 0x2A0 JUMPI DUP1 PUSH4 0xABB96304 EQ PUSH2 0x2C0 JUMPI DUP1 PUSH4 0xB7B090EE EQ PUSH2 0x2F0 JUMPI PUSH1 0x0 DUP1 REVERT JUMPDEST DUP1 PUSH4 0x625550C6 EQ PUSH2 0x20D JUMPI DUP1 PUSH4 0x69A104B3 EQ PUSH2 0x220 JUMPI DUP1 PUSH4 0x8BD03DCF EQ PUSH2 0x242 JUMPI DUP1 PUSH4 0x8DA5CB5B EQ PUSH2 0x255 JUMPI PUSH1 0x0 DUP1 REVERT JUMPDEST DUP1 PUSH4 0x24600FC3 GT PUSH2 0xC6 JUMPI DUP1 PUSH4 0x24600FC3 EQ PUSH2 0x1B9 JUMPI DUP1 PUSH4 0x55C39AA1 EQ PUSH2 0x1C1 JUMPI DUP1 PUSH4 0x5D9A65D0 EQ PUSH2 0x1D6 JUMPI DUP1 PUSH4 0x5ED75341 EQ PUSH2 0x1EB JUMPI PUSH1 0x0 DUP1 REVERT JUMPDEST DUP1 PUSH4 0x6228090 EQ PUSH2 0xED JUMPI DUP1 PUSH4 0x127D87DB EQ PUSH2 0x16E JUMPI DUP1 PUSH4 0x177169E2 EQ PUSH2 0x199 JUMPI JUMPDEST PUSH1 0x0 DUP1 REVERT JUMPDEST CALLVALUE DUP1 ISZERO PUSH2 0xF9 JUMPI PUSH1 0x0 DUP1 REVERT JUMPDEST POP PUSH2 0x16C PUSH2 0x108 CALLDATASIZE PUSH1 0x4 PUSH2 0x1695 JUMP JUMPDEST PUSH1 0x1 PUSH1 0x1 PUSH1 0xA0 SHL SUB SWAP2 DUP3 AND PUSH1 0x0 SWAP1 DUP2 MSTORE PUSH1 0x8 PUSH1 0x20 SWAP1 DUP2 MSTORE PUSH1 0x40 DUP1 DUP4 KECCAK256 PUSH1 0x1 SWAP1 DUP2 ADD DUP1 SLOAD SWAP2 DUP3 ADD DUP2 SSTORE DUP5 MSTORE DUP3 DUP5 KECCAK256 ADD DUP1 SLOAD PUSH20 0xFFFFFFFFFFFFFFFFFFFFFFFFFFFFFFFFFFFFFFFF NOT AND SWAP5 SWAP1 SWAP6 AND SWAP4 DUP5 OR SWAP1 SWAP5 SSTORE SWAP2 DUP2 MSTORE PUSH1 0x9 SWAP1 SWAP2 MSTORE KECCAK256 DUP1 SLOAD PUSH1 0xFF NOT AND SWAP1 SSTORE JUMP JUMPDEST STOP JUMPDEST CALLVALUE DUP1 ISZERO PUSH2 0x17A JUMPI PUSH1 0x0 DUP1 REVERT JUMPDEST POP PUSH2 0x183 PUSH2 0x303 JUMP JUMPDEST PUSH1 0x40 MLOAD PUSH2 0x190 SWAP2 SWAP1 PUSH2 0x1715 JUMP JUMPDEST PUSH1 0x40 MLOAD DUP1 SWAP2 SUB SWAP1 RETURN JUMPDEST CALLVALUE DUP1 ISZERO PUSH2 0x1A5 JUMPI PUSH1 0x0 DUP1 REVERT JUMPDEST POP PUSH2 0x16C PUSH2 0x1B4 CALLDATASIZE PUSH1 0x4 PUSH2 0x1837 JUMP JUMPDEST PUSH2 0x689 JUMP JUMPDEST PUSH2 0x16C PUSH2 0x721 JUMP JUMPDEST CALLVALUE DUP1 ISZERO PUSH2 0x1CD JUMPI PUSH1 0x0 DUP1 REVERT JUMPDEST POP PUSH2 0x16C PUSH2 0x7AA JUMP JUMPDEST CALLVALUE DUP1 ISZERO PUSH2 0x1E2 JUMPI PUSH1 0x0 DUP1 REVERT JUMPDEST POP PUSH2 0x16C PUSH2 0x858 JUMP JUMPDEST CALLVALUE DUP1 ISZERO PUSH2 0x1F7 JUMPI PUSH1 0x0 DUP1 REVERT JUMPDEST POP PUSH2 0x200 PUSH2 0x954 JUMP JUMPDEST PUSH1 0x40 MLOAD PUSH2 0x190 SWAP2 SWAP1 PUSH2 0x1859 JUMP JUMPDEST PUSH2 0x16C PUSH2 0x21B CALLDATASIZE PUSH1 0x4 PUSH2 0x1949 JUMP JUMPDEST PUSH2 0xA27 JUMP JUMPDEST CALLVALUE DUP1 ISZERO PUSH2 0x22C JUMPI PUSH1 0x0 DUP1 REVERT JUMPDEST POP PUSH2 0x235 PUSH2 0xF6D JUMP JUMPDEST PUSH1 0x40 MLOAD PUSH2 0x190 SWAP2 SWAP1 PUSH2 0x1A23 JUMP JUMPDEST PUSH2 0x16C PUSH2 0x250 CALLDATASIZE PUSH1 0x4 PUSH2 0x1A36 JUMP JUMPDEST PUSH2 0x1068 JUMP JUMPDEST CALLVALUE DUP1 ISZERO PUSH2 0x261 JUMPI PUSH1 0x0 DUP1 REVERT JUMPDEST POP PUSH1 0x0 SLOAD PUSH2 0x275 SWAP1 PUSH1 0x1 PUSH1 0x1 PUSH1 0xA0 SHL SUB AND DUP2 JUMP JUMPDEST PUSH1 0x40 MLOAD PUSH1 0x1 PUSH1 0x1 PUSH1 0xA0 SHL SUB SWAP1 SWAP2 AND DUP2 MSTORE PUSH1 0x20 ADD PUSH2 0x190 JUMP JUMPDEST PUSH2 0x16C PUSH2 0x29B CALLDATASIZE PUSH1 0x4 PUSH2 0x1A4F JUMP JUMPDEST PUSH2 0x1159 JUMP JUMPDEST CALLVALUE DUP1 ISZERO PUSH2 0x2AC JUMPI PUSH1 0x0 DUP1 REVERT JUMPDEST POP PUSH2 0x16C PUSH2 0x2BB CALLDATASIZE PUSH1 0x4 PUSH2 0x1AD7 JUMP JUMPDEST PUSH2 0x12F0 JUMP JUMPDEST CALLVALUE DUP1 ISZERO PUSH2 0x2CC JUMPI PUSH1 0x0 DUP1 REVERT JUMPDEST POP CALLER PUSH1 0x0 SWAP1 DUP2 MSTORE PUSH1 0x9 PUSH1 0x20 MSTORE PUSH1 0x40 SWAP1 KECCAK256 SLOAD PUSH1 0xFF AND PUSH1 0x40 MLOAD SWAP1 ISZERO ISZERO DUP2 MSTORE PUSH1 0x20 ADD PUSH2 0x190 JUMP JUMPDEST PUSH2 0x16C PUSH2 0x2FE CALLDATASIZE PUSH1 0x4 PUSH2 0x1B14 JUMP JUMPDEST PUSH2 0x1378 JUMP JUMPDEST PUSH1 0x60 PUSH1 0x4 DUP1 SLOAD DUP1 PUSH1 0x20 MUL PUSH1 0x20 ADD PUSH1 0x40 MLOAD SWAP1 DUP2 ADD PUSH1 0x40 MSTORE DUP1 SWAP3 SWAP2 SWAP1 DUP2 DUP2 MSTORE PUSH1 0x20 ADD PUSH1 0x0 SWAP1 JUMPDEST DUP3 DUP3 LT ISZERO PUSH2 0x680 JUMPI DUP4 DUP3 SWAP1 PUSH1 0x0 MSTORE PUSH1 0x20 PUSH1 0x0 KECCAK256 SWAP1 PUSH1 0x8 MUL ADD PUSH1 0x40 MLOAD DUP1 PUSH2 0x140 ADD PUSH1 0x40 MSTORE SWAP1 DUP2 PUSH1 0x0 DUP3 ADD SLOAD DUP2 MSTORE PUSH1 0x20 ADD PUSH1 0x1 DUP3 ADD DUP1 SLOAD PUSH2 0x365 SWAP1 PUSH2 0x1B78 JUMP JUMPDEST DUP1 PUSH1 0x1F ADD PUSH1 0x20 DUP1 SWAP2 DIV MUL PUSH1 0x20 ADD PUSH1 0x40 MLOAD SWAP1 DUP2 ADD PUSH1 0x40 MSTORE DUP1 SWAP3 SWAP2 SWAP1 DUP2 DUP2 MSTORE PUSH1 0x20 ADD DUP3 DUP1 SLOAD PUSH2 0x391 SWAP1 PUSH2 0x1B78 JUMP JUMPDEST DUP1 ISZERO PUSH2 0x3DE JUMPI DUP1 PUSH1 0x1F LT PUSH2 0x3B3 JUMPI PUSH2 0x100 DUP1 DUP4 SLOAD DIV MUL DUP4 MSTORE SWAP2 PUSH1 0x20 ADD SWAP2 PUSH2 0x3DE JUMP JUMPDEST DUP3 ADD SWAP2 SWAP1 PUSH1 0x0 MSTORE PUSH1 0x20 PUSH1 0x0 KECCAK256 SWAP1 JUMPDEST DUP2 SLOAD DUP2 MSTORE SWAP1 PUSH1 0x1 ADD SWAP1 PUSH1 0x20 ADD DUP1 DUP4 GT PUSH2 0x3C1 JUMPI DUP3 SWAP1 SUB PUSH1 0x1F AND DUP3 ADD SWAP2 JUMPDEST POP POP POP POP POP DUP2 MSTORE PUSH1 0x20 ADD PUSH1 0x2 DUP3 ADD DUP1 SLOAD PUSH2 0x3F7 SWAP1 PUSH2 0x1B78 JUMP JUMPDEST DUP1 PUSH1 0x1F ADD PUSH1 0x20 DUP1 SWAP2 DIV MUL PUSH1 0x20 ADD PUSH1 0x40 MLOAD SWAP1 DUP2 ADD PUSH1 0x40 MSTORE DUP1 SWAP3 SWAP2 SWAP1 DUP2 DUP2 MSTORE PUSH1 0x20 ADD DUP3 DUP1 SLOAD PUSH2 0x423 SWAP1 PUSH2 0x1B78 JUMP JUMPDEST DUP1 ISZERO PUSH2 0x470 JUMPI DUP1 PUSH1 0x1F LT PUSH2 0x445 JUMPI PUSH2 0x100 DUP1 DUP4 SLOAD DIV MUL DUP4 MSTORE SWAP2 PUSH1 0x20 ADD SWAP2 PUSH2 0x470 JUMP JUMPDEST DUP3 ADD SWAP2 SWAP1 PUSH1 0x0 MSTORE PUSH1 0x20 PUSH1 0x0 KECCAK256 SWAP1 JUMPDEST DUP2 SLOAD DUP2 MSTORE SWAP1 PUSH1 0x1 ADD SWAP1 PUSH1 0x20 ADD DUP1 DUP4 GT PUSH2 0x453 JUMPI DUP3 SWAP1 SUB PUSH1 0x1F AND DUP3 ADD SWAP2 JUMPDEST POP POP POP POP POP DUP2 MSTORE PUSH1 0x20 ADD PUSH1 0x3 DUP3 ADD DUP1 SLOAD PUSH2 0x489 SWAP1 PUSH2 0x1B78 JUMP JUMPDEST DUP1 PUSH1 0x1F ADD PUSH1 0x20 DUP1 SWAP2 DIV MUL PUSH1 0x20 ADD PUSH1 0x40 MLOAD SWAP1 DUP2 ADD PUSH1 0x40 MSTORE DUP1 SWAP3 SWAP2 SWAP1 DUP2 DUP2 MSTORE PUSH1 0x20 ADD DUP3 DUP1 SLOAD PUSH2 0x4B5 SWAP1 PUSH2 0x1B78 JUMP JUMPDEST DUP1 ISZERO PUSH2 0x502 JUMPI DUP1 PUSH1 0x1F LT PUSH2 0x4D7 JUMPI PUSH2 0x100 DUP1 DUP4 SLOAD DIV MUL DUP4 MSTORE SWAP2 PUSH1 0x20 ADD SWAP2 PUSH2 0x502 JUMP JUMPDEST DUP3 ADD SWAP2 SWAP1 PUSH1 0x0 MSTORE PUSH1 0x20 PUSH1 0x0 KECCAK256 SWAP1 JUMPDEST DUP2 SLOAD DUP2 MSTORE SWAP1 PUSH1 0x1 ADD SWAP1 PUSH1 0x20 ADD DUP1 DUP4 GT PUSH2 0x4E5 JUMPI DUP3 SWAP1 SUB PUSH1 0x1F AND DUP3 ADD SWAP2 JUMPDEST POP POP POP POP POP DUP2 MSTORE PUSH1 0x20 ADD PUSH1 0x4 DUP3 ADD DUP1 SLOAD PUSH2 0x51B SWAP1 PUSH2 0x1B78 JUMP JUMPDEST DUP1 PUSH1 0x1F ADD PUSH1 0x20 DUP1 SWAP2 DIV MUL PUSH1 0x20 ADD PUSH1 0x40 MLOAD SWAP1 DUP2 ADD PUSH1 0x40 MSTORE DUP1 SWAP3 SWAP2 SWAP1 DUP2 DUP2 MSTORE PUSH1 0x20 ADD DUP3 DUP1 SLOAD PUSH2 0x547 SWAP1 PUSH2 0x1B78 JUMP JUMPDEST DUP1 ISZERO PUSH2 0x594 JUMPI DUP1 PUSH1 0x1F LT PUSH2 0x569 JUMPI PUSH2 0x100 DUP1 DUP4 SLOAD DIV MUL DUP4 MSTORE SWAP2 PUSH1 0x20 ADD SWAP2 PUSH2 0x594 JUMP JUMPDEST DUP3 ADD SWAP2 SWAP1 PUSH1 0x0 MSTORE PUSH1 0x20 PUSH1 0x0 KECCAK256 SWAP1 JUMPDEST DUP2 SLOAD DUP2 MSTORE SWAP1 PUSH1 0x1 ADD SWAP1 PUSH1 0x20 ADD DUP1 DUP4 GT PUSH2 0x577 JUMPI DUP3 SWAP1 SUB PUSH1 0x1F AND DUP3 ADD SWAP2 JUMPDEST POP POP POP POP POP DUP2 MSTORE PUSH1 0x20 ADD PUSH1 0x5 DUP3 ADD DUP1 SLOAD PUSH2 0x5AD SWAP1 PUSH2 0x1B78 JUMP JUMPDEST DUP1 PUSH1 0x1F ADD PUSH1 0x20 DUP1 SWAP2 DIV MUL PUSH1 0x20 ADD PUSH1 0x40 MLOAD SWAP1 DUP2 ADD PUSH1 0x40 MSTORE DUP1 SWAP3 SWAP2 SWAP1 DUP2 DUP2 MSTORE PUSH1 0x20 ADD DUP3 DUP1 SLOAD PUSH2 0x5D9 SWAP1 PUSH2 0x1B78 JUMP JUMPDEST DUP1 ISZERO PUSH2 0x626 JUMPI DUP1 PUSH1 0x1F LT PUSH2 0x5FB JUMPI PUSH2 0x100 DUP1 DUP4 SLOAD DIV MUL DUP4 MSTORE SWAP2 PUSH1 0x20 ADD SWAP2 PUSH2 0x626 JUMP JUMPDEST DUP3 ADD SWAP2 SWAP1 PUSH1 0x0 MSTORE PUSH1 0x20 PUSH1 0x0 KECCAK256 SWAP1 JUMPDEST DUP2 SLOAD DUP2 MSTORE SWAP1 PUSH1 0x1 ADD SWAP1 PUSH1 0x20 ADD DUP1 DUP4 GT PUSH2 0x609 JUMPI DUP3 SWAP1 SUB PUSH1 0x1F AND DUP3 ADD SWAP2 JUMPDEST POP POP POP SWAP2 DUP4 MSTORE POP POP PUSH1 0x6 DUP3 ADD SLOAD PUSH1 0x20 DUP1 DUP4 ADD SWAP2 SWAP1 SWAP2 MSTORE PUSH1 0x7 SWAP1 SWAP3 ADD SLOAD PUSH1 0xFF DUP1 DUP3 AND ISZERO ISZERO PUSH1 0x40 DUP5 ADD MSTORE PUSH2 0x100 DUP3 DIV AND ISZERO ISZERO PUSH1 0x60 DUP4 ADD MSTORE PUSH3 0x10000 SWAP1 DIV PUSH1 0x1 PUSH1 0x1 PUSH1 0xA0 SHL SUB AND PUSH1 0x80 SWAP1 SWAP2 ADD MSTORE SWAP1 DUP3 MSTORE PUSH1 0x1 SWAP3 SWAP1 SWAP3 ADD SWAP2 ADD PUSH2 0x327 JUMP JUMPDEST POP POP POP POP SWAP1 POP SWAP1 JUMP JUMPDEST CALLER PUSH1 0x0 DUP2 DUP2 MSTORE PUSH1 0x5 PUSH1 0x20 MSTORE PUSH1 0x40 SWAP1 KECCAK256 PUSH1 0x7 ADD SLOAD PUSH3 0x10000 SWAP1 DIV PUSH1 0x1 PUSH1 0x1 PUSH1 0xA0 SHL SUB AND EQ PUSH2 0x6FD JUMPI PUSH1 0x40 MLOAD PUSH3 0x461BCD PUSH1 0xE5 SHL DUP2 MSTORE PUSH1 0x20 PUSH1 0x4 DUP3 ADD MSTORE PUSH1 0x13 PUSH1 0x24 DUP3 ADD MSTORE PUSH32 0x596F752063616E74206163636570742072657100000000000000000000000000 PUSH1 0x44 DUP3 ADD MSTORE PUSH1 0x64 ADD JUMPDEST PUSH1 0x40 MLOAD DUP1 SWAP2 SUB SWAP1 REVERT JUMPDEST PUSH1 0x1 PUSH1 0x1 PUSH1 0xA0 SHL SUB AND PUSH1 0x0 SWAP1 DUP2 MSTORE PUSH1 0x9 PUSH1 0x20 MSTORE PUSH1 0x40 SWAP1 KECCAK256 DUP1 SLOAD PUSH1 0xFF NOT AND PUSH1 0x1 OR SWAP1 SSTORE JUMP JUMPDEST PUSH1 0x0 SLOAD PUSH1 0x1 PUSH1 0x1 PUSH1 0xA0 SHL SUB AND CALLER EQ PUSH2 0x77B JUMPI PUSH1 0x40 MLOAD PUSH3 0x461BCD PUSH1 0xE5 SHL DUP2 MSTORE PUSH1 0x20 PUSH1 0x4 DUP3 ADD MSTORE PUSH1 0x17 PUSH1 0x24 DUP3 ADD MSTORE PUSH32 0x4F6E6C79206F776E65722063616E207769746864726177000000000000000000 PUSH1 0x44 DUP3 ADD MSTORE PUSH1 0x64 ADD PUSH2 0x6F4 JUMP JUMPDEST PUSH1 0x40 MLOAD CALLER SWAP1 SELFBALANCE DUP1 ISZERO PUSH2 0x8FC MUL SWAP2 PUSH1 0x0 DUP2 DUP2 DUP2 DUP6 DUP9 DUP9 CALL SWAP4 POP POP POP POP ISZERO DUP1 ISZERO PUSH2 0x7A7 JUMPI RETURNDATASIZE PUSH1 0x0 DUP1 RETURNDATACOPY RETURNDATASIZE PUSH1 0x0 REVERT JUMPDEST POP JUMP JUMPDEST CALLER PUSH1 0x0 SWAP1 DUP2 MSTORE PUSH1 0xA PUSH1 0x20 MSTORE PUSH1 0x40 SWAP1 KECCAK256 SLOAD PUSH1 0xFF AND ISZERO ISZERO PUSH1 0x1 EQ PUSH2 0x80E JUMPI PUSH1 0x40 MLOAD PUSH3 0x461BCD PUSH1 0xE5 SHL DUP2 MSTORE PUSH1 0x20 PUSH1 0x4 DUP3 ADD MSTORE PUSH1 0x1C PUSH1 0x24 DUP3 ADD MSTORE PUSH32 0x4E6F206861636B6174686F6E206F6E20796F7572206164647265737300000000 PUSH1 0x44 DUP3 ADD MSTORE PUSH1 0x64 ADD PUSH2 0x6F4 JUMP JUMPDEST CALLER PUSH1 0x0 SWAP1 DUP2 MSTORE PUSH1 0x6 PUSH1 0x20 MSTORE PUSH1 0x40 SWAP1 KECCAK256 SLOAD PUSH1 0x4 DUP1 SLOAD PUSH1 0x1 SWAP3 SWAP1 DUP2 LT PUSH2 0x834 JUMPI PUSH2 0x834 PUSH2 0x1BB2 JUMP JUMPDEST PUSH1 0x0 SWAP2 DUP3 MSTORE PUSH1 0x20 SWAP1 SWAP2 KECCAK256 PUSH1 0x8 SWAP1 SWAP2 MUL ADD PUSH1 0x7 ADD DUP1 SLOAD PUSH1 0xFF NOT AND SWAP2 ISZERO ISZERO SWAP2 SWAP1 SWAP2 OR SWAP1 SSTORE JUMP JUMPDEST CALLER PUSH1 0x0 SWAP1 DUP2 MSTORE PUSH1 0xA PUSH1 0x20 MSTORE PUSH1 0x40 SWAP1 KECCAK256 SLOAD PUSH1 0xFF AND ISZERO ISZERO PUSH1 0x1 EQ PUSH2 0x8BC JUMPI PUSH1 0x40 MLOAD PUSH3 0x461BCD PUSH1 0xE5 SHL DUP2 MSTORE PUSH1 0x20 PUSH1 0x4 DUP3 ADD MSTORE PUSH1 0x1C PUSH1 0x24 DUP3 ADD MSTORE PUSH32 0x4E6F206861636B6174686F6E206F6E20796F7572206164647265737300000000 PUSH1 0x44 DUP3 ADD MSTORE PUSH1 0x64 ADD PUSH2 0x6F4 JUMP JUMPDEST CALLER PUSH1 0x0 SWAP1 DUP2 MSTORE PUSH1 0x6 PUSH1 0x20 MSTORE PUSH1 0x40 DUP2 KECCAK256 SLOAD PUSH1 0x4 DUP1 SLOAD SWAP1 SWAP2 SWAP1 DUP2 LT PUSH2 0x8E1 JUMPI PUSH2 0x8E1 PUSH2 0x1BB2 JUMP JUMPDEST PUSH1 0x0 SWAP2 DUP3 MSTORE PUSH1 0x20 DUP1 DUP4 KECCAK256 PUSH1 0x8 SWAP3 SWAP1 SWAP3 MUL SWAP1 SWAP2 ADD PUSH1 0x7 ADD DUP1 SLOAD PUSH1 0xFF NOT AND SWAP4 ISZERO ISZERO SWAP4 SWAP1 SWAP4 OR SWAP1 SWAP3 SSTORE CALLER DUP2 MSTORE PUSH1 0x6 SWAP1 SWAP2 MSTORE PUSH1 0x40 SWAP1 KECCAK256 SLOAD PUSH1 0x4 DUP1 SLOAD PUSH1 0x1 SWAP3 SWAP1 DUP2 LT PUSH2 0x92A JUMPI PUSH2 0x92A PUSH2 0x1BB2 JUMP JUMPDEST SWAP1 PUSH1 0x0 MSTORE PUSH1 0x20 PUSH1 0x0 KECCAK256 SWAP1 PUSH1 0x8 MUL ADD PUSH1 0x7 ADD PUSH1 0x1 PUSH2 0x100 EXP DUP2 SLOAD DUP2 PUSH1 0xFF MUL NOT AND SWAP1 DUP4 ISZERO ISZERO MUL OR SWAP1 SSTORE POP JUMP JUMPDEST CALLER PUSH1 0x0 SWAP1 DUP2 MSTORE PUSH1 0xA PUSH1 0x20 MSTORE PUSH1 0x40 SWAP1 KECCAK256 SLOAD PUSH1 0x60 SWAP1 PUSH1 0xFF AND ISZERO ISZERO PUSH1 0x1 EQ PUSH2 0x9BB JUMPI PUSH1 0x40 MLOAD PUSH3 0x461BCD PUSH1 0xE5 SHL DUP2 MSTORE PUSH1 0x20 PUSH1 0x4 DUP3 ADD MSTORE PUSH1 0x1C PUSH1 0x24 DUP3 ADD MSTORE PUSH32 0x4E6F206861636B6174686F6E206F6E20796F7572206164647265737300000000 PUSH1 0x44 DUP3 ADD MSTORE PUSH1 0x64 ADD PUSH2 0x6F4 JUMP JUMPDEST CALLER PUSH1 0x0 SWAP1 DUP2 MSTORE PUSH1 0x8 PUSH1 0x20 SWAP1 DUP2 MSTORE PUSH1 0x40 SWAP2 DUP3 SWAP1 KECCAK256 PUSH1 0x1 ADD DUP1 SLOAD DUP4 MLOAD DUP2 DUP5 MUL DUP2 ADD DUP5 ADD SWAP1 SWAP5 MSTORE DUP1 DUP5 MSTORE SWAP1 SWAP2 DUP4 ADD DUP3 DUP3 DUP1 ISZERO PUSH2 0xA1D JUMPI PUSH1 0x20 MUL DUP3 ADD SWAP2 SWAP1 PUSH1 0x0 MSTORE PUSH1 0x20 PUSH1 0x0 KECCAK256 SWAP1 JUMPDEST DUP2 SLOAD PUSH1 0x1 PUSH1 0x1 PUSH1 0xA0 SHL SUB AND DUP2 MSTORE PUSH1 0x1 SWAP1 SWAP2 ADD SWAP1 PUSH1 0x20 ADD DUP1 DUP4 GT PUSH2 0x9FF JUMPI JUMPDEST POP POP POP POP POP SWAP1 POP SWAP1 JUMP JUMPDEST PUSH7 0x470DE4DF820000 CALLVALUE LT ISZERO PUSH2 0xA77 JUMPI PUSH1 0x40 MLOAD PUSH3 0x461BCD PUSH1 0xE5 SHL DUP2 MSTORE PUSH1 0x20 PUSH1 0x4 DUP3 ADD MSTORE PUSH1 0x16 PUSH1 0x24 DUP3 ADD MSTORE PUSH22 0x29B2B73210181718189022AA241037B91036B7B9329 PUSH1 0x55 SHL PUSH1 0x44 DUP3 ADD MSTORE PUSH1 0x64 ADD PUSH2 0x6F4 JUMP JUMPDEST CALLER PUSH1 0x0 SWAP1 DUP2 MSTORE PUSH1 0xA PUSH1 0x20 MSTORE PUSH1 0x40 SWAP1 KECCAK256 SLOAD PUSH1 0xFF AND ISZERO PUSH2 0xB26 JUMPI CALLER PUSH1 0x0 SWAP1 DUP2 MSTORE PUSH1 0x6 PUSH1 0x20 MSTORE PUSH1 0x40 DUP2 KECCAK256 SLOAD PUSH1 0x4 DUP1 SLOAD SWAP1 SWAP2 SWAP1 DUP2 LT PUSH2 0xAB4 JUMPI PUSH2 0xAB4 PUSH2 0x1BB2 JUMP JUMPDEST PUSH1 0x0 SWAP2 DUP3 MSTORE PUSH1 0x20 DUP1 DUP4 KECCAK256 PUSH1 0x8 SWAP3 SWAP1 SWAP3 MUL SWAP1 SWAP2 ADD PUSH1 0x7 ADD DUP1 SLOAD PUSH1 0xFF NOT AND SWAP4 ISZERO ISZERO SWAP4 SWAP1 SWAP4 OR SWAP1 SWAP3 SSTORE CALLER DUP2 MSTORE PUSH1 0x6 SWAP1 SWAP2 MSTORE PUSH1 0x40 SWAP1 KECCAK256 SLOAD PUSH1 0x4 DUP1 SLOAD PUSH1 0x1 SWAP3 SWAP1 DUP2 LT PUSH2 0xAFD JUMPI PUSH2 0xAFD PUSH2 0x1BB2 JUMP JUMPDEST SWAP1 PUSH1 0x0 MSTORE PUSH1 0x20 PUSH1 0x0 KECCAK256 SWAP1 PUSH1 0x8 MUL ADD PUSH1 0x7 ADD PUSH1 0x1 PUSH2 0x100 EXP DUP2 SLOAD DUP2 PUSH1 0xFF MUL NOT AND SWAP1 DUP4 ISZERO ISZERO MUL OR SWAP1 SSTORE POP JUMPDEST PUSH1 0x40 DUP1 MLOAD PUSH2 0x140 DUP2 ADD DUP3 MSTORE PUSH1 0x1 DUP1 SLOAD DUP3 MSTORE PUSH1 0x20 DUP1 DUP4 ADD DUP11 DUP2 MSTORE SWAP4 DUP4 ADD DUP10 SWAP1 MSTORE PUSH1 0x60 DUP4 ADD DUP9 SWAP1 MSTORE PUSH1 0x80 DUP4 ADD DUP8 SWAP1 MSTORE PUSH1 0xA0 DUP4 ADD DUP7 SWAP1 MSTORE PUSH1 0xC0 DUP4 ADD DUP6 SWAP1 MSTORE PUSH1 0x0 PUSH1 0xE0 DUP5 ADD DUP2 SWAP1 MSTORE PUSH2 0x100 DUP5 ADD DUP2 SWAP1 MSTORE CALLER PUSH2 0x120 DUP6 ADD MSTORE PUSH1 0x4 DUP1 SLOAD SWAP4 DUP5 ADD DUP2 SSTORE SWAP1 MSTORE DUP3 MLOAD PUSH1 0x8 SWAP1 SWAP3 MUL PUSH32 0x8A35ACFBC15FF81A39AE7D344FD709F28E8600B4AA8C65C6B64BFE7FE36BD19B DUP2 ADD SWAP3 DUP4 SSTORE SWAP4 MLOAD DUP1 MLOAD SWAP4 SWAP5 SWAP3 SWAP4 PUSH2 0xBEA SWAP4 PUSH32 0x8A35ACFBC15FF81A39AE7D344FD709F28E8600B4AA8C65C6B64BFE7FE36BD19C ADD SWAP3 SWAP2 SWAP1 SWAP2 ADD SWAP1 PUSH2 0x14C4 JUMP JUMPDEST POP PUSH1 0x40 DUP3 ADD MLOAD DUP1 MLOAD PUSH2 0xC06 SWAP2 PUSH1 0x2 DUP5 ADD SWAP2 PUSH1 0x20 SWAP1 SWAP2 ADD SWAP1 PUSH2 0x14C4 JUMP JUMPDEST POP PUSH1 0x60 DUP3 ADD MLOAD DUP1 MLOAD PUSH2 0xC22 SWAP2 PUSH1 0x3 DUP5 ADD SWAP2 PUSH1 0x20 SWAP1 SWAP2 ADD SWAP1 PUSH2 0x14C4 JUMP JUMPDEST POP PUSH1 0x80 DUP3 ADD MLOAD DUP1 MLOAD PUSH2 0xC3E SWAP2 PUSH1 0x4 DUP5 ADD SWAP2 PUSH1 0x20 SWAP1 SWAP2 ADD SWAP1 PUSH2 0x14C4 JUMP JUMPDEST POP PUSH1 0xA0 DUP3 ADD MLOAD DUP1 MLOAD PUSH2 0xC5A SWAP2 PUSH1 0x5 DUP5 ADD SWAP2 PUSH1 0x20 SWAP1 SWAP2 ADD SWAP1 PUSH2 0x14C4 JUMP JUMPDEST POP PUSH1 0xC0 DUP3 ADD MLOAD PUSH1 0x6 DUP3 ADD SSTORE PUSH1 0xE0 DUP3 ADD MLOAD PUSH1 0x7 SWAP1 SWAP2 ADD DUP1 SLOAD PUSH2 0x100 DUP1 DUP6 ADD MLOAD PUSH2 0x120 SWAP1 SWAP6 ADD MLOAD PUSH2 0xFFFF NOT SWAP1 SWAP3 AND SWAP4 ISZERO ISZERO PUSH2 0xFF00 NOT AND SWAP4 SWAP1 SWAP4 OR SWAP4 ISZERO ISZERO SWAP1 SWAP3 MUL SWAP3 SWAP1 SWAP3 OR PUSH22 0xFFFFFFFFFFFFFFFFFFFFFFFFFFFFFFFFFFFFFFFF0000 NOT AND PUSH3 0x10000 PUSH1 0x1 PUSH1 0x1 PUSH1 0xA0 SHL SUB SWAP1 SWAP3 AND SWAP2 SWAP1 SWAP2 MUL OR SWAP1 SSTORE PUSH1 0x1 SLOAD PUSH1 0x4 DUP1 SLOAD SWAP1 SWAP2 SWAP1 DUP2 LT PUSH2 0xCE3 JUMPI PUSH2 0xCE3 PUSH2 0x1BB2 JUMP JUMPDEST PUSH1 0x0 SWAP2 DUP3 MSTORE PUSH1 0x20 DUP1 DUP4 KECCAK256 CALLER DUP5 MSTORE PUSH1 0x5 SWAP1 SWAP2 MSTORE PUSH1 0x40 SWAP1 SWAP3 KECCAK256 PUSH1 0x8 SWAP1 SWAP2 MUL SWAP1 SWAP2 ADD DUP1 SLOAD DUP3 SSTORE PUSH1 0x1 DUP1 DUP3 ADD DUP1 SLOAD SWAP3 SWAP4 SWAP3 SWAP2 DUP4 ADD SWAP2 PUSH2 0xD1D SWAP1 PUSH2 0x1B78 JUMP JUMPDEST PUSH2 0xD28 SWAP3 SWAP2 SWAP1 PUSH2 0x1548 JUMP JUMPDEST POP PUSH1 0x2 DUP3 ADD DUP2 PUSH1 0x2 ADD SWAP1 DUP1 SLOAD PUSH2 0xD3D SWAP1 PUSH2 0x1B78 JUMP JUMPDEST PUSH2 0xD48 SWAP3 SWAP2 SWAP1 PUSH2 0x1548 JUMP JUMPDEST POP PUSH1 0x3 DUP3 ADD DUP2 PUSH1 0x3 ADD SWAP1 DUP1 SLOAD PUSH2 0xD5D SWAP1 PUSH2 0x1B78 JUMP JUMPDEST PUSH2 0xD68 SWAP3 SWAP2 SWAP1 PUSH2 0x1548 JUMP JUMPDEST POP PUSH1 0x4 DUP3 ADD DUP2 PUSH1 0x4 ADD SWAP1 DUP1 SLOAD PUSH2 0xD7D SWAP1 PUSH2 0x1B78 JUMP JUMPDEST PUSH2 0xD88 SWAP3 SWAP2 SWAP1 PUSH2 0x1548 JUMP JUMPDEST POP PUSH1 0x5 DUP3 ADD DUP2 PUSH1 0x5 ADD SWAP1 DUP1 SLOAD PUSH2 0xD9D SWAP1 PUSH2 0x1B78 JUMP JUMPDEST PUSH2 0xDA8 SWAP3 SWAP2 SWAP1 PUSH2 0x1548 JUMP JUMPDEST POP PUSH1 0x6 DUP3 DUP2 ADD SLOAD DUP3 DUP3 ADD SSTORE PUSH1 0x7 SWAP3 DUP4 ADD DUP1 SLOAD SWAP4 SWAP1 SWAP3 ADD DUP1 SLOAD PUSH1 0xFF SWAP5 DUP6 AND ISZERO ISZERO PUSH1 0xFF NOT DUP3 AND DUP2 OR DUP4 SSTORE DUP5 SLOAD PUSH2 0x100 SWAP1 DUP2 SWAP1 DIV SWAP1 SWAP7 AND ISZERO ISZERO SWAP1 SWAP6 MUL PUSH2 0xFF00 NOT SWAP1 SWAP6 AND PUSH2 0xFFFF NOT SWAP1 SWAP2 AND OR SWAP4 SWAP1 SWAP4 OR DUP1 DUP5 SSTORE SWAP2 SLOAD PUSH1 0x1 PUSH1 0x1 PUSH1 0xA0 SHL SUB PUSH3 0x10000 SWAP2 DUP3 SWAP1 DIV AND MUL PUSH22 0xFFFFFFFFFFFFFFFFFFFFFFFFFFFFFFFFFFFFFFFF0000 NOT SWAP1 SWAP3 AND SWAP2 SWAP1 SWAP2 OR SWAP1 SWAP2 SSTORE PUSH1 0x1 DUP1 SLOAD CALLER PUSH1 0x0 SWAP1 DUP2 MSTORE PUSH1 0x20 SWAP4 DUP5 MSTORE PUSH1 0x40 DUP1 DUP3 KECCAK256 SWAP3 SWAP1 SWAP3 SSTORE DUP2 MLOAD DUP1 DUP4 ADD SWAP1 SWAP3 MSTORE PUSH1 0x2 DUP1 SLOAD DUP4 MSTORE PUSH1 0x60 DUP4 DUP7 ADD DUP2 DUP2 MSTORE PUSH1 0x3 DUP1 SLOAD SWAP7 DUP8 ADD DUP2 SSTORE SWAP1 SWAP4 MSTORE DUP4 MLOAD SWAP5 SWAP1 SWAP2 MUL PUSH32 0xC2575A0E9E593C00F959F8C92F12DB2869C3395A3B0502D05E2516446F71F85B DUP2 ADD SWAP5 DUP6 SSTORE SWAP2 MLOAD DUP1 MLOAD SWAP2 SWAP6 SWAP4 SWAP5 SWAP4 PUSH2 0xECB SWAP4 PUSH32 0xC2575A0E9E593C00F959F8C92F12DB2869C3395A3B0502D05E2516446F71F85C ADD SWAP3 SWAP2 ADD SWAP1 PUSH2 0x15C3 JUMP JUMPDEST POP POP POP PUSH1 0x3 PUSH1 0x2 SLOAD DUP2 SLOAD DUP2 LT PUSH2 0xEE3 JUMPI PUSH2 0xEE3 PUSH2 0x1BB2 JUMP JUMPDEST PUSH1 0x0 SWAP2 DUP3 MSTORE PUSH1 0x20 DUP1 DUP4 KECCAK256 CALLER DUP5 MSTORE PUSH1 0x8 SWAP1 SWAP2 MSTORE PUSH1 0x40 SWAP1 SWAP3 KECCAK256 PUSH1 0x2 SWAP1 SWAP2 MUL SWAP1 SWAP2 ADD DUP1 SLOAD DUP3 SSTORE PUSH1 0x1 DUP1 DUP3 ADD DUP1 SLOAD SWAP3 SWAP4 SWAP3 PUSH2 0xF1D SWAP3 DUP5 ADD SWAP2 SWAP1 PUSH2 0x1625 JUMP JUMPDEST POP POP CALLER PUSH1 0x0 SWAP1 DUP2 MSTORE PUSH1 0xA PUSH1 0x20 MSTORE PUSH1 0x40 DUP2 KECCAK256 DUP1 SLOAD PUSH1 0xFF NOT AND PUSH1 0x1 SWAP1 DUP2 OR SWAP1 SWAP2 SSTORE DUP1 SLOAD SWAP3 POP SWAP1 PUSH2 0xF4A DUP4 PUSH2 0x1BC8 JUMP JUMPDEST SWAP1 SWAP2 SSTORE POP POP PUSH1 0x2 DUP1 SLOAD SWAP1 PUSH1 0x0 PUSH2 0xF5F DUP4 PUSH2 0x1BC8 JUMP JUMPDEST SWAP2 SWAP1 POP SSTORE POP POP POP POP POP POP POP POP JUMP JUMPDEST CALLER PUSH1 0x0 SWAP1 DUP2 MSTORE PUSH1 0xA PUSH1 0x20 MSTORE PUSH1 0x40 SWAP1 KECCAK256 SLOAD PUSH1 0x60 SWAP1 PUSH1 0xFF AND ISZERO ISZERO PUSH1 0x1 EQ PUSH2 0xFD4 JUMPI PUSH1 0x40 MLOAD PUSH3 0x461BCD PUSH1 0xE5 SHL DUP2 MSTORE PUSH1 0x20 PUSH1 0x4 DUP3 ADD MSTORE PUSH1 0x1C PUSH1 0x24 DUP3 ADD MSTORE PUSH32 0x4E6F206861636B6174686F6E206F6E20796F7572206164647265737300000000 PUSH1 0x44 DUP3 ADD MSTORE PUSH1 0x64 ADD PUSH2 0x6F4 JUMP JUMPDEST CALLER PUSH1 0x0 SWAP1 DUP2 MSTORE PUSH1 0x7 PUSH1 0x20 MSTORE PUSH1 0x40 SWAP1 KECCAK256 DUP1 SLOAD PUSH2 0xFEE SWAP1 PUSH2 0x1B78 JUMP JUMPDEST DUP1 PUSH1 0x1F ADD PUSH1 0x20 DUP1 SWAP2 DIV MUL PUSH1 0x20 ADD PUSH1 0x40 MLOAD SWAP1 DUP2 ADD PUSH1 0x40 MSTORE DUP1 SWAP3 SWAP2 SWAP1 DUP2 DUP2 MSTORE PUSH1 0x20 ADD DUP3 DUP1 SLOAD PUSH2 0x101A SWAP1 PUSH2 0x1B78 JUMP JUMPDEST DUP1 ISZERO PUSH2 0xA1D JUMPI DUP1 PUSH1 0x1F LT PUSH2 0x103C JUMPI PUSH2 0x100 DUP1 DUP4 SLOAD DIV MUL DUP4 MSTORE SWAP2 PUSH1 0x20 ADD SWAP2 PUSH2 0xA1D JUMP JUMPDEST DUP3 ADD SWAP2 SWAP1 PUSH1 0x0 MSTORE PUSH1 0x20 PUSH1 0x0 KECCAK256 SWAP1 JUMPDEST DUP2 SLOAD DUP2 MSTORE SWAP1 PUSH1 0x1 ADD SWAP1 PUSH1 0x20 ADD DUP1 DUP4 GT PUSH2 0x104A JUMPI POP SWAP4 SWAP6 SWAP5 POP POP POP POP POP JUMP JUMPDEST PUSH7 0x2386F26FC10000 CALLVALUE LT ISZERO PUSH2 0x10B8 JUMPI PUSH1 0x40 MLOAD PUSH3 0x461BCD PUSH1 0xE5 SHL DUP2 MSTORE PUSH1 0x20 PUSH1 0x4 DUP3 ADD MSTORE PUSH1 0x16 PUSH1 0x24 DUP3 ADD MSTORE PUSH22 0x29B2B73210181718189022AA241037B91036B7B9329 PUSH1 0x55 SHL PUSH1 0x44 DUP3 ADD MSTORE PUSH1 0x64 ADD PUSH2 0x6F4 JUMP JUMPDEST CALLER PUSH1 0x0 SWAP1 DUP2 MSTORE PUSH1 0xA PUSH1 0x20 MSTORE PUSH1 0x40 SWAP1 KECCAK256 SLOAD PUSH1 0xFF AND ISZERO ISZERO PUSH1 0x1 EQ PUSH2 0x111C JUMPI PUSH1 0x40 MLOAD PUSH3 0x461BCD PUSH1 0xE5 SHL DUP2 MSTORE PUSH1 0x20 PUSH1 0x4 DUP3 ADD MSTORE PUSH1 0x1C PUSH1 0x24 DUP3 ADD MSTORE PUSH32 0x4E6F206861636B6174686F6E206F6E20796F7572206164647265737300000000 PUSH1 0x44 DUP3 ADD MSTORE PUSH1 0x64 ADD PUSH2 0x6F4 JUMP JUMPDEST CALLER PUSH1 0x0 SWAP1 DUP2 MSTORE PUSH1 0x6 PUSH1 0x20 MSTORE PUSH1 0x40 SWAP1 KECCAK256 SLOAD PUSH1 0x4 DUP1 SLOAD DUP4 SWAP3 SWAP1 DUP2 LT PUSH2 0x1141 JUMPI PUSH2 0x1141 PUSH2 0x1BB2 JUMP JUMPDEST SWAP1 PUSH1 0x0 MSTORE PUSH1 0x20 PUSH1 0x0 KECCAK256 SWAP1 PUSH1 0x8 MUL ADD PUSH1 0x6 ADD DUP2 SWAP1 SSTORE POP POP JUMP JUMPDEST PUSH7 0x2386F26FC10000 CALLVALUE LT ISZERO PUSH2 0x11A9 JUMPI PUSH1 0x40 MLOAD PUSH3 0x461BCD PUSH1 0xE5 SHL DUP2 MSTORE PUSH1 0x20 PUSH1 0x4 DUP3 ADD MSTORE PUSH1 0x16 PUSH1 0x24 DUP3 ADD MSTORE PUSH22 0x29B2B73210181718189022AA241037B91036B7B9329 PUSH1 0x55 SHL PUSH1 0x44 DUP3 ADD MSTORE PUSH1 0x64 ADD PUSH2 0x6F4 JUMP JUMPDEST CALLER PUSH1 0x0 SWAP1 DUP2 MSTORE PUSH1 0xA PUSH1 0x20 MSTORE PUSH1 0x40 SWAP1 KECCAK256 SLOAD PUSH1 0xFF AND ISZERO ISZERO PUSH1 0x1 EQ PUSH2 0x120D JUMPI PUSH1 0x40 MLOAD PUSH3 0x461BCD PUSH1 0xE5 SHL DUP2 MSTORE PUSH1 0x20 PUSH1 0x4 DUP3 ADD MSTORE PUSH1 0x1C PUSH1 0x24 DUP3 ADD MSTORE PUSH32 0x4E6F206861636B6174686F6E206F6E20796F7572206164647265737300000000 PUSH1 0x44 DUP3 ADD MSTORE PUSH1 0x64 ADD PUSH2 0x6F4 JUMP JUMPDEST CALLER PUSH1 0x0 SWAP1 DUP2 MSTORE PUSH1 0x6 PUSH1 0x20 MSTORE PUSH1 0x40 SWAP1 KECCAK256 SLOAD PUSH1 0x4 DUP1 SLOAD DUP6 SWAP3 SWAP1 DUP2 LT PUSH2 0x1232 JUMPI PUSH2 0x1232 PUSH2 0x1BB2 JUMP JUMPDEST SWAP1 PUSH1 0x0 MSTORE PUSH1 0x20 PUSH1 0x0 KECCAK256 SWAP1 PUSH1 0x8 MUL ADD PUSH1 0x2 ADD SWAP1 DUP1 MLOAD SWAP1 PUSH1 0x20 ADD SWAP1 PUSH2 0x1256 SWAP3 SWAP2 SWAP1 PUSH2 0x14C4 JUMP JUMPDEST POP CALLER PUSH1 0x0 SWAP1 DUP2 MSTORE PUSH1 0x6 PUSH1 0x20 MSTORE PUSH1 0x40 SWAP1 KECCAK256 SLOAD PUSH1 0x4 DUP1 SLOAD DUP5 SWAP3 SWAP1 DUP2 LT PUSH2 0x127C JUMPI PUSH2 0x127C PUSH2 0x1BB2 JUMP JUMPDEST SWAP1 PUSH1 0x0 MSTORE PUSH1 0x20 PUSH1 0x0 KECCAK256 SWAP1 PUSH1 0x8 MUL ADD PUSH1 0x3 ADD SWAP1 DUP1 MLOAD SWAP1 PUSH1 0x20 ADD SWAP1 PUSH2 0x12A0 SWAP3 SWAP2 SWAP1 PUSH2 0x14C4 JUMP JUMPDEST POP CALLER PUSH1 0x0 SWAP1 DUP2 MSTORE PUSH1 0x6 PUSH1 0x20 MSTORE PUSH1 0x40 SWAP1 KECCAK256 SLOAD PUSH1 0x4 DUP1 SLOAD DUP4 SWAP3 SWAP1 DUP2 LT PUSH2 0x12C6 JUMPI PUSH2 0x12C6 PUSH2 0x1BB2 JUMP JUMPDEST SWAP1 PUSH1 0x0 MSTORE PUSH1 0x20 PUSH1 0x0 KECCAK256 SWAP1 PUSH1 0x8 MUL ADD PUSH1 0x4 ADD SWAP1 DUP1 MLOAD SWAP1 PUSH1 0x20 ADD SWAP1 PUSH2 0x12EA SWAP3 SWAP2 SWAP1 PUSH2 0x14C4 JUMP JUMPDEST POP POP POP POP JUMP JUMPDEST CALLER PUSH1 0x0 SWAP1 DUP2 MSTORE PUSH1 0xA PUSH1 0x20 MSTORE PUSH1 0x40 SWAP1 KECCAK256 SLOAD PUSH1 0xFF AND ISZERO ISZERO PUSH1 0x1 EQ PUSH2 0x1354 JUMPI PUSH1 0x40 MLOAD PUSH3 0x461BCD PUSH1 0xE5 SHL DUP2 MSTORE PUSH1 0x20 PUSH1 0x4 DUP3 ADD MSTORE PUSH1 0x1C PUSH1 0x24 DUP3 ADD MSTORE PUSH32 0x4E6F206861636B6174686F6E206F6E20796F7572206164647265737300000000 PUSH1 0x44 DUP3 ADD MSTORE PUSH1 0x64 ADD PUSH2 0x6F4 JUMP JUMPDEST CALLER PUSH1 0x0 SWAP1 DUP2 MSTORE PUSH1 0x7 PUSH1 0x20 SWAP1 DUP2 MSTORE PUSH1 0x40 SWAP1 SWAP2 KECCAK256 DUP3 MLOAD PUSH2 0x1374 SWAP3 DUP5 ADD SWAP1 PUSH2 0x14C4 JUMP JUMPDEST POP POP JUMP JUMPDEST PUSH7 0x2386F26FC10000 CALLVALUE LT ISZERO PUSH2 0x13C8 JUMPI PUSH1 0x40 MLOAD PUSH3 0x461BCD PUSH1 0xE5 SHL DUP2 MSTORE PUSH1 0x20 PUSH1 0x4 DUP3 ADD MSTORE PUSH1 0x16 PUSH1 0x24 DUP3 ADD MSTORE PUSH22 0x29B2B73210181718189022AA241037B91036B7B9329 PUSH1 0x55 SHL PUSH1 0x44 DUP3 ADD MSTORE PUSH1 0x64 ADD PUSH2 0x6F4 JUMP JUMPDEST CALLER PUSH1 0x0 SWAP1 DUP2 MSTORE PUSH1 0xA PUSH1 0x20 MSTORE PUSH1 0x40 SWAP1 KECCAK256 SLOAD PUSH1 0xFF AND ISZERO ISZERO PUSH1 0x1 EQ PUSH2 0x142C JUMPI PUSH1 0x40 MLOAD PUSH3 0x461BCD PUSH1 0xE5 SHL DUP2 MSTORE PUSH1 0x20 PUSH1 0x4 DUP3 ADD MSTORE PUSH1 0x1C PUSH1 0x24 DUP3 ADD MSTORE PUSH32 0x4E6F206861636B6174686F6E206F6E20796F7572206164647265737300000000 PUSH1 0x44 DUP3 ADD MSTORE PUSH1 0x64 ADD PUSH2 0x6F4 JUMP JUMPDEST CALLER PUSH1 0x0 SWAP1 DUP2 MSTORE PUSH1 0x6 PUSH1 0x20 MSTORE PUSH1 0x40 SWAP1 KECCAK256 SLOAD PUSH1 0x4 DUP1 SLOAD DUP5 SWAP3 SWAP1 DUP2 LT PUSH2 0x1451 JUMPI PUSH2 0x1451 PUSH2 0x1BB2 JUMP JUMPDEST SWAP1 PUSH1 0x0 MSTORE PUSH1 0x20 PUSH1 0x0 KECCAK256 SWAP1 PUSH1 0x8 MUL ADD PUSH1 0x1 ADD SWAP1 DUP1 MLOAD SWAP1 PUSH1 0x20 ADD SWAP1 PUSH2 0x1475 SWAP3 SWAP2 SWAP1 PUSH2 0x14C4 JUMP JUMPDEST POP CALLER PUSH1 0x0 SWAP1 DUP2 MSTORE PUSH1 0x6 PUSH1 0x20 MSTORE PUSH1 0x40 SWAP1 KECCAK256 SLOAD PUSH1 0x4 DUP1 SLOAD DUP4 SWAP3 SWAP1 DUP2 LT PUSH2 0x149B JUMPI PUSH2 0x149B PUSH2 0x1BB2 JUMP JUMPDEST SWAP1 PUSH1 0x0 MSTORE PUSH1 0x20 PUSH1 0x0 KECCAK256 SWAP1 PUSH1 0x8 MUL ADD PUSH1 0x5 ADD SWAP1 DUP1 MLOAD SWAP1 PUSH1 0x20 ADD SWAP1 PUSH2 0x14BF SWAP3 SWAP2 SWAP1 PUSH2 0x14C4 JUMP JUMPDEST POP POP POP JUMP JUMPDEST DUP3 DUP1 SLOAD PUSH2 0x14D0 SWAP1 PUSH2 0x1B78 JUMP JUMPDEST SWAP1 PUSH1 0x0 MSTORE PUSH1 0x20 PUSH1 0x0 KECCAK256 SWAP1 PUSH1 0x1F ADD PUSH1 0x20 SWAP1 DIV DUP2 ADD SWAP3 DUP3 PUSH2 0x14F2 JUMPI PUSH1 0x0 DUP6 SSTORE PUSH2 0x1538 JUMP JUMPDEST DUP3 PUSH1 0x1F LT PUSH2 0x150B JUMPI DUP1 MLOAD PUSH1 0xFF NOT AND DUP4 DUP1 ADD OR DUP6 SSTORE PUSH2 0x1538 JUMP JUMPDEST DUP3 DUP1 ADD PUSH1 0x1 ADD DUP6 SSTORE DUP3 ISZERO PUSH2 0x1538 JUMPI SWAP2 DUP3 ADD JUMPDEST DUP3 DUP2 GT ISZERO PUSH2 0x1538 JUMPI DUP3 MLOAD DUP3 SSTORE SWAP2 PUSH1 0x20 ADD SWAP2 SWAP1 PUSH1 0x1 ADD SWAP1 PUSH2 0x151D JUMP JUMPDEST POP PUSH2 0x1544 SWAP3 SWAP2 POP PUSH2 0x1664 JUMP JUMPDEST POP SWAP1 JUMP JUMPDEST DUP3 DUP1 SLOAD PUSH2 0x1554 SWAP1 PUSH2 0x1B78 JUMP JUMPDEST SWAP1 PUSH1 0x0 MSTORE PUSH1 0x20 PUSH1 0x0 KECCAK256 SWAP1 PUSH1 0x1F ADD PUSH1 0x20 SWAP1 DIV DUP2 ADD SWAP3 DUP3 PUSH2 0x1576 JUMPI PUSH1 0x0 DUP6 SSTORE PUSH2 0x1538 JUMP JUMPDEST DUP3 PUSH1 0x1F LT PUSH2 0x1587 JUMPI DUP1 SLOAD DUP6 SSTORE PUSH2 0x1538 JUMP JUMPDEST DUP3 DUP1 ADD PUSH1 0x1 ADD DUP6 SSTORE DUP3 ISZERO PUSH2 0x1538 JUMPI PUSH1 0x0 MSTORE PUSH1 0x20 PUSH1 0x0 KECCAK256 SWAP2 PUSH1 0x1F ADD PUSH1 0x20 SWAP1 DIV DUP3 ADD JUMPDEST DUP3 DUP2 GT ISZERO PUSH2 0x1538 JUMPI DUP3 SLOAD DUP3 SSTORE SWAP2 PUSH1 0x1 ADD SWAP2 SWAP1 PUSH1 0x1 ADD SWAP1 PUSH2 0x15A8 JUMP JUMPDEST DUP3 DUP1 SLOAD DUP3 DUP3 SSTORE SWAP1 PUSH1 0x0 MSTORE PUSH1 0x20 PUSH1 0x0 KECCAK256 SWAP1 DUP2 ADD SWAP3 DUP3 ISZERO PUSH2 0x1538 JUMPI SWAP2 PUSH1 0x20 MUL DUP3 ADD JUMPDEST DUP3 DUP2 GT ISZERO PUSH2 0x1538 JUMPI DUP3 MLOAD DUP3 SLOAD PUSH20 0xFFFFFFFFFFFFFFFFFFFFFFFFFFFFFFFFFFFFFFFF NOT AND PUSH1 0x1 PUSH1 0x1 PUSH1 0xA0 SHL SUB SWAP1 SWAP2 AND OR DUP3 SSTORE PUSH1 0x20 SWAP1 SWAP3 ADD SWAP2 PUSH1 0x1 SWAP1 SWAP2 ADD SWAP1 PUSH2 0x15E3 JUMP JUMPDEST DUP3 DUP1 SLOAD DUP3 DUP3 SSTORE SWAP1 PUSH1 0x0 MSTORE PUSH1 0x20 PUSH1 0x0 KECCAK256 SWAP1 DUP2 ADD SWAP3 DUP3 ISZERO PUSH2 0x1538 JUMPI PUSH1 0x0 MSTORE PUSH1 0x20 PUSH1 0x0 KECCAK256 SWAP2 DUP3 ADD DUP3 DUP2 GT ISZERO PUSH2 0x1538 JUMPI DUP3 SLOAD DUP3 SSTORE SWAP2 PUSH1 0x1 ADD SWAP2 SWAP1 PUSH1 0x1 ADD SWAP1 PUSH2 0x15A8 JUMP JUMPDEST JUMPDEST DUP1 DUP3 GT ISZERO PUSH2 0x1544 JUMPI PUSH1 0x0 DUP2 SSTORE PUSH1 0x1 ADD PUSH2 0x1665 JUMP JUMPDEST DUP1 CALLDATALOAD PUSH1 0x1 PUSH1 0x1 PUSH1 0xA0 SHL SUB DUP2 AND DUP2 EQ PUSH2 0x1690 JUMPI PUSH1 0x0 DUP1 REVERT JUMPDEST SWAP2 SWAP1 POP JUMP JUMPDEST PUSH1 0x0 DUP1 PUSH1 0x40 DUP4 DUP6 SUB SLT ISZERO PUSH2 0x16A8 JUMPI PUSH1 0x0 DUP1 REVERT JUMPDEST PUSH2 0x16B1 DUP4 PUSH2 0x1679 JUMP JUMPDEST SWAP2 POP PUSH2 0x16BF PUSH1 0x20 DUP5 ADD PUSH2 0x1679 JUMP JUMPDEST SWAP1 POP SWAP3 POP SWAP3 SWAP1 POP JUMP JUMPDEST PUSH1 0x0 DUP2 MLOAD DUP1 DUP5 MSTORE PUSH1 0x0 JUMPDEST DUP2 DUP2 LT ISZERO PUSH2 0x16EE JUMPI PUSH1 0x20 DUP2 DUP6 ADD DUP2 ADD MLOAD DUP7 DUP4 ADD DUP3 ADD MSTORE ADD PUSH2 0x16D2 JUMP JUMPDEST DUP2 DUP2 GT ISZERO PUSH2 0x1700 JUMPI PUSH1 0x0 PUSH1 0x20 DUP4 DUP8 ADD ADD MSTORE JUMPDEST POP PUSH1 0x1F ADD PUSH1 0x1F NOT AND SWAP3 SWAP1 SWAP3 ADD PUSH1 0x20 ADD SWAP3 SWAP2 POP POP JUMP JUMPDEST PUSH1 0x0 PUSH1 0x20 DUP1 DUP4 ADD DUP2 DUP5 MSTORE DUP1 DUP6 MLOAD DUP1 DUP4 MSTORE PUSH1 0x40 SWAP3 POP DUP3 DUP7 ADD SWAP2 POP DUP3 DUP2 PUSH1 0x5 SHL DUP8 ADD ADD DUP5 DUP9 ADD PUSH1 0x0 JUMPDEST DUP4 DUP2 LT ISZERO PUSH2 0x1829 JUMPI PUSH1 0x3F NOT DUP10 DUP5 SUB ADD DUP6 MSTORE DUP2 MLOAD PUSH2 0x140 DUP2 MLOAD DUP6 MSTORE DUP9 DUP3 ADD MLOAD DUP2 DUP11 DUP8 ADD MSTORE PUSH2 0x176B DUP3 DUP8 ADD DUP3 PUSH2 0x16C8 JUMP JUMPDEST SWAP2 POP POP DUP8 DUP3 ADD MLOAD DUP6 DUP3 SUB DUP10 DUP8 ADD MSTORE PUSH2 0x1783 DUP3 DUP3 PUSH2 0x16C8 JUMP JUMPDEST SWAP2 POP POP PUSH1 0x60 DUP1 DUP4 ADD MLOAD DUP7 DUP4 SUB DUP3 DUP9 ADD MSTORE PUSH2 0x179D DUP4 DUP3 PUSH2 0x16C8 JUMP JUMPDEST SWAP3 POP POP POP PUSH1 0x80 DUP1 DUP4 ADD MLOAD DUP7 DUP4 SUB DUP3 DUP9 ADD MSTORE PUSH2 0x17B8 DUP4 DUP3 PUSH2 0x16C8 JUMP JUMPDEST SWAP3 POP POP POP PUSH1 0xA0 DUP1 DUP4 ADD MLOAD DUP7 DUP4 SUB DUP3 DUP9 ADD MSTORE PUSH2 0x17D3 DUP4 DUP3 PUSH2 0x16C8 JUMP JUMPDEST SWAP3 POP POP POP PUSH1 0xC0 DUP1 DUP4 ADD MLOAD DUP2 DUP8 ADD MSTORE POP PUSH1 0xE0 DUP1 DUP4 ADD MLOAD PUSH2 0x17F5 DUP3 DUP9 ADD DUP3 ISZERO ISZERO SWAP1 MSTORE JUMP JUMPDEST POP POP PUSH2 0x100 DUP3 DUP2 ADD MLOAD ISZERO ISZERO SWAP1 DUP7 ADD MSTORE PUSH2 0x120 SWAP2 DUP3 ADD MLOAD PUSH1 0x1 PUSH1 0x1 PUSH1 0xA0 SHL SUB AND SWAP2 SWAP1 SWAP5 ADD MSTORE SWAP4 DUP7 ADD SWAP4 SWAP1 DUP7 ADD SWAP1 PUSH1 0x1 ADD PUSH2 0x173C JUMP JUMPDEST POP SWAP1 SWAP9 SWAP8 POP POP POP POP POP POP POP POP JUMP JUMPDEST PUSH1 0x0 PUSH1 0x20 DUP3 DUP5 SUB SLT ISZERO PUSH2 0x1849 JUMPI PUSH1 0x0 DUP1 REVERT JUMPDEST PUSH2 0x1852 DUP3 PUSH2 0x1679 JUMP JUMPDEST SWAP4 SWAP3 POP POP POP JUMP JUMPDEST PUSH1 0x20 DUP1 DUP3 MSTORE DUP3 MLOAD DUP3 DUP3 ADD DUP2 SWAP1 MSTORE PUSH1 0x0 SWAP2 SWAP1 DUP5 DUP3 ADD SWAP1 PUSH1 0x40 DUP6 ADD SWAP1 DUP5 JUMPDEST DUP2 DUP2 LT ISZERO PUSH2 0x189A JUMPI DUP4 MLOAD PUSH1 0x1 PUSH1 0x1 PUSH1 0xA0 SHL SUB AND DUP4 MSTORE SWAP3 DUP5 ADD SWAP3 SWAP2 DUP5 ADD SWAP2 PUSH1 0x1 ADD PUSH2 0x1875 JUMP JUMPDEST POP SWAP1 SWAP7 SWAP6 POP POP POP POP POP POP JUMP JUMPDEST PUSH4 0x4E487B71 PUSH1 0xE0 SHL PUSH1 0x0 MSTORE PUSH1 0x41 PUSH1 0x4 MSTORE PUSH1 0x24 PUSH1 0x0 REVERT JUMPDEST PUSH1 0x0 DUP3 PUSH1 0x1F DUP4 ADD SLT PUSH2 0x18CD JUMPI PUSH1 0x0 DUP1 REVERT JUMPDEST DUP2 CALLDATALOAD PUSH8 0xFFFFFFFFFFFFFFFF DUP1 DUP3 GT ISZERO PUSH2 0x18E8 JUMPI PUSH2 0x18E8 PUSH2 0x18A6 JUMP JUMPDEST PUSH1 0x40 MLOAD PUSH1 0x1F DUP4 ADD PUSH1 0x1F NOT SWAP1 DUP2 AND PUSH1 0x3F ADD AND DUP2 ADD SWAP1 DUP3 DUP3 GT DUP2 DUP4 LT OR ISZERO PUSH2 0x1910 JUMPI PUSH2 0x1910 PUSH2 0x18A6 JUMP JUMPDEST DUP2 PUSH1 0x40 MSTORE DUP4 DUP2 MSTORE DUP7 PUSH1 0x20 DUP6 DUP9 ADD ADD GT ISZERO PUSH2 0x1929 JUMPI PUSH1 0x0 DUP1 REVERT JUMPDEST DUP4 PUSH1 0x20 DUP8 ADD PUSH1 0x20 DUP4 ADD CALLDATACOPY PUSH1 0x0 PUSH1 0x20 DUP6 DUP4 ADD ADD MSTORE DUP1 SWAP5 POP POP POP POP POP SWAP3 SWAP2 POP POP JUMP JUMPDEST PUSH1 0x0 DUP1 PUSH1 0x0 DUP1 PUSH1 0x0 DUP1 PUSH1 0xC0 DUP8 DUP10 SUB SLT ISZERO PUSH2 0x1962 JUMPI PUSH1 0x0 DUP1 REVERT JUMPDEST DUP7 CALLDATALOAD PUSH8 0xFFFFFFFFFFFFFFFF DUP1 DUP3 GT ISZERO PUSH2 0x197A JUMPI PUSH1 0x0 DUP1 REVERT JUMPDEST PUSH2 0x1986 DUP11 DUP4 DUP12 ADD PUSH2 0x18BC JUMP JUMPDEST SWAP8 POP PUSH1 0x20 DUP10 ADD CALLDATALOAD SWAP2 POP DUP1 DUP3 GT ISZERO PUSH2 0x199C JUMPI PUSH1 0x0 DUP1 REVERT JUMPDEST PUSH2 0x19A8 DUP11 DUP4 DUP12 ADD PUSH2 0x18BC JUMP JUMPDEST SWAP7 POP PUSH1 0x40 DUP10 ADD CALLDATALOAD SWAP2 POP DUP1 DUP3 GT ISZERO PUSH2 0x19BE JUMPI PUSH1 0x0 DUP1 REVERT JUMPDEST PUSH2 0x19CA DUP11 DUP4 DUP12 ADD PUSH2 0x18BC JUMP JUMPDEST SWAP6 POP PUSH1 0x60 DUP10 ADD CALLDATALOAD SWAP2 POP DUP1 DUP3 GT ISZERO PUSH2 0x19E0 JUMPI PUSH1 0x0 DUP1 REVERT JUMPDEST PUSH2 0x19EC DUP11 DUP4 DUP12 ADD PUSH2 0x18BC JUMP JUMPDEST SWAP5 POP PUSH1 0x80 DUP10 ADD CALLDATALOAD SWAP2 POP DUP1 DUP3 GT ISZERO PUSH2 0x1A02 JUMPI PUSH1 0x0 DUP1 REVERT JUMPDEST POP PUSH2 0x1A0F DUP10 DUP3 DUP11 ADD PUSH2 0x18BC JUMP JUMPDEST SWAP3 POP POP PUSH1 0xA0 DUP8 ADD CALLDATALOAD SWAP1 POP SWAP3 SWAP6 POP SWAP3 SWAP6 POP SWAP3 SWAP6 JUMP JUMPDEST PUSH1 0x20 DUP2 MSTORE PUSH1 0x0 PUSH2 0x1852 PUSH1 0x20 DUP4 ADD DUP5 PUSH2 0x16C8 JUMP JUMPDEST PUSH1 0x0 PUSH1 0x20 DUP3 DUP5 SUB SLT ISZERO PUSH2 0x1A48 JUMPI PUSH1 0x0 DUP1 REVERT JUMPDEST POP CALLDATALOAD SWAP2 SWAP1 POP JUMP JUMPDEST PUSH1 0x0 DUP1 PUSH1 0x0 PUSH1 0x60 DUP5 DUP7 SUB SLT ISZERO PUSH2 0x1A64 JUMPI PUSH1 0x0 DUP1 REVERT JUMPDEST DUP4 CALLDATALOAD PUSH8 0xFFFFFFFFFFFFFFFF DUP1 DUP3 GT ISZERO PUSH2 0x1A7C JUMPI PUSH1 0x0 DUP1 REVERT JUMPDEST PUSH2 0x1A88 DUP8 DUP4 DUP9 ADD PUSH2 0x18BC JUMP JUMPDEST SWAP5 POP PUSH1 0x20 DUP7 ADD CALLDATALOAD SWAP2 POP DUP1 DUP3 GT ISZERO PUSH2 0x1A9E JUMPI PUSH1 0x0 DUP1 REVERT JUMPDEST PUSH2 0x1AAA DUP8 DUP4 DUP9 ADD PUSH2 0x18BC JUMP JUMPDEST SWAP4 POP PUSH1 0x40 DUP7 ADD CALLDATALOAD SWAP2 POP DUP1 DUP3 GT ISZERO PUSH2 0x1AC0 JUMPI PUSH1 0x0 DUP1 REVERT JUMPDEST POP PUSH2 0x1ACD DUP7 DUP3 DUP8 ADD PUSH2 0x18BC JUMP JUMPDEST SWAP2 POP POP SWAP3 POP SWAP3 POP SWAP3 JUMP JUMPDEST PUSH1 0x0 PUSH1 0x20 DUP3 DUP5 SUB SLT ISZERO PUSH2 0x1AE9 JUMPI PUSH1 0x0 DUP1 REVERT JUMPDEST DUP2 CALLDATALOAD PUSH8 0xFFFFFFFFFFFFFFFF DUP2 GT ISZERO PUSH2 0x1B00 JUMPI PUSH1 0x0 DUP1 REVERT JUMPDEST PUSH2 0x1B0C DUP5 DUP3 DUP6 ADD PUSH2 0x18BC JUMP JUMPDEST SWAP5 SWAP4 POP POP POP POP JUMP JUMPDEST PUSH1 0x0 DUP1 PUSH1 0x40 DUP4 DUP6 SUB SLT ISZERO PUSH2 0x1B27 JUMPI PUSH1 0x0 DUP1 REVERT JUMPDEST DUP3 CALLDATALOAD PUSH8 0xFFFFFFFFFFFFFFFF DUP1 DUP3 GT ISZERO PUSH2 0x1B3F JUMPI PUSH1 0x0 DUP1 REVERT JUMPDEST PUSH2 0x1B4B DUP7 DUP4 DUP8 ADD PUSH2 0x18BC JUMP JUMPDEST SWAP4 POP PUSH1 0x20 DUP6 ADD CALLDATALOAD SWAP2 POP DUP1 DUP3 GT ISZERO PUSH2 0x1B61 JUMPI PUSH1 0x0 DUP1 REVERT JUMPDEST POP PUSH2 0x1B6E DUP6 DUP3 DUP7 ADD PUSH2 0x18BC JUMP JUMPDEST SWAP2 POP POP SWAP3 POP SWAP3 SWAP1 POP JUMP JUMPDEST PUSH1 0x1 DUP2 DUP2 SHR SWAP1 DUP3 AND DUP1 PUSH2 0x1B8C JUMPI PUSH1 0x7F DUP3 AND SWAP2 POP JUMPDEST PUSH1 0x20 DUP3 LT DUP2 SUB PUSH2 0x1BAC JUMPI PUSH4 0x4E487B71 PUSH1 0xE0 SHL PUSH1 0x0 MSTORE PUSH1 0x22 PUSH1 0x4 MSTORE PUSH1 0x24 PUSH1 0x0 REVERT JUMPDEST POP SWAP2 SWAP1 POP JUMP JUMPDEST PUSH4 0x4E487B71 PUSH1 0xE0 SHL PUSH1 0x0 MSTORE PUSH1 0x32 PUSH1 0x4 MSTORE PUSH1 0x24 PUSH1 0x0 REVERT JUMPDEST PUSH1 0x0 PUSH1 0x1 DUP3 ADD PUSH2 0x1BE8 JUMPI PUSH4 0x4E487B71 PUSH1 0xE0 SHL PUSH1 0x0 MSTORE PUSH1 0x11 PUSH1 0x4 MSTORE PUSH1 0x24 PUSH1 0x0 REVERT JUMPDEST POP PUSH1 0x1 ADD SWAP1 JUMP INVALID LOG2 PUSH5 0x6970667358 0x22 SLT KECCAK256 CREATE2 PUSH4 0x60A677F4 STATICCALL DUP6 SWAP2 CALLDATALOAD PUSH10 0x51FCFA5694D32ACF65A1 BYTE 0x4C 0x5F DUP6 COINBASE COINBASE STOP 0xCC 0xB4 PUSH16 0x1F64736F6C634300080D003300000000 "
    },
    "gasEstimates": {
      "creation": {
        "codeDepositCost": "1441000",
        "executionCost": "35753",
        "totalCost": "1476753"
      },
      "external": {
        "acceptReq(address)": "26901",
        "addCoverImg(string)": "infinite",
        "addHacks(string,string,string,string,string,uint256)": "infinite",
        "allHacks()": "infinite",
        "applyForHack(address,address)": "infinite",
        "endHack()": "59733",
        "getCoverImg()": "infinite",
        "getListOfApplicant()": "infinite",
        "increasePrize(uint256)": "28979",
        "isSellected()": "2426",
        "owner()": "2426",
        "setDates(string,string,string)": "infinite",
        "setDetails(string,string)": "infinite",
        "startHack()": "31014",
        "withdrawFunds()": "infinite"
      }
    },
    "methodIdentifiers": {
      "acceptReq(address)": "177169e2",
      "addCoverImg(string)": "a28a795f",
      "addHacks(string,string,string,string,string,uint256)": "625550c6",
      "allHacks()": "127d87db",
      "applyForHack(address,address)": "06228090",
      "endHack()": "5d9a65d0",
      "getCoverImg()": "69a104b3",
      "getListOfApplicant()": "5ed75341",
      "increasePrize(uint256)": "8bd03dcf",
      "isSellected()": "abb96304",
      "owner()": "8da5cb5b",
      "setDates(string,string,string)": "90a19277",
      "setDetails(string,string)": "b7b090ee",
      "startHack()": "55c39aa1",
      "withdrawFunds()": "24600fc3"
    }
  },
  "storageLayout": {
    "storage": [
      {
        "astId": 3,
        "contract": "Dethons.sol:Deethon",
        "label": "owner",
        "offset": 0,
        "slot": "0",
        "type": "t_address_payable"
      },
      {
        "astId": 6,
        "contract": "Dethons.sol:Deethon",
        "label": "id",
        "offset": 0,
        "slot": "1",
        "type": "t_uint256"
      },
      {
        "astId": 9,
        "contract": "Dethons.sol:Deethon",
        "label": "listId",
        "offset": 0,
        "slot": "2",
        "type": "t_uint256"
      },
      {
        "astId": 52,
        "contract": "Dethons.sol:Deethon",
        "label": "partsList",
        "offset": 0,
        "slot": "3",
        "type": "t_array(t_struct(List)48_storage)dyn_storage"
      },
      {
        "astId": 56,
        "contract": "Dethons.sol:Deethon",
        "label": "hackArr",
        "offset": 0,
        "slot": "4",
        "type": "t_array(t_struct(Hack)42_storage)dyn_storage"
      },
      {
        "astId": 61,
        "contract": "Dethons.sol:Deethon",
        "label": "addToHack",
        "offset": 0,
        "slot": "5",
        "type": "t_mapping(t_address,t_struct(Hack)42_storage)"
      },
      {
        "astId": 65,
        "contract": "Dethons.sol:Deethon",
        "label": "addToPos",
        "offset": 0,
        "slot": "6",
        "type": "t_mapping(t_address,t_uint256)"
      },
      {
        "astId": 69,
        "contract": "Dethons.sol:Deethon",
        "label": "photoHash",
        "offset": 0,
        "slot": "7",
        "type": "t_mapping(t_address,t_string_storage)"
      },
      {
        "astId": 74,
        "contract": "Dethons.sol:Deethon",
        "label": "partsListForOwner",
        "offset": 0,
        "slot": "8",
        "type": "t_mapping(t_address,t_struct(List)48_storage)"
      },
      {
        "astId": 78,
        "contract": "Dethons.sol:Deethon",
        "label": "reqIsAccepted",
        "offset": 0,
        "slot": "9",
        "type": "t_mapping(t_address,t_bool)"
      },
      {
        "astId": 82,
        "contract": "Dethons.sol:Deethon",
        "label": "isOldUser",
        "offset": 0,
        "slot": "10",
        "type": "t_mapping(t_address,t_bool)"
      }
    ],
    "types": {
      "t_address": {
        "encoding": "inplace",
        "label": "address",
        "numberOfBytes": "20"
      },
      "t_address_payable": {
        "encoding": "inplace",
        "label": "address payable",
        "numberOfBytes": "20"
      },
      "t_array(t_address)dyn_storage": {
        "base": "t_address",
        "encoding": "dynamic_array",
        "label": "address[]",
        "numberOfBytes": "32"
      },
      "t_array(t_struct(Hack)42_storage)dyn_storage": {
        "base": "t_struct(Hack)42_storage",
        "encoding": "dynamic_array",
        "label": "struct Deethon.Hack[]",
        "numberOfBytes": "32"
      },
      "t_array(t_struct(List)48_storage)dyn_storage": {
        "base": "t_struct(List)48_storage",
        "encoding": "dynamic_array",
        "label": "struct Deethon.List[]",
        "numberOfBytes": "32"
      },
      "t_bool": {
        "encoding": "inplace",
        "label": "bool",
        "numberOfBytes": "1"
      },
      "t_mapping(t_address,t_bool)": {
        "encoding": "mapping",
        "key": "t_address",
        "label": "mapping(address => bool)",
        "numberOfBytes": "32",
        "value": "t_bool"
      },
      "t_mapping(t_address,t_string_storage)": {
        "encoding": "mapping",
        "key": "t_address",
        "label": "mapping(address => string)",
        "numberOfBytes": "32",
        "value": "t_string_storage"
      },
      "t_mapping(t_address,t_struct(Hack)42_storage)": {
        "encoding": "mapping",
        "key": "t_address",
        "label": "mapping(address => struct Deethon.Hack)",
        "numberOfBytes": "32",
        "value": "t_struct(Hack)42_storage"
      },
      "t_mapping(t_address,t_struct(List)48_storage)": {
        "encoding": "mapping",
        "key": "t_address",
        "label": "mapping(address => struct Deethon.List)",
        "numberOfBytes": "32",
        "value": "t_struct(List)48_storage"
      },
      "t_mapping(t_address,t_uint256)": {
        "encoding": "mapping",
        "key": "t_address",
        "label": "mapping(address => uint256)",
        "numberOfBytes": "32",
        "value": "t_uint256"
      },
      "t_string_storage": {
        "encoding": "bytes",
        "label": "string",
        "numberOfBytes": "32"
      },
      "t_struct(Hack)42_storage": {
        "encoding": "inplace",
        "label": "struct Deethon.Hack",
        "members": [
          {
            "astId": 23,
            "contract": "Dethons.sol:Deethon",
            "label": "id",
            "offset": 0,
            "slot": "0",
            "type": "t_uint256"
          },
          {
            "astId": 25,
            "contract": "Dethons.sol:Deethon",
            "label": "hackName",
            "offset": 0,
            "slot": "1",
            "type": "t_string_storage"
          },
          {
            "astId": 27,
            "contract": "Dethons.sol:Deethon",
            "label": "startDate",
            "offset": 0,
            "slot": "2",
            "type": "t_string_storage"
          },
          {
            "astId": 29,
            "contract": "Dethons.sol:Deethon",
            "label": "regEndDate",
            "offset": 0,
            "slot": "3",
            "type": "t_string_storage"
          },
          {
            "astId": 31,
            "contract": "Dethons.sol:Deethon",
            "label": "endDate",
            "offset": 0,
            "slot": "4",
            "type": "t_string_storage"
          },
          {
            "astId": 33,
            "contract": "Dethons.sol:Deethon",
            "label": "description",
            "offset": 0,
            "slot": "5",
            "type": "t_string_storage"
          },
          {
            "astId": 35,
            "contract": "Dethons.sol:Deethon",
            "label": "prizeAmount",
            "offset": 0,
            "slot": "6",
            "type": "t_uint256"
          },
          {
            "astId": 37,
            "contract": "Dethons.sol:Deethon",
            "label": "hasStarted",
            "offset": 0,
            "slot": "7",
            "type": "t_bool"
          },
          {
            "astId": 39,
            "contract": "Dethons.sol:Deethon",
            "label": "hasEnded",
            "offset": 1,
            "slot": "7",
            "type": "t_bool"
          },
          {
            "astId": 41,
            "contract": "Dethons.sol:Deethon",
            "label": "hackOwner",
            "offset": 2,
            "slot": "7",
            "type": "t_address"
          }
        ],
        "numberOfBytes": "256"
      },
      "t_struct(List)48_storage": {
        "encoding": "inplace",
        "label": "struct Deethon.List",
        "members": [
          {
            "astId": 44,
            "contract": "Dethons.sol:Deethon",
            "label": "id",
            "offset": 0,
            "slot": "0",
            "type": "t_uint256"
          },
          {
            "astId": 47,
            "contract": "Dethons.sol:Deethon",
            "label": "listArr",
            "offset": 0,
            "slot": "1",
            "type": "t_array(t_address)dyn_storage"
          }
        ],
        "numberOfBytes": "64"
      },
      "t_uint256": {
        "encoding": "inplace",
        "label": "uint256",
        "numberOfBytes": "32"
      }
    }
  },
  "userdoc": {
    "kind": "user",
    "methods": {},
    "version": 1
  }
}